:100000000C94CC010C9410020C9410020C9410026D
:100010000C9410020C9410020C9410020C94100218
:100020000C9410020C9410020C9454080C942609A1
:100030000C94B0180C9410020C9410020C94100242
:100040000C9410020C94B51C0C9410020C94100229
:100050000C9410020C94EE180C9410020C941002E4
:100060000C9410020C9410020C9410020C941002C8
:100070000C9410020C9410020C9410020C941002B8
:100080000C9410020C9410020C9410020C941002A8
:100090000C9410020C9410020C9410020C94100298
:1000A0000C9410020C9410020C9410029309B509E0
:1000B000A30AB509A30AFA091D0AA30A720A850A46
:1000C000350D350D620D620DB90D48104810481000
:1000D000F30D4810F00EF00EAB0FC10F48103410A6
:1000E000311B491B141BBC1BBC1B661BBC1BBC1B54
:1000F000681BBC1B721B7C1BBC1BBC1BBC1BBC1B26
:10010000661B661BBC1B661BBC1B541BBC1BBC1BA1
:10011000A51BA51BA51BA51BA51BA51BA51BA51BDF
:10012000A51BA01BBC1BA01BBC1BBC1BBC1BBC1B66
:10013000BC1BBC1BBC1BBC1BBC1BBC1BBC1BA01B23
:10014000BC1BBC1B661B1B1BA71BA71BA71BA71B42
:10015000A71BA71BA71BA71BA71BA71BA71BA71B8F
:10016000851BBC1B3B1B016202620162026200F143
:10017000A100D200D329141A0815171C180C121349
:100180002A39041607090A0B0D0E0F2800E11D1B62
:10019000061905111038E5C000E0E3E22CE6E400A2
:1001A0000000000000351E1F2021222324252627C1
:1001B0004C363733342F30312D2E4B01000152494C
:1001C000C1C2A9AAA84E01010050514F010101006E
:1001D0000000000000001080FF012300200C0341FC
:1001E000004D004A00340030000000120348006156
:1001F000006E0020004300680065006E00000004EF
:1002000003090409025400030100A032090400009C
:100210000103010100092111010001223F0007052E
:10022000810308000A0904010001030000000921FC
:10023000110100012236000705820308000A0904A3
:100240000200010300000009211101000122390010
:10025000070583031000011201100100000008EDE2
:10026000FE726001000102000105010906A10105FD
:100270000719E029E7150025019508750181020598
:1002800008190129059505750191029501750391DC
:100290000105071900297715002501957875018159
:1002A00002C005010980A101850216010026B700E0
:1002B0001A01002AB700751095018100C0050C09CC
:1002C00001A1018503160100269C021A01002A9C47
:1002D00002751095018100C005010906A1010507FD
:1002E00019E029E71500250195087501810295019E
:1002F0007508810105081901290595057501910207
:100300009501750391010507190029FF150025FFC7
:10031000950675088100C000000000000000000084
:100320000001010102020203030404050506060799
:100330000808090A0B0B0C0D0E0F101112131516DD
:1003400017191A1B1D1E2022232527292B2D2F317B
:100350003335383A3D3F4244474A4D505356595C35
:100360005F6266696C7074777B7E82868A8E9195F7
:10037000999DA1A5A9ADB0B4B8BCC0C3C7CBCED21E
:10038000D5D8DBDFE2E4E7EAECEFF1F3F5F7F8FAD2
:10039000FBFCFDFEFFFFFF0011241FBECFEFDAE0E4
:1003A000DEBFCDBF04B603FE24C08091DB01909177
:1003B000DC01A091DD01B091DE018730904BA740B8
:1003C000B04BB9F41092DB011092DC011092DD0108
:1003D0001092DE0114BE84B7877F84BF88E10FB618
:1003E000F89480936000109260000FBEE0E0F8E3A4
:1003F000099511E0A0E0B1E0EAE2F3E402C0059063
:100400000D92AE31B107D9F711E0AEE1B1E001C014
:100410001D92AB3DB107E1F70E949A050C94932120
:100420000C9400000895089580E690E0089583E01C
:1004300090E00895611104C0FC018281811103C024
:1004400080E090E0089586E691E00895462F672FBA
:100450000C947F20805C0E947320089585E791E0D2
:1004600008958FE691E0089584B18E7784B985B1BF
:100470008D7785B98AB18F7C8AB98BB18F7C8BB926
:10048000089584E008958CE0089580E885BF85BFD5
:100490000E94340280B38C7080BB81B3836F81BBB8
:1004A00057985F9A87B18F7387B988B1806C88B984
:1004B00084B18F7084B985B1806F85B9A6E2B1E04F
:1004C00011961C921E92EEE1F1E0118210821396B9
:1004D0001C921E9212971382128215961C921E92E3
:1004E00014971582148217961C921E9216971782E3
:1004F000168208950F931F93CF93DF93CEE1D1E03F
:1005000010E005E0123051F0133059F0113019F0BD
:10051000549A5C9808C0559A5D9805C0279A2F9800
:1005200002C0209A289880EA8A95F1F729B13327EA
:1005300027FD309520953095832F881F8827881FA9
:1005400090E01C9903C042E050E002C040E050E05F
:10055000842B952B1D9903C0E4E0F0E002C0E0E09D
:10056000F0E08E2B9F2B1E9903C0E8E0F0E002C064
:10057000E0E0F0E08E2B9F2B369903C060E170E045
:1005800002C060E070E0862B972B66B1772767FD8D
:100590007095609570959B012227330F221F33279A
:1005A00055E0220F331F5A95E1F7AC01422B532B34
:1005B0002FB1332727FD309520953095C901882725
:1005C000990F881F992776E0880F991F7A95E1F790
:1005D000842B952B7E9903C060E870E002C060E038
:1005E00070E0862B972B7D9903C060E071E002C01C
:1005F00060E070E0862B972B7C9903C040E052E0CE
:1006000002C040E050E0842B952B799903C020E094
:1006100034E002C020E030E0822B932B789903C0B5
:1006200020E038E002C020E030E0822B932B2881CC
:1006300039812817390721F09983888300930001B5
:100640000E9434021F5F2296143009F05BCF809124
:100650000001882361F1815080930001882339F0E3
:100660008FE99FE00197F1F700C0000020C0809162
:100670001E0190911F019093270180932601809184
:10068000200190912101909329018093280180916C
:1006900022019091230190932B0180932A01809154
:1006A00024019091250190932D0180932C0181E0EC
:1006B000DF91CF911F910F910895E82FF0E0EE0F99
:1006C000FF1FEA5DFE4F8081918108950895CF93C9
:1006D000C82F873090F48430E0F4813090F10E948C
:1006E000191C0E94781C0E94AF1CEC2FF0E0EB520A
:1006F000FE4F8491CF910C94341C8730A9F0883040
:1007000001F50E94191C0E94721C0E94AF1C81E01E
:1007100012C00E94191C0E94781C0E94A91C86E02D
:100720008C1BCF910C94B21C0E94191C0E94721C4D
:100730000E94AF1C80E00E94961C83E0CF910C9435
:10074000A11C0E94781C0E94AF1CCF910C94231C0A
:10075000CF93DF9300D000D01F92CDB7DEB780914A
:10076000DA0180FF26C0869590E08730910519F068
:10077000089781F01EC06623E1F080E40E94A41C6B
:1007800080E20F900F900F900F900F90DF91CF911C
:100790000C94641C662369F080E40E94A41C80E22F
:1007A0000F900F900F900F900F90DF91CF910C94BE
:1007B0004D1C0F900F900F900F900F90DF91CF91E5
:1007C0000895E82FF0E0EE0FFF1FE752FE4F8591EE
:1007D00094910895229A2A9A569A5E9808958823A9
:1007E00019F0813019F008952A9808955E9A0895B5
:1007F000882319F0813019F008952A9A08955E9897
:10080000089580913E0108950895CF93DF9300D01D
:100810001F92CDB7DEB72091D101243021F523E01E
:1008200029839B838A8382E08093E9008FEF9091F4
:10083000E800815095FD06C095ED9A95F1F700000E
:100840008111F5CF8091E80085FF0DC040E050E0B8
:1008500063E070E0CE0101960E9444068091E800BA
:100860008E778093E8000F900F900F90DF91CF91DB
:100870000895CF93DF9300D01F92CDB7DEB79C01D0
:100880008091D101843019F592E099833B832A83CA
:100890009093E9008FEF9091E800815095FD06C09C
:1008A00095ED9A95F1F700008111F5CF8091E80060
:1008B00085FF0DC040E050E063E070E0CE0101969E
:1008C0000E9444068091E8008E778093E8000F90A4
:1008D0000F900F90DF91CF910895CF93DF932091E8
:1008E000D101243009F044C0EC0180910C0188232F
:1008F000C1F083E08093E9008FEF9091E800815090
:1009000095FD06C095E19A95F1F700008111F5CFAC
:100910008091E80085FF2CC040E050E060E170E08D
:1009200017C081E08093E9008FEF9091E80081503B
:1009300095FD06C095ED9A95F1F700008111F5CF70
:100940008091E80085FF14C040E050E068E070E06E
:10095000CE010E9444068091E8008E778093E800E3
:1009600080E1FE01AEE2B1E001900D928A95E1F7DF
:10097000DF91CF9108958091D001811109C00E942B
:10098000D9070E9436088091E20084608093E200DB
:1009900008951092D001089508950C9413020C94B8
:1009A000AC18089542E061EC81E00E94530742E0F8
:1009B00061EC82E00E94530742E161EC83E00C9419
:1009C00053078091D301833009F455C030F481304E
:1009D00071F0823009F495C008958A3009F481C01D
:1009E0008B3009F460C0893009F0A3C020C0809129
:1009F000D201813A09F09DC08091E800877F809301
:100A0000E8008091D6019091D701892B21F460E113
:100A10008EE291E003C060E080E090E070E00E9430
:100A20008F068091E8008B778093E800089580918D
:100A3000D201813209F07DC08091D6019091D70119
:100A4000009719F0029709F074C08091E800877F41
:100A50008093E8008091E80082FD05C08091D1017B
:100A60008111F8CF66C08091F10080933E018091A2
:100A7000E8008B775AC08091D201813A09F059C0C1
:100A80008091D6019091D701892B09F052C08091B5
:100A9000E800877F8093E8008091E80080FFFCCF2A
:100AA00080910B013DC08091D201813209F041C09B
:100AB0008091D6019091D701892BD9F58091E800DA
:100AC000877F8093E8000E9488079091D40181E09D
:100AD000911101C080E080930B0180930C010C9474
:100AE00065108091D201813221F58091E800877FE5
:100AF0008093E8000E9488078091D50180933F0190
:100B000008958091D201813AA1F48091E800877F15
:100B10008093E8008091E80080FFFCCF80913F0146
:100B20008093F1008091E8008E778093E8000C9428
:100B30008807089584B7877F84BF88E10FB6F8944B
:100B400080936000109260000FBE90E080E80FB6C6
:100B5000F89480936100909361000FBE0E94D907C2
:100B60000E9436088091E20084608093E2007894CD
:100B70008091D1018430E1F70E94080B81E091E07F
:100B80000E94BB0A8091D101853069F40E946F18E0
:100B90008091CF018823B1F30E949718882391F3A5
:100BA0000E942E06EFCF0E94180BECCF292F33277F
:100BB00023303105C9F064F42130310581F0223051
:100BC000310509F043C084E590E023E032E042C003
:100BD00021323105F1F02232310541F137C082E195
:100BE00090E027E532E036C099278130910541F049
:100BF0008230910541F0892B49F5EFEFF1E005C016
:100C0000EBEEF1E002C0EDEDF1E0849190E09F01A8
:100C100021C06330D8F4E62FF0E0EE0FFF1FE85E4E
:100C2000FE4F2081318189E090E014C0633070F480
:100C300070E0FB01EE0FFF1FEE5EFE4F2081318161
:100C4000FB01E15FFE4F808190E004C080E090E016
:100C500020E030E0FA0131832083089580E189BDEE
:100C600082E189BD09B400FEFDCF8091D8008F7D5F
:100C70008093D8008091E00082608093E0008091B2
:100C8000E00081FDFCCF0895CF92DF92EF92FF92BA
:100C90000F931F93CF93DF93EC018B016A010E94A6
:100CA000A707811133C0C114D10439F0F601808146
:100CB0009181081B190BC80FD91FE12CF12C0115CC
:100CC000110519F18091E80085FD16C08091E800BA
:100CD0008E778093E800C114D10449F0F601808139
:100CE0009181E80EF91EF182E08285E00FC00E943A
:100CF000A707882321F30AC089918093F10001504E
:100D00001109FFEFEF1AFF0ADACF80E0DF91CF91F0
:100D10001F910F91FF90EF90DF90CF900895209159
:100D2000D8013091D9012617370748F061157105B0
:100D300039F42091E8002E772093E80001C0B90132
:100D400040E061157105A9F12091D101222309F438
:100D500043C0253009F442C02091E80023FD40C083
:100D60002091E80022FD32C02091E80020FFE9CF69
:100D70004091F3002091F20030E0342BFC01CF01D0
:100D80006115710559F02830310540F48191809347
:100D9000F100615071092F5F3F4FF1CF41E02830E2
:100DA000310509F040E02091E8002E772093E8001B
:100DB000C8CF4111C9CF0AC08091D101882361F009
:100DC000853061F08091E80083FD0AC08091E800E1
:100DD00082FFF2CF80E0089582E0089583E00895D5
:100DE00081E008952091D8013091D9012617370765
:100DF00048F06115710539F42091E8002E772093B1
:100E0000E80001C0B901FC0120E06115710591F114
:100E10008091D101882309F440C0853009F43FC096
:100E20008091E80083FD3DC08091E80082FD2FC0E5
:100E30008091E80080FFE9CF2091F3008091F200DB
:100E400090E0922B6115710559F08830910540F4BE
:100E500024912093F1003196615071090196F2CFEF
:100E600021E0089709F020E08091E8008E778093D8
:100E7000E800CBCF2111CCCF0AC08091D1018823CB
:100E800061F0853061F08091E80083FD0AC08091B7
:100E9000E80082FFF2CF80E0089582E0089583E0C9
:100EA000089581E00895982F973058F59093E900C0
:100EB000981739F07091EC002091ED005091F000FE
:100EC00003C0242F762F50E021FF19C03091EB0092
:100ED0003E7F3093EB003091ED003D7F3093ED008D
:100EE0003091EB0031603093EB007093EC00209375
:100EF000ED005093F0002091EE0027FF07C09F5FA8
:100F0000D3CF8F708093E90081E0089580E0089549
:100F10008091D20187FF11C08091E80082FD05C059
:100F20008091D1018111F8CF11C08091E8008B77B9
:100F30000BC08091D101882349F08091E80080FFA7
:100F4000F8CF8091E8008E778093E8000895209193
:100F5000E4003091E50095E64091EC00842F81702B
:100F600040FF22C08091E80080FD1CC08091D1012B
:100F7000882391F0853091F08091EB0085FD10C0C1
:100F80004091E4005091E5004217530729F39A017C
:100F9000915011F784E0089582E0089583E0089568
:100FA00081E0089580E008954091E80042FFDECF9F
:100FB00008950E9447080E944F08E0EEF0E080810B
:100FC00081608083E8EDF0E080818F77808319BCB9
:100FD000A7EDB0E08C918E7F8C9380818F7E808393
:100FE0001092D00108950F931F93CF93DF930E9427
:100FF00047080E944F08C8EDD0E088818F7788832A
:1010000088818068888388818F7D888319BC10924D
:10101000D1011092CD011092CF011092CE0100EEBD
:1010200010E0F80180818B7F8083888181608883D4
:1010300042E060E080E00E945307E1EEF0E0808152
:101040008E7F8083E2EEF0E080818160808380810A
:1010500088608083F80180818E7F808388818061B1
:101060008883DF91CF911F910F910895E8EDF0E013
:1010700080818F7E8083E7EDF0E0808181608083D6
:1010800084E082BF81E08093D0010C94F307E8ED07
:10109000F0E080818E7F80831092E20008951092AC
:1010A000DA001092E10008951F920F920FB60F928E
:1010B00011242F933F934F935F936F937F938F935D
:1010C0009F93AF93BF93EF93FF938091E10082FFD3
:1010D0000BC08091E20082FF07C08091E1008B7F0E
:1010E0008093E1000E94D1048091DA0080FF1FC04C
:1010F0008091D80080FF1BC08091DA008E7F8093A2
:10110000DA008091D90080FF0DC080E189BD82E1C5
:1011100089BD09B400FEFDCF81E08093D1010E941A
:10112000BB0405C019BC1092D1010E94C904809172
:10113000E10080FF19C08091E20080FF15C080911E
:10114000E2008E7F8093E2008091E20080618093D4
:10115000E2008091D80080628093D80019BC85E0BD
:101160008093D1010E94CD048091E10084FF30C0C2
:101170008091E20084FF2CC080E189BD82E189BDBD
:1011800009B400FEFDCF8091D8008F7D8093D800F8
:101190008091E1008F7E8093E1008091E2008F7E5C
:1011A0008093E2008091E20081608093E200809170
:1011B000CD01882311F084E007C08091E30087FD12
:1011C00002C081E001C083E08093D1010E94CF047E
:1011D0008091E10083FF29C08091E20083FF25C058
:1011E0008091E100877F8093E10082E08093D101CC
:1011F0001092CD018091E1008E7F8093E10080917B
:10120000E2008E7F8093E2008091E2008061809313
:10121000E20042E060E080E00E9453078091F0002D
:1012200088608093F0000E94CC04FF91EF91BF9101
:10123000AF919F918F917F916F915F914F913F916E
:101240002F910F900FBE0F901F9018951F920F9225
:101250000FB60F9211242F933F934F935F936F9389
:101260007F938F939F93AF93BF93CF93DF93EF932E
:10127000FF93C091E900CF708091EC00D82FD1701E
:1012800080FDD0E81092E9008091F000877F809384
:10129000F00078940E946A091092E9008091F000B1
:1012A00088608093F000CD2BCF70C093E900FF9150
:1012B000EF91DF91CF91BF91AF919F918F917F91EE
:1012C0006F915F914F913F912F910F900FBE0F90B3
:1012D0001F9018951F93CF93DF93CDB7DEB7AA97D2
:1012E0000FB6F894DEBF0FBECDBFE2EDF1E088E0AF
:1012F0008E0F9091F10091938E13FBCF0E94E10429
:101300008091E80083FF1FC18091D2019091D301A9
:10131000492F50E04A30510508F015C1FA01EA5A48
:10132000FF4F0C944821803881F0823809F00BC1BE
:101330008091D6018F708093E9008091EB0085FB4E
:10134000882780F91092E90006C08091CE01909123
:10135000CF01911182609091E800977F9093E8000F
:101360008093F1001092F100C8C0282F2D7F09F062
:10137000EAC0882319F0823061F0E5C08091D40181
:10138000813009F0E0C0933009F080E08093CF0114
:101390002BC08091D401811127C08091D6018F701C
:1013A00009F4D1C08093E9002091EB0020FF1CC01C
:1013B000933021F48091EB00806214C09091EB0097
:1013C00090619093EB0021E030E0A90102C0440F4E
:1013D000551F8A95E2F74093EA001092EA00809147
:1013E000EB0088608093EB001092E9008091E800A8
:1013F000877F86C08111A7C01091D4011F7780918B
:10140000E3008078812B8093E3008091E800877F60
:101410008093E8000E9488078091E80080FFFCCF5D
:101420008091E30080688093E300111102C082E0A4
:1014300001C083E08093D10186C08058823008F0DB
:1014400082C08091D4019091D5018C3D53E09507E5
:1014500079F583E08A838AE289834FB7F894DE01C5
:10146000139620E03EE051E2E32FF0E05093570066
:10147000E49120FF03C0E295EF703F5FEF708E2F85
:1014800090E0EA3010F0C79601C0C0968D939D930E
:101490002F5F243149F74FBF8091E800877F809309
:1014A000E8006AE270E0CE0101960E948F0614C047
:1014B000AE014F5F5F4F6091D6010E94D605BC011F
:1014C000009709F440C09091E800977F9093E8005E
:1014D00089819A810E94F2068091E8008B7780933F
:1014E000E80031C0803879F58091E800877F8093EB
:1014F000E8008091CD018093F1008091E8008E7723
:101500008093E8000E9488071EC081111CC0909142
:10151000D4019230C0F48091E800877F8093E80086
:101520009093CD010E9488078091CD01811106C062
:101530008091E30087FD02C081E001C084E08093D8
:10154000D1010E94D2048091E80083FF0AC08091FB
:10155000E800877F8093E8008091EB0080628093B1
:10156000EB00AA960FB6F894DEBF0FBECDBFDF9199
:10157000CF911F9108959093450180934401089560
:1015800080914401909145010895E0914401F091CA
:101590004501309721F00190F081E02D099480E021
:1015A0000895E0914401F0914501309721F00280C7
:1015B000F381E02D09940895209142013091430177
:1015C0008217930771F09093430180934201E09159
:1015D0004401F0914501309721F00680F781E02D1C
:1015E0000994089520914001309141018217930799
:1015F00071F09093410180934001E0914401F0919A
:101600004501309721F00084F185E02D099408957B
:101610000E94D9180E9445020E947E190E94EB1F69
:101620000E94AC1E0E94061C0E94C11D0C942D211C
:101630004F925F927F928F929F92AF92BF92CF9282
:10164000DF92EF92FF920F931F93CF93DF93CDB76B
:10165000DEB72A970FB6F894DEBF0FBECDBF0E944B
:101660007A0297E4C92E91E0D92E00E010E0AA2476
:10167000A394B12C702E802F0E945D034C01F601C3
:10168000419051906F014826592641145104B1F4FC
:101690000F5F1F4F0430110569F78FEF89838A832D
:1016A0001B820E94E2188160782F9D838C83498180
:1016B0005A816B818D810E94AE103AC08091A50144
:1016C00081FD0E94660320E030E07501022E02C019
:1016D000EE0CFF1C0A94E2F7C70184219521892BA7
:1016E00009F12E837F828E209F2091E0892809F4C2
:1016F00090E098870E94E2188160782F9A87898706
:101700004E815F8168858A850E94AE10000F111F8F
:10171000F801E95BFE4F80819181E826F926F1828C
:10172000E08206C02F5F3F4F2C30310571F6B0CFFD
:10173000109146010E94C50A1817D9F00E94C50AE7
:10174000809346012A960FB6F894DEBF0FBECDBF38
:10175000DF91CF911F910F91FF90EF90DF90CF908D
:10176000BF90AF909F908F907F905F904F900C9420
:101770000E1F2A960FB6F894DEBF0FBECDBFDF91C5
:10178000CF911F910F91FF90EF90DF90CF90BF907E
:10179000AF909F908F907F905F904F900895CF93E0
:1017A000882309F4C2C0C82F823859F40E94C50AA0
:1017B00081FDBBC089E30E949D150E94271789E324
:1017C0000CC0833879F40E94C50A80FDAEC083E561
:1017D0000E949D150E94271783E50E946316CF91F2
:1017E0000C942717843859F40E94C50A82FD9DC0C5
:1017F00087E40E949D150E94271787E4EECF8CEFA7
:101800008C0F813A48F48C2F0E94C41B81118DC02B
:101810008C2F0E949D15E3CF80E28C0F883048F416
:10182000C77081E001C0880FCA95EAF70E94F916D7
:10183000D6CF8BE58C0F833078F4C53A29F0C63AC1
:1018400031F083E890E005C081E890E002C082E8D2
:1018500090E0CF910C94DC0A88E58C0F833108F07E
:1018600064C0C83A39F1C93A41F1CA3A49F1CB3AB0
:1018700051F1CC3A59F1CD3A61F1C03B69F1CE3A20
:1018800071F1CF3A79F1C13B81F1C23B89F1C33BA0
:1018900091F1C43B99F1C53BA1F1C63BA9F1C73B0E
:1018A000B1F1C83BB9F1C93BC1F1CA3BC9F180E014
:1018B00090E038C082EE90E035C089EE90E032C012
:1018C0008AEE90E02FC085EB90E02CC086EB90E094
:1018D00029C087EB90E026C08CEC90E023C08DEC13
:1018E00090E020C083E891E01DC08AE891E01AC032
:1018F00082E991E017C084E991E014C081E292E0AE
:1019000011C083E292E00EC084E292E00BC085E257
:1019100092E008C086E292E005C087E292E002C051
:101920008AE292E0CF910C94F20ACF910895882335
:1019300009F44BC0823859F40E94C50A81FF45C0A2
:1019400089E30E949D150E94271789E30CC0833804
:1019500071F40E94C50A80FF38C083E50E949D157E
:101960000E94271783E50E9463160C94271784387A
:1019700059F40E94C50A82FF28C087E40E949D1581
:101980000E94271787E4EFCF9CEF980F913A58F306
:1019900090E2980F983050F4877091E001C0990F51
:1019A0008A95EAF7892F0E94FF16DFCF9BE5980FF3
:1019B000933020F480E090E00C94DC0A885A833164
:1019C00020F480E090E00C94F20A0895882321F03E
:1019D0000E94F9160C9427170895882321F00E947D
:1019E000FF160C9427170895CF92DF92EF92FF9283
:1019F0000F931F93CF93DF93CDB7DEB727970FB623
:101A0000F894DEBF0FBECDBF25E0FC01DE011196CC
:101A100001900D922A95E1F7FC014081318102810C
:101A2000258122952F7063817481672B09F430C35F
:101A30003F3F19F44F3F09F42BC37C0149833A839C
:101A400089819A812F830E945C15182F9E830E94A2
:101A50005B150E946B149E81E92FE295EF70F0E018
:101A6000E05AFF4F2F810C944821892F807F9F706F
:101A7000F92E882319F0F29480EFF822002349F020
:101A8000FF2009F443C28F2D0E9409170E942717D7
:101A90003DC2812F0E94970CFF2009F4F9C28F2DBF
:101AA0000E940F1727960FB6F894DEBF0FBECDBF6A
:101AB000DF91CF911F910F91FF90EF90DF90CF902A
:101AC0000C942717892F807F9F70803211F4892F03
:101AD00003C0892F8295807F112319F0113009F1FD
:101AE0002AC00023A1F0222381F1213071F527962D
:101AF0000FB6F894DEBF0FBECDBFDF91CF911F911F
:101B00000F91FF90EF90DF90CF900C941917222344
:101B100019F0213009F4BCC28E830E941C178E81FB
:101B200079C1002321F0263008F0B2C20EC0253062
:101B300008F0AEC26FC10023C1F0222331F0F701DB
:101B4000958190FFE3C19F70958327960FB6F89417
:101B5000DEBF0FBECDBFDF91CF911F910F91FF90E0
:101B6000EF90DF90CF900C94E60C222309F452C141
:101B7000E1C1292F26952695237030E021153105E6
:101B800021F021303105C1F083C2002319F0812FEB
:101B9000937002C080E090E027960FB6F894DEBF05
:101BA0000FBECDBFDF91CF911F910F91FF90EF90AE
:101BB000DF90CF900C94DC0A002319F0812F9370F2
:101BC00002C080E090E027960FB6F894DEBF0FBE0B
:101BD000CDBFDF91CF911F910F91FF90EF90DF90DC
:101BE000CF900C94F20A892F837009F079C001110B
:101BF0004FC2812F829586958770880F880F212F7D
:101C00002F70C22ED12CE12CF12C082E04C0CC0C4C
:101C1000DD1CEE1CFF1C0A94D2F714FF12C04FE02B
:101C200050E060E070E004C0440F551F661F771F4E
:101C30008A95D2F78A019B010095109520953095E1
:101C400003C000E010E09801969596959370492F97
:101C500050E0C901B80142305105D1F0433051057F
:101C600059F16C297D298E299F294130510541F177
:101C700027960FB6F894DEBF0FBECDBFDF91CF9190
:101C80001F910F91FF90EF90DF90CF900C948014F4
:101C90006C297D298E299F2927960FB6F894DEBFDF
:101CA0000FBECDBFDF91CF911F910F91FF90EF90AD
:101CB000DF90CF900C9492140E948014C701B6015B
:101CC00027960FB6F894DEBF0FBECDBFDF91CF9140
:101CD0001F910F91FF90EF90DF90CF900C946E14B6
:101CE000002319F0892F817001C08695882309F49B
:101CF000CFC1812F829586958770880F880F212FFD
:101D00002F70C22ED12CE12CF12C082E04C0CC0C4B
:101D1000DD1CEE1CFF1C0A94D2F714FF12C04FE02A
:101D200050E060E070E004C0440F551F661F771F4D
:101D30008A95D2F78A019B010095109520953095E0
:101D400003C000E010E09801969596959370492F96
:101D500050E0C901B80142305105D1F0433051057E
:101D600059F16C297D298E299F294130510541F176
:101D700027960FB6F894DEBF0FBECDBFDF91CF918F
:101D80001F910F91FF90EF90DF90CF900C9437153B
:101D90006C297D298E299F2927960FB6F894DEBFDE
:101DA0000FBECDBFDF91CF911F910F91FF90EF90AC
:101DB000DF90CF900C9449150E943715C701B601EA
:101DC00027960FB6F894DEBF0FBECDBFDF91CF913F
:101DD0001F910F91FF90EF90DF90CF900C942515FD
:101DE000103F41F118F4103E48F48BC0123F09F443
:101DF00050C0D8F1133F09F460C083C01F70892F11
:101E00008F71002321F00E94BE14812F9ECE0E946C
:101E1000DF14812F27960FB6F894DEBF0FBECDBF1B
:101E2000DF91CF911F910F91FF90EF90DF90CF90B6
:101E30000C94ED0C0023A9F0253008F029C1892F5E
:101E40008F7127960FB6F894DEBF0FBECDBFDF911E
:101E5000CF911F910F91FF90EF90DF90CF900C9456
:101E60000415263008F014C1EACF0023A1F0892F11
:101E70008F7127960FB6F894DEBF0FBECDBFDF91EE
:101E8000CF911F910F91FF90EF90DF90CF900C9426
:101E9000BE14002361F3892F8F7127960FB6F89433
:101EA000DEBF0FBECDBFDF91CF911F910F91FF908D
:101EB000EF90DF90CF900C94DF14002391F0892FE6
:101EC0008F7127960FB6F894DEBF0FBECDBFDF919E
:101ED000CF911F910F91FF90EF90DF90CF900C94D6
:101EE000A91427960FB6F894DEBF0FBECDBFDF91C1
:101EF000CF911F910F91FF90EF90DF90CF900C94B6
:101F0000A4140023A1F0222309F4B1CF812F279636
:101F10000FB6F894DEBF0FBECDBFDF91CF911F91FA
:101F20000F91FF90EF90DF90CF900C94CF0B222376
:101F300009F4B1CF812F27960FB6F894DEBF0FBEFC
:101F4000CDBFDF91CF911F910F91FF90EF90DF9068
:101F5000CF900C94970C492F4F70612FC7010E94AE
:101F60001A0227960FB6F894DEBF0FBECDBFDF91E1
:101F7000CF911F910F91FF90EF90DF90CF900C9435
:101F8000D813011185C0112341F0892F8F7084303F
:101F900021F0907F212F2F70922B9F70492F50E0BE
:101FA0004230510509F440C0BCF44115510561F1BE
:101FB0004130510509F06CC027960FB6F894DEBF8A
:101FC0000FBECDBFDF91CF911F910F91FF90EF908A
:101FD000DF90CF900C94EB1D43305105A9F14430B4
:101FE000510509F055C0812F27960FB6F894DEBF32
:101FF0000FBECDBFDF91CF911F910F91FF90EF905A
:10200000DF90CF900C94461E27960FB6F894DEBF53
:102010000FBECDBFDF91CF911F910F91FF90EF9039
:10202000DF90CF900C94D21D27960FB6F894DEBFA8
:102030000FBECDBFDF91CF911F910F91FF90EF9019
:10204000DF90CF900C94041E27960FB6F894DEBF55
:102050000FBECDBFDF91CF911F910F91FF90EF90F9
:10206000DF90CF900C94231E492F4F70612FC70132
:1020700027960FB6F894DEBF0FBECDBFDF91CF918C
:102080001F910F91FF90EF90DF90CF900C946E18FE
:1020900027960FB6F894DEBF0FBECDBFDF91CF916C
:1020A0001F910F91FF90EF90DF90CF9008950E94C5
:1020B00016170E94EB160E94271780E090E00E94FE
:1020C000DC0A80E090E00C94F20A0E9406170C945F
:1020D00057100E945C15292F22952F7030E02C306C
:1020E00031054CF42A3031056CF42250310922308C
:1020F000310588F407C02C30310549F02F30310507
:1021000031F009C0803E48F0803F29F406C093FBBF
:10211000882780F9089580E0089581E00895CF939D
:10212000DF9300D000D01F92CDB7DEB70F900F9095
:102130000F900F900F90DF91CF910895CF93DF9381
:1021400000D000D000D0CDB7DEB726960FB6F894F9
:10215000DEBF0FBECDBFDF91CF910895CF93DF9348
:10216000CDB7DEB72B970FB6F894DEBF0FBECDBF4D
:102170004F83588769877A878B87DE01119686E0BF
:10218000FD0111928A95E9F785E0FE0137960190ED
:102190000D928A95E1F74F81588569857A858B85FF
:1021A0000E94A80349815A816B817C818D819E8127
:1021B0000E9434132B960FB6F894DEBF0FBECDBF2E
:1021C000DF91CF9108951F93CF93DF93C0914F017B
:1021D00016E080915001C81799F0D0E01C9FF001E3
:1021E0001D9FF00D1124EF5AFE4F408151816281F5
:1021F0007381848195810E949E102196C770E9CFDA
:10220000DF91CF911F9108954091810150918201FA
:102210006091830170918401809185019091860184
:102220000C949E108091860182958F7009F054C0A5
:1022300080918301882309F44FC080914F01A091C0
:10224000500160918101709182014091840150910F
:102250008501B6E08A1709F43FC090E041155105A9
:10226000C1F17F3F11F46F3FA1F1B89FF001B99F19
:10227000F00D1124EF5AFE4F218172132AC02081E4
:10228000621327C02281211124C0238134812417A5
:10229000350710F421503109241B350B283C31053A
:1022A000C0F4209186012F7020612093860126E0E2
:1022B000289FF001299FF00D1124EA5AFE4F8081DA
:1022C0008F708061808381E891E00E94F40C0C940F
:1022D000E31001968770BECF0895CF92DF92EF9200
:1022E000FF920F931F93CF93DF93CDB7DEB7629723
:1022F0000FB6F894DEBF0FBECDBF8C0185E0F801AC
:10230000DE011D9601900D928A95E1F7D8014C915E
:1023100011965C91119712966C9112971396CD902D
:10232000DC90149730918101709182018091840139
:1023300090918501009709F46BC17F3F19F43F3FED
:1023400009F466C1E0908301EE2009F4C0C0209139
:102350008601C816D90628F0F601E81BF90BCF0153
:1023600004C0809590958C0D9D1DFF24F394883CAE
:10237000910578F0F12C207F09F0C6C07C2DD98A18
:10238000C88A89890E948F1081E891E00E94F40C2C
:10239000B1C0822F807F09F046C0751314C034137A
:1023A00012C0611110C02F702061209386010E941D
:1023B000041181E891E00E94F40C80918601D8011B
:1023C00015968C932EC0CD2819F15F3F11F44F3F25
:1023D000F9F0F62E61111CC080914F01209150013F
:1023E00036E0821709F45AC090E0389FF001399F17
:1023F000F00D1124EF5AFE4F7181571306C0708102
:10240000471303C07281711103C001968770E9CF31
:10241000F62E662309F418C18091860181608093AD
:102420008601F12C11C1751308C0341306C0611167
:1024300004C080918601D801C3C04D875E878D8519
:102440009E856A8B0E9469106A898823E1F1662360
:10245000D1F120918601822F82958F7090E00297B2
:1024600074F0809181019091820198878F83198601
:10247000DB86CA862C87CE0107960E94F40C86E084
:10248000F801A1E8B1E001900D928A95E1F70E9470
:1024900012110E940411FF24F394D6C04D875E8769
:1024A0008D859E850E945C15292F22952F7030E026
:1024B000223031050CF0BCC09F7009F0B6C0805EC0
:1024C000883008F4C1C0C8010E94F40CE4CFC816DB
:1024D000D90608F453C0F601E81BF90BCF01883C7C
:1024E000910508F450C0F12C7C2DD98AC88A8989BD
:1024F0000E948F10E1E8F1E086E0DF011D928A95ED
:10250000E9F70E940411A0C0751314C0341312C05F
:10251000611110C080918601F8018583C8010E9475
:10252000F40C86E0E1E8F1E0DF011D928A95E9F71D
:10253000FE2C8AC04D875E878D859E856A8B0E94A2
:1025400069106A89882309F4BECF662309F4BBCFDA
:1025500020918601822F82958F7090E002970CF473
:102560008ECF80918101909182019A8389831B8211
:10257000DD82CC822E83CE0101967FCF809590950F
:102580008C0D9D1DACCFF62E662309F49CCF7513E0
:102590002EC034132CC02091860120FD1FC0822F35
:1025A00082958F70D9F0D80115962C9315978F309E
:1025B00049F08F5F982F9295907F822F8F70892B93
:1025C00015968C93C8010E94F40C86E0F801A1E8EE
:1025D000B1E001900D928A95E1F793CF86E0F80182
:1025E000A1E8B1E001900D928A95E1F72DC04D87E9
:1025F0005E878D859E850E946910811140CF8091F4
:102600008601816080938601C8010E94F40C1CC081
:10261000662309F458CF4D875E878D859E850E947D
:102620006910882309F44FCF2ACF811148CF0CC0FD
:10263000243031050CF047CF9F7009F440CFF801EA
:102640009581907F09F03BCF8F2D62960FB6F8945D
:10265000DEBF0FBECDBFDF91CF911F910F91FF90D5
:10266000EF90DF90CF9008951F93CF93DF93CDB776
:10267000DEB72C970FB6F894DEBF0FBECDBF4F83E9
:10268000588769877A878B879C87CE0107960E9437
:102690006D11882369F08F8198852A853B85232BCE
:1026A000F1F19F3F09F063C08F3F09F060C037C070
:1026B00086E0FE013796DE01119601900D928A9513
:1026C000E1F76F817885EA85FB85309741F17F3F9F
:1026D00011F46F3F21F12091500130E0C9010196C2
:1026E0008770992740914F0150E08417950709F4AE
:1026F00047C069837A83FD83EC8396E0929FD00183
:10270000939FB00D1124AF5ABE4FFE013196019038
:102710000D929A95E1F7809350010E94E31016E024
:1027200080914F01909150018917C1F1189FC0010C
:1027300011248F5A9E4F0E946D11882379F1E091E8
:102740004F011E9FF0011124EF5AFE4F408151812D
:1027500062817381848195810E949E1080914F01D6
:1027600090E001968770992780934F01D9CF4F81D0
:10277000588569857A858B859C850E949E10CFCF70
:102780000E9465101092500110924F01E1E8F1E0B3
:1027900086E0DF011D928A95E9F7C1CF2C960FB62E
:1027A000F894DEBF0FBECDBFDF91CF911F9108958A
:1027B000EF92FF920F931F93CF93DF938C010097BB
:1027C00009F46AC0F12CEE24E394E8012196F801A3
:1027D0008491843740F4843008F04FC0813081F018
:1027E000823019F159C0853709F442C098F19CE74D
:1027F000980F903708F050C08F770E94970C3FC019
:102800000E5F1F4FFE01C49180E28C0F883048F4A8
:10281000C7708E2D01C0880FCA95EAF70E9409176C
:102820002FC08C2F0E94CF0B2BC00E5F1F4FFE01BD
:10283000C49180E28C0F883048F4C7708E2D01C09F
:10284000880FCA95EAF70E940F171AC08C2F0E94B2
:10285000970C16C00E5F1F4FFE01C491CC2381F070
:102860008FE99FE00197F1F700C00000C150F6CF5B
:102870000E5F1F4FFE01F49003C00E94CF0B8E012C
:102880008F2D882309F4A1CFEFE9FFE03197F1F70D
:1028900000C000008150F5CFDF91CF911F910F91C3
:1028A000FF90EF90089560938B0170938C0180935B
:1028B0008D0190938E010E94441F0C9457106093D9
:1028C0008701709388018093890190938A010E9407
:1028D000861F0C94571008950C9453140F931F9354
:1028E00000918B0110918C0120918D0130918E010E
:1028F000602B712B822B932B1F910F910C945314EF
:102900000F931F9300918B0110918C0120918D01E9
:1029100030918E0160237123822393231F910F91A5
:102920000C9453140F931F9300918B0110918C0101
:1029300020918D0130918E01602771278227932786
:102940001F910F910C94531460E070E0CB010C9434
:102950005F140F931F9341E050E060E070E08A0144
:102960009B0104C0000F111F221F331F8A95D2F74D
:10297000C901B8011F910F910C945F140F931F931D
:1029800041E050E060E070E004C0440F551F661F56
:10299000771F8A95D2F78091870190918801A09145
:1029A0008901B0918A018A019B01082B192B2A2BDE
:1029B0003B2BC901B8011F910F910C945F140F9329
:1029C0001F9341E050E060E070E004C0440F551FE9
:1029D000661F771F8A95D2F7409550956095709540
:1029E0008091870190918801A0918901B0918A011D
:1029F0008A019B01082319232A233B23C901B8011B
:102A00001F910F910C945F140F931F9341E050E0BE
:102A100060E070E004C0440F551F661F771F8A9561
:102A2000D2F78091870190918801A0918901B0919E
:102A30008A018A019B01082719272A273B27C901F8
:102A4000B8011F910F910C945F140F931F93009185
:102A50008701109188012091890130918A01602BB2
:102A6000712B822B932B1F910F910C945F140F935A
:102A70001F93009187011091880120918901309165
:102A80008A0160237123822393231F910F910C9459
:102A90005F140F931F93009187011091880120917B
:102AA000890130918A0160277127822793271F911E
:102AB0000F910C945F140895CF92DF92EF92FF92E2
:102AC0000F931F93CF93DF938C01C0908B01D09015
:102AD0008C01E0908D01F0908E0140918701509122
:102AE00088016091890170918A01C42AD52AE62A59
:102AF000F72ACFE1D0E0D701C6010C2E04C0B6956D
:102B0000A795979587950A94D2F780FF07C0B801DB
:102B10008C2F0E94FB178130910531F4219758F7D3
:102B2000B80180E00E94FB17DF91CF911F910F91B8
:102B3000FF90EF90DF90CF900895CF92DF92EF92C9
:102B4000FF920F931F93CF93DF93C82F80910C01B7
:102B50008823C9F08C2F8695869586958F3008F04E
:102B6000A9C0E0910D01F0910E01E80FF11DC770B1
:102B700081E090E00C2E01C0880F0A94EAF7918161
:102B8000892B818397C0D090A2013091A001E09160
:102B90000D01F0910E01332309F477C04091A1019A
:102BA0008D2D2FEF96E0E92EF12C082F112707FD30
:102BB0001095BF01600F711FDB0112969C919C174D
:102BC00009F478C02F3F19F4911101C0282FC801D2
:102BD000019606E010E0B7010E9434218413E5CF8E
:102BE000D22F4D1152C02F3F71F4842F992787FDAA
:102BF00090950196B8010E9434218093A201315032
:102C00003093A00142C0822F992787FD90950196AD
:102C1000B8010E943421282FFF24F39406E010E02D
:102C2000332727FD30956F01C20ED31ED6011296B1
:102C30005C91552399F08D2F992787FD9095BF01C1
:102C4000680F791FDB0112965C93D60112961C92D5
:102C50000196B8010E943421D82F01C0F394C90114
:102C60000196B8010E943421282F8413D9CF242F34
:102C7000332727FD30952F193109C901069666E0E3
:102C800070E00E9434218093A1012091A10133279B
:102C900027FD3095E20FF31FC283C901019666E05C
:102CA00070E00E9434218093A1018091A0018F5F88
:102CB0008093A001DF91CF911F910F91FF90EF9032
:102CC000DF90CF900895EF92FF920F931F93CF93D1
:102CD000C82F80910C018823D1F08C2F8695869582
:102CE00086958F3008F071C0E0910D01F0910E01D2
:102CF000E80FF11DC77081E090E00C2E01C0880F35
:102D00000A94EAF780959181892381835EC020919E
:102D1000A2014091A001442309F457C0E0910D01A4
:102D2000F0910E010091A101112707FD109586E099
:102D3000E82EF12C30E0DF01A20FB31FCD01029687
:102D400012965C915C1337C0DC011C924150409399
:102D5000A001411104C01092A2011092A101409162
:102D6000A101842F992787FD9095059666E070E074
:102D70000E9434212817390741F5C091A20106E0CD
:102D800010E0842F992787FD90950596B8010E9441
:102D900034219C01482F0596B8010E943421DF019F
:102DA000A80FB91F12968C91811102C02C13E9CF84
:102DB0002093A1010AC0C9010196B7010E943421E4
:102DC000282F8017910709F0B5CFCF911F910F9150
:102DD000FF90EF90089581E090E0E0910D01F09177
:102DE0000E01E80FF91F1082019680319105A9F7B5
:102DF00008959091A401892B8093A4010895809552
:102E00009091A40189238093A40108951092A401B4
:102E100008959091A301892B8093A3010895809533
:102E20009091A30189238093A30108951092A30197
:102E3000089580938F01089510928F0108958091D5
:102E40000C01811103C08091A00108950895E091C3
:102E50000D01F0910E018091A4018083E0910D019C
:102E6000F0910E0190818091A301892B8083809144
:102E70008F01882361F0E0910D01F0910E019081A6
:102E8000892B80830E941F17811110928F018091DE
:102E90000D0190910E010C94D10A8D3B50F4883AAB
:102EA000E8F4853A90F4843070F4813009F45BC022
:102EB00007C0803E28F0883E30F0803F08F050C0C8
:102EC00080E090E0089590E00895853A09F44EC0BE
:102ED000863A09F44EC083E890E40895883A09F4EC
:102EE0004BC0893A09F44BC08A3A09F44BC08B3A7B
:102EF00009F44BC08C3A09F44BC08B3B09F44BC02E
:102F00008C3B09F44BC08D3A09F44BC0803B09F46B
:102F10004BC08E3A09F44BC08F3A09F44BC0813B49
:102F200009F44BC0823B09F44BC0833B09F44BC00E
:102F3000843B09F44BC0853B09F44BC0863B09F444
:102F40004BC0873B09F44BC0883B09F44BC0893B1D
:102F500009F44BC08A3B09F44BC080E094E4089527
:102F600090E09065089581E090E0089581E890E414
:102F7000089582E890E4089582EE94E4089589EE3D
:102F800094E408958AEE94E4089585EB94E408951A
:102F900086EB94E4089583EB94E4089584EB94E441
:102FA000089587EB94E408958CEC94E408958DECF7
:102FB00094E4089583E895E408958AE895E40895F3
:102FC00082E995E4089584E995E4089581E296E420
:102FD000089583E296E4089584E296E4089585E2F4
:102FE00096E4089586E296E4089587E296E40895CB
:102FF0008AE296E408950E942602803EA8F4803C6E
:1030000000F5813309F45CC038F4893209F452C008
:103010008A3209F45BC05FC08933B1F08238A1F015
:10302000853309F441C057C0833E41F128F4803E06
:1030300099F0823EB9F04FC0863E31F1873E71F182
:103040004AC00E942A0208959091CC0190FD02C0CE
:1030500091FF41C080EE3FC08091CC0180FFFACF4C
:1030600089E339C08091CC0182FF0CC08091CC01F2
:1030700084FF02C080E02FC083EE2DC08091CC0180
:1030800082FFF4CF82EE27C08091CC0183FF0AC07B
:103090008091CC0184FDEECF87EE1DC08091CC01E4
:1030A00083FFF6CF86EE17C08091CC0185FF06C066
:1030B00089E211C08091CC0185FFFACF85E30BC076
:1030C0008091CC0186FF06C08AE205C08091CC01C8
:1030D00086FFFACF81E30E944D17089508958091ED
:1030E000D101843019F11092A60120E488E190E02A
:1030F0000FB6F894A895809360000FBE20936000EF
:103100000E94231C83B7817F846083BF83B7816063
:1031100083BF7894889583B78E7F83BF88E10FB68D
:10312000F89480936000109260000FBE0895CF93D2
:103130000E9412020E947A020E941302C0E08C2FA9
:103140000E945D03892B29F4CF5FC430C1F780E072
:1031500001C081E0CF9108950E9465100C94C11DBB
:103160001F920F920FB60F9211248F939F93AF93DC
:10317000BF938091A601811113C08091A701909106
:10318000A801A091A901B091AA014196A11DB11D6C
:103190008093A7019093A801A093A901B093AA01DD
:1031A000BF91AF919F918F910F900FBE0F901F9085
:1031B000189582E084BD93E095BD9AEF97BD80930A
:1031C0006E0008952FB7F8948091A7019091A801FF
:1031D000A091A901B091AA012FBF08951F920F924B
:1031E0000FB60F9211248F939F93AF93BF9380914B
:1031F000A7019091A801A091A901B091AA010196FF
:10320000A11DB11D8093A7019093A801A093A901CE
:10321000B093AA01BF91AF919F918F910F900FBE74
:103220000F901F9018950E94D907F8942FEF87EA06
:1032300091E6215080409040E1F700C0000087E017
:1032400090EBDC018093DB019093DC01A093DD0126
:10325000B093DE012CE088E190E00FB6F894A895D9
:10326000809360000FBE20936000FFCFCF92DF926B
:10327000EF92FF920F931F93CF93DF93D82FC0E06D
:10328000EE24E394F12C8C2F0E945D036C0100E08E
:1032900010E09701002E02C0220F331F0A94E2F7BC
:1032A0002C213D21232B31F40F5F1F4F0C301105D2
:1032B00081F709C0602F7C2F80E00E942602D8137E
:1032C000F3CF81E004C0CF5FC430E9F680E0DF9146
:1032D000CF911F910F91FF90EF90DF90CF900895C5
:1032E000CF93C82F8CE20E943619882321F08C2FAF
:1032F000CF910C94361980E0CF910895CF930E941E
:10330000D71A811102C00E94B21AC5E6C15049F015
:103310000E947A028FE39CE90197F1F700C0000058
:10332000F5CF89E20E94701981111AC18AE20E94C8
:103330007019882341F00E94D11A0E94B21A0E948B
:10334000B3200E94182085E00E94701981110E940C
:1033500013190E94E21A8093A50187E00E94701958
:103360008823A9F18BE10E947019882351F0809184
:10337000A50181FB222720F991E0922790FB81F99A
:103380000EC08EE00E947019882361F08091A50123
:1033900082FB222720F991E0922790FB82F980930B
:1033A000A50115C080E10E9470199091A5018823A4
:1033B00041F093FB222720F981E0822780FB93F9DB
:1033C00004C0892F809580FB90F99093A50180918E
:1033D000A5010E94E61A0E94F41A8093CC0180EEA7
:1033E0000E947019882341F08091CC01982F90950C
:1033F00090FB80F98093CC0189E30E9470198823A7
:1034000059F08091CC0181FB222720F991E092278D
:1034100090FB81F98093CC0182EE0E947019882381
:1034200059F08091CC0182FB222720F991E092276C
:1034300090FB82F98093CC0186EE0E94701988235C
:1034400059F08091CC0183FB222720F991E092274B
:1034500090FB83F98093CC0183EE0E94701988233E
:1034600059F08091CC0184FB222720F991E092272A
:1034700090FB84F98093CC0185E30E947019882326
:1034800059F08091CC0185FB222720F991E0922709
:1034900090FB85F98093CC0181E30E947019882309
:1034A00059F08091CC0186FB222720F991E09227E8
:1034B00090FB86F98093CC0181E10E9470198823EA
:1034C00059F08091CC0187FB222720F991E09227C7
:1034D00090FB87F98093CC018091CC010E94F81A6F
:1034E0008091CC0187FB882780F980930C0187E2CB
:1034F0000E947019C82F8EE10E9470198111C2605C
:103500008FE10E9470198111C46080E20E947019DD
:103510008111C86081E20E9470198111C06182E24C
:103520000E9470198111C06283E20E94701981119A
:10353000C06484E20E947019882311F0C06802C040
:10354000CC2329F08C2F0E94EF1A6C2F03C00E940D
:10355000EB1A682F70E080E090E0CF910C946C142F
:10356000CF9108956DEE7EEF80E090E00E947E2185
:1035700060E082E090E00E94702160E083E090E0F3
:103580000E94702160E084E090E00E94702160E081
:1035900085E090E00E94702160E086E090E00C946D
:1035A00070216FEF7FEF80E090E00C947E2180E04F
:1035B00090E00E946A2121E08D3E9E4F09F020E0BC
:1035C000822F089582E090E00C946221682F82E0BF
:1035D00090E00C94702183E090E00C946221682FBD
:1035E00083E090E00C94702184E090E00C946221E0
:1035F000682F84E090E00C94702186E090E00C94B9
:103600006221682F86E090E00C9470210F931F9345
:10361000482F50E0FA013697E334F10508F0ACC0CA
:10362000E059FF4F0C9448210E94E21A0E94F41ABC
:103630000E94FD1A4BC00E94C00A892B59F00E94BB
:10364000C00A9093AC018093AB010E94651080E0AA
:1036500090E004C08091AB019091AC010E94BB0A44
:1036600035C08091A501817F8E7F8093A50181E087
:103670008093AD0182C00E9465100FEF13ED20E32F
:10368000015010402040E1F700C000000E941319D3
:103690001DC09091A501892F817090FF12C0917F6C
:1036A0009E7F9093A50169C08091A50181FB22278F
:1036B00020F991E0922790FB81F98093A50199234D
:1036C00029F08091A50181608093A50181E055C01A
:1036D0008091A50182FB222720F991E0922790FB9F
:1036E00082F9EBCF8091A50183FB222720F991E09D
:1036F000922790FB83F9E1CF0E94651090910C0115
:1037000081E0892780930C01E1CF81E890E00E945D
:10371000DC0A3FEF81EE94E0315080409040E1F7C9
:1037200000C0000080E090E00E94DC0A0FEF19E684
:1037300028E1015010402040E1F700C00000C6CF52
:1037400061E070E080E090E012C08D5101C08953CB
:1037500041E050E060E070E08A019B0104C0000F8E
:10376000111F221F331F8A95D2F7C901B8010E9489
:103770006C140E946510AACF80E01F910F910895EC
:1037800080E0089580E00895CF93C82F8091AD0127
:10379000882319F0813049F031C0E0910D01F0919A
:1037A0000E018081823261F507C0E0910D01F09138
:1037B0000E018081823261F48C2F0E94C01B811126
:1037C00004C08C2F0E94061B17C081E090E014C03B
:1037D0008C2F0E94C21B81110EC0C43149F018F415
:1037E000CB3049F00FC0C93219F0C83321F00AC0FC
:1037F0001092AD0107C081E0817006C01092AD014A
:1038000080E002C080E0F8CFCF910895E1E8F0E0D9
:103810008081886080838081816080838FB7F89405
:1038200093E09093890090ED909388008FBF0C9463
:10383000C81FEFE6F0E080818260808381E08093A2
:10384000C1010C94E31FEFE6F0E080818D7F80835F
:103850001092C10180E00E94D61F81E00E94D61F15
:103860008091C1010C94E31FEDEBF1E08083818333
:103870000895E82FF0E0E354FE4F2081422F50E0FE
:103880008FEF90E0861B9109841795071CF48FEF4A
:1038900080830895620F60830895CF93C82F682FA7
:1038A00080E00E94391C6C2F81E0CF910C94391C70
:1038B000E82FF0E0E354FE4F8081861710F4108269
:1038C0000895861B80830895CF93C82F682F80E0CA
:1038D0000E94581C6C2F81E0CF910C94581C809151
:1038E000C10108958091BC0183608093BC0108955B
:1038F0001092BC0108954091BB0121E030E06623A5
:1039000049F0082E01C0220F0A94EAF7242B2093D5
:10391000BB010895B90102C0660F771F8A95E2F7CF
:10392000CB01809584238093BB010895CF93C82F4A
:10393000682F80E00E947B1C6C2F81E0CF910C945B
:103940007B1C8093BA010895E8EBF1E080838183CA
:1039500008958091B70183608093B7010895109214
:10396000B70108958093B50108951F920F920FB685
:103970000F921124EF92FF920F931F932F933F9377
:103980004F935F936F937F938F939F93AF93BF9367
:10399000CF93DF93EF93FF938091B1018F5F80937B
:1039A000B1010FEB11E0C0E0D0E0FC2E8091B1013D
:1039B00081110DC0F8018081882319F08C2F0E949D
:1039C000C91FFE01E354FE4F8081F8018083F80196
:1039D00081918F019091B101981303C08F2D0E94A6
:1039E000D61F219719F0C1E0D0E0DFCF8091B00160
:1039F0008F5F803418F48093B001ACC01092B00196
:103A0000E090BC01E11005C09091B70191113BC05D
:103A1000A1C08091AF018F5F8093AF019091BA01F7
:103A2000981790F71092AF0108EB11E0C0E0D0E0DA
:103A3000F12CC7010C2E02C0969587950A94E2F7E7
:103A400080FF1AC0F8018081882319F0815080839B
:103A500013C08091BB0190E00C2E02C09695879513
:103A60000A94E2F761E080FF04C08C2F0E94581C8A
:103A700003C08C2F0E94391C0F5F1F4F219721F22A
:103A8000C1E0D0E0D6CF8091AE018F5F8093AE01D0
:103A90002091B501281708F05DC01092AE01209169
:103AA000B2013091B601A3EBB1E040E050E0C1E0DB
:103AB000D0E0692F70E0042E02C0769567950A94D5
:103AC000E2F760FF3AC08C91E82FF0E0E95EFC4F2E
:103AD0000491BA0163547E4FFB010083622F70E0B2
:103AE000042E02C0769567950A94E2F760FF19C02C
:103AF000811115C0BE01042E01C0660F0A94EAF7B9
:103B000060952623E32FF0E0042E02C0F695E7959A
:103B10000A94E2F7E0FF11C0962336230EC08150CD
:103B20000BC08F3741F4BE01042E01C0660F0A940A
:103B3000EAF7262B02C08F5F8C9311964130510516
:103B400019F041E050E0B5CF9093B7012093B20156
:103B50003093B601FF91EF91DF91CF91BF91AF917B
:103B60009F918F917F916F915F914F913F912F9195
:103B70001F910F91FF90EF900F900FBE0F901F902D
:103B800018950E94D71A811102C00E94B21A0E9491
:103B9000FD1A8093DA0180FF02C0869501C080E0A3
:103BA0000C9467038091DA0180FF14C0982F9695DA
:103BB000292F30E02830310544F49F5F990F817040
:103BC000892B8093DA010E94011B8091DA0186958E
:103BD0000C94670308958091DA0180FF14C0982F38
:103BE0009695292F30E02230310544F09158990FF5
:103BF0008170892B8093DA010E94011B8091DA0188
:103C000086950C94670308958091DA01982F90951A
:103C1000917090FB80F98093DA01992339F0982F05
:103C20009E7F21F4817082608093DA018091DA01B5
:103C30000E94011B8091DA0180FF02C0869501C0BD
:103C400080E00C9467039091DA01892F86958F5F4D
:103C50008F779170893028F4880F892B8093DA014F
:103C600002C09093DA018091DA018E7F91E009F42D
:103C700090E08091DA0190FB80F98093DA010E9454
:103C8000011B8091DA0186950C946703880F90914F
:103C9000DA019170892B8093DA018E7F91E009F42B
:103CA00090E08091DA0190FB80F98093DA010E9424
:103CB000011B8091DA0186950C946703DF92EF92E5
:103CC000FF920F931F93CF93DF930091C7010827B3
:103CD000611101C0C9F1C0E0D0E0E62EF82E10E07D
:103CE000DC2E0E946F1C882359F02091C30130E024
:103CF0000C2E02C0369527950A94E2F720FD1DC0D0
:103D0000E11009C0C8010C2E02C0969587950A944F
:103D1000E2F780FF12C02091C2012F2530E00C2E67
:103D200002C0369527950A94E2F78D2D20FF03C037
:103D30000E94EF0302C00E94F803219719F0C1E02E
:103D4000D0E0CECFF092C701DF91CF911F910F91BC
:103D5000FF90EF90DF9008950F931F93CF93DF9321
:103D6000C0E0D0E001E010E08C2F0E94282094FFFA
:103D70000BC08091C20198010C2E01C0220F0A9441
:103D8000EAF7282B2093C20195FF0BC08091C30155
:103D900098010C2E01C0220F0A94EAF7282B2093D9
:103DA000C3019F70892F90E08230910589F08330A4
:103DB0009105D1F08130910511F50C2E01C0880FCD
:103DC0000A94EAF79091C501892B8093C50117C029
:103DD0002091C401C8010C2E01C0880F0A94EAF793
:103DE000822B8093C4010BC02091C601C8010C2E08
:103DF00001C0880F0A94EAF7822B8093C6012197AD
:103E000019F0C1E0D0E0B0CF0E94EA0361E080E0A9
:103E1000DF91CF911F910F910C945E1ECF93DF9392
:103E20009091C601992369F1D82FC091C70190FFE5
:103E30000FC080E00E9428202D2F30E002C0359571
:103E400027958A95E2F720FD02C0CE7F01C0C160B0
:103E50008091C60181FF0FC081E00E9428202D2F94
:103E600030E002C0359527958A95E2F720FD02C023
:103E7000CD7F01C0C26060E08C2FDF91CF910C94A8
:103E80005E1EDF91CF910895CF92DF92EF92FF9265
:103E9000CF932091C501222399F16B017C01C09140
:103EA000C70120FF11C080E00E942820A7019601D1
:103EB00004C056954795379527958A95D2F720FDEA
:103EC00002C0CE7F01C0C1608091C50181FF0FC0DB
:103ED00081E00E94282004C0F694E794D794C79408
:103EE0008A95D2F7C0FC02C0CD7F01C0C26060E0FD
:103EF0008C2FCF91FF90EF90DF90CF900C945E1EAF
:103F0000CF91FF90EF90DF90CF900895CF92DF9206
:103F1000EF92FF92CF932091C401222399F16B017C
:103F20007C01C091C70120FF11C080E00E942820C1
:103F3000A701960104C056954795379527958A9510
:103F4000D2F720FD02C0CE7F01C0C1608091C401C4
:103F500081FF0FC081E00E94282004C0F694E794FE
:103F6000D794C7948A95D2F7C0FC02C0CD7F01C018
:103F7000C26060E08C2FCF91FF90EF90DF90CF90E8
:103F80000C945E1ECF91FF90EF90DF90CF9008953C
:103F900008952091C30130E0082E02C03695279580
:103FA0000A94E2F720FD0C94EF0308952091C301D9
:103FB00030E0082E02C0369527950A94E2F720FDDE
:103FC0000C94F8030895811105C061E08091C70148
:103FD0000C945E1E089588E090E00E946A21909300
:103FE000C9018093C801019661F480E00E94E10359
:103FF0009093C9018093C801BC0188E090E00E94C1
:104000007E218AE090E00E946A219093CB01809308
:10401000CA01019661F481E00E94E1039093CB0113
:104020008093CA01BC018AE090E00C947E2108953F
:1040300080E00E94E103BC0188E090E00E947E21C4
:1040400081E00E94E103BC018AE090E00C947E21B3
:10405000E82FF0E0EE0FFF1FE853FE4F80819181C3
:104060000895CF92DF92EF92FF920F931F93CF9319
:1040700080E190E00E946A218C01C12CD12C2DEEB0
:10408000E22E2EEFF22E0E944102C82F0E94430220
:10409000C89FC00111249C0183E0220F331F8A9521
:1040A000E1F7205C3F4FC216D30680F4C60142966A
:1040B0000E946221282F30E0C0FE02C0322F22274A
:1040C000E20EF31E8FEFC81AD80ADDCF81E00E157D
:1040D0001F0509F080E0CF911F910F91FF90EF90A5
:1040E000DF90CF90089590E0880F991F42960C942E
:1040F0006A2190E0880F991F42960C947E21EF92DE
:10410000FF920F931F93CF93DF9300D0CDB7DEB70D
:10411000082F4A8369830E944102089F800111246D
:104120000E944302809F7001819FF00C11240E9425
:10413000430269819701689F200D311D1124C90137
:104140004A81840F911D8E5A9F4F0F900F90DF91DF
:10415000CF911F910F91FF90EF900C9462218E5A96
:104160009F4F0C9470218F929F92AF92BF92CF92EB
:10417000DF92EF92FF920F931F93CF93DF930E94F2
:1041800031026C010E942E027C01C114D10409F19C
:104190000E9417024C01A12CB12C0DEE1EEFA814A9
:1041A000B90420F4F601C591D49102C0C0E0D0E07A
:1041B000BE018A2D0E9479200C0F1D1F8FEFA81AB7
:1041C000B80A82E0C80ED11C80E2A816B10439F703
:1041D00002C00DEE1EEFE114F10471F10E94140211
:1041E0006C01A12CB12C0E944102C82F0E944302F5
:1041F000C89FC001112423E0880F991F2A95E1F779
:10420000A816B906C8F4AC14BD0428F4F701EA0DE9
:10421000FB1DC49101C0C0E06C2FC5010E94AF20FE
:10422000EC2FF0E0A0FE02C0FE2FEE270E0F1F1FA6
:104230008FEFA81AB80AD7CFB80180E190E0DF91DC
:10424000CF911F910F91FF90EF90DF90CF90BF9093
:10425000AF909F908F900C947E210E94312081110D
:1042600002C00C94B320089597FB072E16F4009417
:1042700007D077FD09D00E944E2107FC05D03EF4FF
:10428000909581959F4F0895709561957F4F089502
:10429000EE0FFF1F0590F491E02D0994AA1BBB1BA4
:1042A00051E107C0AA1FBB1FA617B70710F0A61B36
:1042B000B70B881F991F5A95A9F780959095BC0157
:1042C000CD010895F999FECF92BD81BDF89A992745
:1042D00080B50895A8E1B0E042E050E00C9485215B
:1042E000262FF999FECF1FBA92BD81BD20BD0FB612
:1042F000F894FA9AF99A0FBE019608950E947021D7
:10430000272F0C947121DC01CB01FC01F999FECF20
:1043100006C0F2BDE1BDF89A319600B40D9241504D
:0A4320005040B8F70895F894FFCF5D
:10432A000501046D04040439040504010190013FE8
:0E433A003639D802A202690215022E0247028D
:00000001FF
