:100000000C94CC010C9410020C9410020C9410026D
:100010000C9410020C9410020C9410020C94100218
:100020000C9410020C9410020C946C080C943E0971
:100030000C94C6180C9410020C9410020C9410022C
:100040000C9410020C94CA1C0C9410020C94100214
:100050000C9410020C9404190C9410020C941002CD
:100060000C9410020C9410020C9410020C941002C8
:100070000C9410020C9410020C9410020C941002B8
:100080000C9410020C9410020C9410020C941002A8
:100090000C9410020C9410020C9410020C94100298
:1000A0000C9410020C9410020C941002AB09CD09B0
:1000B000BB0ACD09BB0A120A350ABB0A8A0A9D0A85
:1000C0004D0D4D0D7A0D7A0DD10D60106010601040
:1000D0000B0E6010080F080FC30FD90F60104C10E3
:1000E000471B5F1B2A1BD21BD21B7C1BD21BD21BA4
:1000F0007E1BD21B881B921BD21BD21BD21BD21B76
:100100007C1B7C1BD21B7C1BD21B6A1BD21BD21BF1
:10011000BB1BBB1BBB1BBB1BBB1BBB1BBB1BBB1B2F
:10012000BB1BB61BD21BB61BD21BD21BD21BD21BB6
:10013000D21BD21BD21BD21BD21BD21BD21BB61B73
:10014000D21BD21B7C1B311BBD1BBD1BBD1BBD1B92
:10015000BD1BBD1BBD1BBD1BBD1BBD1BBD1BBD1BDF
:100160009B1BD21B511B016202620162026200F101
:10017000A100D200D329141A0815171C180C121349
:100180002A39041607090A0B0D0E0F2800E11D1B62
:10019000061905111038E5C000E0E3E22CE6E400A2
:1001A0000000000000351E1F2021222324252627C1
:1001B0004C363733342F30312D2E4B01000152494C
:1001C000C1C2A9AAA84E01010050514F010101006E
:1001D0000000000000001080FF012300200C0341FC
:1001E000004D004A00340030000000120348006156
:1001F000006E0020004300680065006E00000004EF
:1002000003090409025400030100A032090400009C
:100210000103010100092111010001223F0007052E
:10022000810308000A0904010001030000000921FC
:10023000110100012236000705820308000A0904A3
:100240000200010300000009211101000122390010
:10025000070583031000011201100100000008EDE2
:10026000FE726002000102000105010906A10105FC
:100270000719E029E7150025019508750181020598
:1002800008190129059505750191029501750391DC
:100290000105071900297715002501957875018159
:1002A00002C005010980A101850216010026B700E0
:1002B0001A01002AB700751095018100C0050C09CC
:1002C00001A1018503160100269C021A01002A9C47
:1002D00002751095018100C005010906A1010507FD
:1002E00019E029E71500250195087501810295019E
:1002F0007508810105081901290595057501910207
:100300009501750391010507190029FF150025FFC7
:10031000950675088100C000000000000000000084
:100320000001010102020203030404050506060799
:100330000808090A0B0B0C0D0E0F101112131516DD
:1003400017191A1B1D1E2022232527292B2D2F317B
:100350003335383A3D3F4244474A4D505356595C35
:100360005F6266696C7074777B7E82868A8E9195F7
:10037000999DA1A5A9ADB0B4B8BCC0C3C7CBCED21E
:10038000D5D8DBDFE2E4E7EAECEFF1F3F5F7F8FAD2
:10039000FBFCFDFEFFFFFF0011241FBECFEFDAE0E4
:1003A000DEBFCDBF04B603FE24C08091DB01909177
:1003B000DC01A091DD01B091DE018730904BA740B8
:1003C000B04BB9F41092DB011092DC011092DD0108
:1003D0001092DE0114BE84B7877F84BF88E10FB618
:1003E000F89480936000109260000FBEE0E0F8E3A4
:1003F000099511E0A0E0B1E0E6E5F3E402C0059064
:100400000D92AE31B107D9F711E0AEE1B1E001C014
:100410001D92AB3DB107E1F70E94B2050C94A921F2
:100420000C9400000895089580E690E0089583E01C
:1004300090E00895611104C0FC018281811103C024
:1004400080E090E0089586E691E00895462F672FBA
:100450000C949420805C0E948820089585E791E0A8
:1004600008958FE691E0089580B38F7080BB81B3CB
:100470008F7081BB089584E008958CE0089580E832
:1004800085BF85BF0E94340280B38C7F80BB81B35F
:10049000836081BB6E98769A87B18F7387B988B174
:1004A000806C88B98AB18F768AB98BB180698BB933
:1004B00084B18C7484B985B1836B85B9A6E2B1E04F
:1004C00011961C921E92EEE1F1E0118210821396B9
:1004D0001C921E9212971382128215961C921E92E3
:1004E00014971582148217961C921E9216971782E3
:1004F00016820895CF92DF92EF92FF920F931F938F
:10050000CF93DF931F92CDB7DEB70EE111E040E04D
:10051000FF24F394B5E0EB2E423051F0433059F014
:10052000413019F0849A8C9808C0859A8D9805C03E
:10053000869A8E9802C0879A8F9880EA8A95F1F7FA
:100540008FB186958F2580FBCC24C0F8D12C78996B
:1005500003C022E030E002C020E030E0C9018C2975
:100560009D29669903C024E030E002C020E030E01D
:10057000BC01622B732B26B1332727FD30952095C4
:100580003095C9018827990F881F9927A3E0880F04
:10059000991FAA95E1F7862B972B369903C0A0E106
:1005A000B0E002C0A0E0B0E08A2B9B2B189903C0FA
:1005B000A0E2B0E002C0A0E0B0E08A2B9B2B4C99F7
:1005C00003C0E0E4F0E002C0E0E0F0E08E2B9F2BFF
:1005D000199903C020E830E002C020E030E0BC01FF
:1005E000622B732B23B1332727FD3095209530954F
:1005F000C9018827990F881F9927982F8827862B4C
:10060000972B1D9903C020E032E002C020E030E0CB
:10061000822B932B1C9903C020E034E002C020E021
:1006200030E0BC01622B732B29B1332727FD3095B5
:1006300020953095C9018827990F881F9927982FF1
:100640008827990F990F990F862B972BF8012081F6
:1006500031812817390721F091838083E0920001CE
:1006600049830E94340249814F5F0E5F1F4F44301F
:1006700009F052CF80910001882361F1815080936D
:100680000001882339F08FE99FE00197F1F700C05E
:10069000000020C080911E0190911F0190932701BE
:1006A000809326018091200190912101909329014E
:1006B00080932801809122019091230190932B0136
:1006C00080932A01809124019091250190932D011E
:1006D00080932C0181E00F90DF91CF911F910F91BA
:1006E000FF90EF90DF90CF900895E82FF0E0EE0FAD
:1006F000FF1FEA5DFE4F8081918108950895CF9399
:10070000C82F873090F48430E0F4813090F10E945B
:100710002F1C0E948E1C0E94C41CEC2FF0E0EB5298
:10072000FE4F8491CF910C944A1C8730A9F08830F9
:1007300001F50E942F1C0E94881C0E94C41C81E0AD
:1007400012C00E942F1C0E948E1C0E94BE1C86E0BC
:100750008C1BCF910C94C71C0E942F1C0E94881CDC
:100760000E94C41C80E00E94AB1C83E0CF910C94DB
:10077000B61C0E948E1C0E94C41CCF910C94391C84
:10078000CF93DF9300D000D01F92CDB7DEB780911A
:10079000DA0180FF26C0869590E08730910519F038
:1007A000089781F01EC06623E1F080E40E94B91C26
:1007B00080E20F900F900F900F900F90DF91CF91EC
:1007C0000C947A1C662369F080E40E94B91C80E2D4
:1007D0000F900F900F900F900F90DF91CF910C948E
:1007E000631C0F900F900F900F900F90DF91CF919F
:1007F0000895E82FF0E0EE0FFF1FE752FE4F8591BE
:1008000094910895229A2A9A269A2E9808958823D8
:1008100019F0813019F008952A9808952E9A0895B4
:10082000882319F0813019F008952A9A08952E9896
:10083000089580913E0108950895CF93DF9300D0ED
:100840001F92CDB7DEB72091D101243021F523E0EE
:1008500029839B838A8382E08093E9008FEF9091C4
:10086000E800815095FD06C095ED9A95F1F70000DE
:100870008111F5CF8091E80085FF0DC040E050E088
:1008800063E070E0CE0101960E945C068091E80072
:100890008E778093E8000F900F900F90DF91CF91AB
:1008A0000895CF93DF9300D01F92CDB7DEB79C01A0
:1008B0008091D101843019F592E099833B832A839A
:1008C0009093E9008FEF9091E800815095FD06C06C
:1008D00095ED9A95F1F700008111F5CF8091E80030
:1008E00085FF0DC040E050E063E070E0CE0101966E
:1008F0000E945C068091E8008E778093E8000F905C
:100900000F900F90DF91CF910895CF93DF932091B7
:10091000D101243009F044C0EC0180910C018823FE
:10092000C1F083E08093E9008FEF9091E80081505F
:1009300095FD06C095E19A95F1F700008111F5CF7C
:100940008091E80085FF2CC040E050E060E170E05D
:1009500017C081E08093E9008FEF9091E80081500B
:1009600095FD06C095ED9A95F1F700008111F5CF40
:100970008091E80085FF14C040E050E068E070E03E
:10098000CE010E945C068091E8008E778093E8009B
:1009900080E1FE01AEE2B1E001900D928A95E1F7AF
:1009A000DF91CF9108958091D001811109C00E94FB
:1009B000F1070E944E088091E20084608093E2007B
:1009C00008951092D001089508950C9413020C9488
:1009D000C218089542E061EC81E00E946B0742E09A
:1009E00061EC82E00E946B0742E161EC83E00C94D1
:1009F0006B078091D301833009F455C030F4813006
:100A000071F0823009F495C008958A3009F481C0EC
:100A10008B3009F460C0893009F0A3C020C08091F8
:100A2000D201813A09F09DC08091E800877F8093D0
:100A3000E8008091D6019091D701892B21F460E1E3
:100A40008EE291E003C060E080E090E070E00E9400
:100A5000A7068091E8008B778093E8000895809145
:100A6000D201813209F07DC08091D6019091D701E9
:100A7000009719F0029709F074C08091E800877F11
:100A80008093E8008091E80082FD05C08091D1014B
:100A90008111F8CF66C08091F10080933E01809172
:100AA000E8008B775AC08091D201813A09F059C091
:100AB0008091D6019091D701892B09F052C0809185
:100AC000E800877F8093E8008091E80080FFFCCFFA
:100AD00080910B013DC08091D201813209F041C06B
:100AE0008091D6019091D701892BD9F58091E800AA
:100AF000877F8093E8000E94A0079091D40181E055
:100B0000911101C080E080930B0180930C010C9443
:100B10007D108091D201813221F58091E800877F9C
:100B20008093E8000E94A0078091D50180933F0147
:100B300008958091D201813AA1F48091E800877FE5
:100B40008093E8008091E80080FFFCCF80913F0116
:100B50008093F1008091E8008E778093E8000C94F8
:100B6000A007089584B7877F84BF88E10FB6F89403
:100B700080936000109260000FBE90E080E80FB696
:100B8000F89480936100909361000FBE0E94F1077A
:100B90000E944E088091E20084608093E200789485
:100BA0008091D1018430E1F70E94200B81E091E037
:100BB0000E94D30A8091D101853069F40E94851882
:100BC0008091CF018823B1F30E94AD18882391F35F
:100BD0000E944606EFCF0E94300BECCF292F33271F
:100BE00023303105C9F064F42130310581F0223021
:100BF000310509F043C084E590E023E032E042C0D3
:100C000021323105F1F02232310541F137C082E164
:100C100090E027E532E036C099278130910541F018
:100C20008230910541F0892B49F5EFEFF1E005C0E5
:100C3000EBEEF1E002C0EDEDF1E0849190E09F0178
:100C400021C06330D8F4E62FF0E0EE0FFF1FE85E1E
:100C5000FE4F2081318189E090E014C0633070F450
:100C600070E0FB01EE0FFF1FEE5EFE4F2081318131
:100C7000FB01E15FFE4F808190E004C080E090E0E6
:100C800020E030E0FA0131832083089580E189BDBE
:100C900082E189BD09B400FEFDCF8091D8008F7D2F
:100CA0008093D8008091E00082608093E000809182
:100CB000E00081FDFCCF0895CF92DF92EF92FF928A
:100CC0000F931F93CF93DF93EC018B016A010E9476
:100CD000BF07811133C0C114D10439F0F6018081FE
:100CE0009181081B190BC80FD91FE12CF12C01159C
:100CF000110519F18091E80085FD16C08091E8008A
:100D00008E778093E800C114D10449F0F601808108
:100D10009181E80EF91EF182E08285E00FC00E9409
:100D2000BF07882321F30AC089918093F100015005
:100D30001109FFEFEF1AFF0ADACF80E0DF91CF91C0
:100D40001F910F91FF90EF90DF90CF900895209129
:100D5000D8013091D9012617370748F06115710580
:100D600039F42091E8002E772093E80001C0B90102
:100D700040E061157105A9F12091D101222309F408
:100D800043C0253009F442C02091E80023FD40C053
:100D90002091E80022FD32C02091E80020FFE9CF39
:100DA0004091F3002091F20030E0342BFC01CF01A0
:100DB0006115710559F02830310540F48191809317
:100DC000F100615071092F5F3F4FF1CF41E02830B2
:100DD000310509F040E02091E8002E772093E800EB
:100DE000C8CF4111C9CF0AC08091D101882361F0D9
:100DF000853061F08091E80083FD0AC08091E800B1
:100E000082FFF2CF80E0089582E0089583E00895A4
:100E100081E008952091D8013091D9012617370734
:100E200048F06115710539F42091E8002E77209380
:100E3000E80001C0B901FC0120E06115710591F1E4
:100E40008091D101882309F440C0853009F43FC066
:100E50008091E80083FD3DC08091E80082FD2FC0B5
:100E60008091E80080FFE9CF2091F3008091F200AB
:100E700090E0922B6115710559F08830910540F48E
:100E800024912093F1003196615071090196F2CFBF
:100E900021E0089709F020E08091E8008E778093A8
:100EA000E800CBCF2111CCCF0AC08091D10188239B
:100EB00061F0853061F08091E80083FD0AC0809187
:100EC000E80082FFF2CF80E0089582E0089583E099
:100ED000089581E00895982F973058F59093E90090
:100EE000981739F07091EC002091ED005091F000CE
:100EF00003C0242F762F50E021FF19C03091EB0062
:100F00003E7F3093EB003091ED003D7F3093ED005C
:100F10003091EB0031603093EB007093EC00209344
:100F2000ED005093F0002091EE0027FF07C09F5F77
:100F3000D3CF8F708093E90081E0089580E0089519
:100F40008091D20187FF11C08091E80082FD05C029
:100F50008091D1018111F8CF11C08091E8008B7789
:100F60000BC08091D101882349F08091E80080FF77
:100F7000F8CF8091E8008E778093E8000895209163
:100F8000E4003091E50095E64091EC00842F8170FB
:100F900040FF22C08091E80080FD1CC08091D101FB
:100FA000882391F0853091F08091EB0085FD10C091
:100FB0004091E4005091E5004217530729F39A014C
:100FC000915011F784E0089582E0089583E0089538
:100FD00081E0089580E008954091E80042FFDECF6F
:100FE00008950E945F080E946708E0EEF0E08081AB
:100FF00081608083E8EDF0E080818F77808319BC89
:10100000A7EDB0E08C918E7F8C9380818F7E808362
:101010001092D00108950F931F93CF93DF930E94F6
:101020005F080E946708C8EDD0E088818F778883C9
:1010300088818068888388818F7D888319BC10921D
:10104000D1011092CD011092CF011092CE0100EE8D
:1010500010E0F80180818B7F8083888181608883A4
:1010600042E060E080E00E946B07E1EEF0E080810A
:101070008E7F8083E2EEF0E08081816080838081DA
:1010800088608083F80180818E7F80838881806181
:101090008883DF91CF911F910F910895E8EDF0E0E3
:1010A00080818F7E8083E7EDF0E0808181608083A6
:1010B00084E082BF81E08093D0010C940B08E8EDBE
:1010C000F0E080818E7F80831092E200089510927C
:1010D000DA001092E10008951F920F920FB60F925E
:1010E00011242F933F934F935F936F937F938F932D
:1010F0009F93AF93BF93EF93FF938091E10082FFA3
:101100000BC08091E20082FF07C08091E1008B7FDD
:101110008093E1000E94E9048091DA0080FF1FC003
:101120008091D80080FF1BC08091DA008E7F809371
:10113000DA008091D90080FF0DC080E189BD82E195
:1011400089BD09B400FEFDCF81E08093D1010E94EA
:10115000D30405C019BC1092D1010E94E104809112
:10116000E10080FF19C08091E20080FF15C08091EE
:10117000E2008E7F8093E2008091E20080618093A4
:10118000E2008091D80080628093D80019BC85E08D
:101190008093D1010E94E5048091E10084FF30C07A
:1011A0008091E20084FF2CC080E189BD82E189BD8D
:1011B00009B400FEFDCF8091D8008F7D8093D800C8
:1011C0008091E1008F7E8093E1008091E2008F7E2C
:1011D0008093E2008091E20081608093E200809140
:1011E000CD01882311F084E007C08091E30087FDE2
:1011F00002C081E001C083E08093D1010E94E70436
:101200008091E10083FF29C08091E20083FF25C027
:101210008091E100877F8093E10082E08093D1019B
:101220001092CD018091E1008E7F8093E10080914A
:10123000E2008E7F8093E2008091E20080618093E3
:10124000E20042E060E080E00E946B078091F000E5
:1012500088608093F0000E94E404FF91EF91BF91B9
:10126000AF919F918F917F916F915F914F913F913E
:101270002F910F900FBE0F901F9018951F920F92F5
:101280000FB60F9211242F933F934F935F936F9359
:101290007F938F939F93AF93BF93CF93DF93EF93FE
:1012A000FF93C091E900CF708091EC00D82FD170EE
:1012B00080FDD0E81092E9008091F000877F809354
:1012C000F00078940E9482091092E9008091F00069
:1012D00088608093F000CD2BCF70C093E900FF9120
:1012E000EF91DF91CF91BF91AF919F918F917F91BE
:1012F0006F915F914F913F912F910F900FBE0F9083
:101300001F9018951F93CF93DF93CDB7DEB7AA97A1
:101310000FB6F894DEBF0FBECDBFE2EDF1E088E07E
:101320008E0F9091F10091938E13FBCF0E94F904E0
:101330008091E80083FF1FC18091D2019091D30179
:10134000492F50E04A30510508F015C1FA01EA5A18
:10135000FF4F0C945E21803881F0823809F00BC178
:101360008091D6018F708093E9008091EB0085FB1E
:10137000882780F91092E90006C08091CE019091F3
:10138000CF01911182609091E800977F9093E800DF
:101390008093F1001092F100C8C0282F2D7F09F032
:1013A000EAC0882319F0823061F0E5C08091D40151
:1013B000813009F0E0C0933009F080E08093CF01E4
:1013C0002BC08091D401811127C08091D6018F70EC
:1013D00009F4D1C08093E9002091EB0020FF1CC0EC
:1013E000933021F48091EB00806214C09091EB0067
:1013F00090619093EB0021E030E0A90102C0440F1E
:10140000551F8A95E2F74093EA001092EA00809116
:10141000EB0088608093EB001092E9008091E80077
:10142000877F86C08111A7C01091D4011F7780915A
:10143000E3008078812B8093E3008091E800877F30
:101440008093E8000E94A0078091E80080FFFCCF15
:101450008091E30080688093E300111102C082E074
:1014600001C083E08093D10186C08058823008F0AB
:1014700082C08091D4019091D5018C3D53E09507B5
:1014800079F583E08A838AE289834FB7F894DE0195
:10149000139620E03EE051E2E32FF0E05093570036
:1014A000E49120FF03C0E295EF703F5FEF708E2F55
:1014B00090E0EA3010F0C79601C0C0968D939D93DE
:1014C0002F5F243149F74FBF8091E800877F8093D9
:1014D000E8006AE270E0CE0101960E94A70614C0FF
:1014E000AE014F5F5F4F6091D6010E94EE05BC01D7
:1014F000892B09F440C09091E800977F9093E80011
:1015000089819A810E940A078091E8008B778093F5
:10151000E80031C0803879F58091E800877F8093BA
:10152000E8008091CD018093F1008091E8008E77F2
:101530008093E8000E94A0071EC081111CC09091FA
:10154000D4019230C0F48091E800877F8093E80056
:101550009093CD010E94A0078091CD01811106C01A
:101560008091E30087FD02C081E001C084E08093A8
:10157000D1010E94EA048091E80083FF0AC08091B3
:10158000E800877F8093E8008091EB008062809381
:10159000EB00AA960FB6F894DEBF0FBECDBFDF9169
:1015A000CF911F9108959093450180934401089530
:1015B00080914401909145010895E0914401F0919A
:1015C0004501309721F00190F081E02D099480E0F1
:1015D0000895E0914401F0914501309721F0028097
:1015E000F381E02D09940895209142013091430147
:1015F0008217930771F09093430180934201E09129
:101600004401F0914501309721F00680F781E02DEB
:101610000994089520914001309141018217930768
:1016200071F09093410180934001E0914401F09169
:101630004501309721F00084F185E02D099408954B
:101640000E94EF180E943F020E9494190E940020FD
:101650000E94C11E0E941C1C0E94D61D0C94432196
:101660004F925F927F928F929F92AF92BF92CF9252
:10167000DF92EF92FF920F931F93CF93DF93CDB73B
:10168000DEB72A970FB6F894DEBF0FBECDBF0E941B
:101690007A0297E4C92E91E0D92E00E010E0AA2446
:1016A000A394B12C702E802F0E9475034C01F6017B
:1016B000419051906F014826592641145104B1F4CC
:1016C0000F5F1F4F0430110569F78FEF89838A83FD
:1016D0001B820E94F8188160782F9D838C8349813A
:1016E0005A816B818D810E94C6103AC08091A501FC
:1016F00081FD0E947E0320E030E07501022E02C0D1
:10170000EE0CFF1C0A94E2F7C70184219521892B76
:1017100009F12E837F828E209F2091E0892809F491
:1017200090E098870E94F8188160782F9A878987BF
:101730004E815F8168858A850E94C610000F111F47
:10174000F801E95BFE4F80819181E826F926F1825C
:10175000E08206C02F5F3F4F2C30310571F6B0CFCD
:10176000109146010E94DD0A1817D9F00E94DD0A87
:10177000809346012A960FB6F894DEBF0FBECDBF08
:10178000DF91CF911F910F91FF90EF90DF90CF905D
:10179000BF90AF909F908F907F905F904F900C94F0
:1017A000231F2A960FB6F894DEBF0FBECDBFDF9180
:1017B000CF911F910F91FF90EF90DF90CF90BF904E
:1017C000AF909F908F907F905F904F900895CF93B0
:1017D000882309F4C2C0C82F823859F40E94DD0A58
:1017E00081FDBBC089E30E94B5150E943D1789E3C6
:1017F0000CC0833879F40E94DD0A80FDAEC083E519
:101800000E94B5150E943D1783E50E947A16CF917C
:101810000C943D17843859F40E94DD0A82FD9DC066
:1018200087E40E94B5150E943D1787E4EECF8CEF48
:101830008C0F813A48F48C2F0E94DA1B81118DC0E5
:101840008C2F0E94B515E3CF80E28C0F883048F4CE
:10185000C77081E001C0880FCA95EAF70E940F1790
:10186000D6CF8BE58C0F833078F4C53A29F0C63A91
:1018700031F083E890E005C081E890E002C082E8A2
:1018800090E0CF910C94F40A88E58C0F833108F036
:1018900064C0C83A39F1C93A41F1CA3A49F1CB3A80
:1018A00051F1CC3A59F1CD3A61F1C03B69F1CE3AF0
:1018B00071F1CF3A79F1C13B81F1C23B89F1C33B70
:1018C00091F1C43B99F1C53BA1F1C63BA9F1C73BDE
:1018D000B1F1C83BB9F1C93BC1F1CA3BC9F180E0E4
:1018E00090E038C082EE90E035C089EE90E032C0E2
:1018F0008AEE90E02FC085EB90E02CC086EB90E064
:1019000029C087EB90E026C08CEC90E023C08DECE2
:1019100090E020C083E891E01DC08AE891E01AC001
:1019200082E991E017C084E991E014C081E292E07D
:1019300011C083E292E00EC084E292E00BC085E227
:1019400092E008C086E292E005C087E292E002C021
:101950008AE292E0CF910C940A0BCF9108958823EC
:1019600009F44BC0823859F40E94DD0A81FF45C05A
:1019700089E30E94B5150E943D1789E30CC08338A6
:1019800071F40E94DD0A80FF38C083E50E94B5151E
:101990000E943D1783E50E947A160C943D17843807
:1019A00059F40E94DD0A82FF28C087E40E94B51521
:1019B0000E943D1787E4EFCF9CEF980F913A58F3C0
:1019C00090E2980F983050F4877091E001C0990F21
:1019D0008A95EAF7892F0E941517DFCF9BE5980FAC
:1019E000933020F480E090E00C94F40A885A83311C
:1019F00020F480E090E00C940A0B0895882321F0F5
:101A00000E940F170C943D170895882321F00E941F
:101A100015170C943D170895CF92DF92EF92FF9225
:101A20000F931F93CF93DF93CDB7DEB727970FB6F2
:101A3000F894DEBF0FBECDBF25E0FC01DE0111969C
:101A400001900D922A95E1F7FC01408131810281DC
:101A5000258122952F7063817481672B09F430C32F
:101A60003F3F19F44F3F09F42BC37C0149833A836C
:101A700089819A812F830E947415182F9E830E945A
:101A800073150E9483149E81E92FE295EF70F0E0B8
:101A9000E05AFF4F2F810C945E21892F807F9F7029
:101AA000F92E882319F0F29480EFF822002349F0F0
:101AB000FF2009F443C28F2D0E941F170E943D177B
:101AC0003DC2812F0E94AF0CFF2009F4F9C28F2D77
:101AD0000E94251727960FB6F894DEBF0FBECDBF24
:101AE000DF91CF911F910F91FF90EF90DF90CF90FA
:101AF0000C943D17892F807F9F70803211F4892FBD
:101B000003C0892F8295807F112319F0113009F1CC
:101B10002AC00023A1F0222381F1213071F52796FC
:101B20000FB6F894DEBF0FBECDBFDF91CF911F91EE
:101B30000F91FF90EF90DF90CF900C942F172223FE
:101B400019F0213009F4BCC28E830E9432178E81B5
:101B500079C1002321F0263008F0B2C20EC0253032
:101B600008F0AEC26FC10023C1F0222331F0F701AB
:101B7000958190FFE3C19F70958327960FB6F894E7
:101B8000DEBF0FBECDBFDF91CF911F910F91FF90B0
:101B9000EF90DF90CF900C94FE0C222309F452C1F9
:101BA000E1C1292F26952695237030E021153105B6
:101BB00021F021303105C1F083C2002319F0812FBB
:101BC000937002C080E090E027960FB6F894DEBFD5
:101BD0000FBECDBFDF91CF911F910F91FF90EF907E
:101BE000DF90CF900C94F40A002319F0812F9370AA
:101BF00002C080E090E027960FB6F894DEBF0FBEDB
:101C0000CDBFDF91CF911F910F91FF90EF90DF90AB
:101C1000CF900C940A0B892F837009F079C00111C1
:101C20004FC2812F829586958770880F880F212F4C
:101C30002F70C22ED12CE12CF12C082E04C0CC0C1C
:101C4000DD1CEE1CFF1C0A94D2F714FF12C04FE0FB
:101C500050E060E070E004C0440F551F661F771F1E
:101C60008A95D2F78A019B010095109520953095B1
:101C700003C000E010E09801969596959370492F67
:101C800050E0C901B80142305105D1F0433051054F
:101C900059F16C297D298E299F294130510541F147
:101CA00027960FB6F894DEBF0FBECDBFDF91CF9160
:101CB0001F910F91FF90EF90DF90CF900C949814AC
:101CC0006C297D298E299F2927960FB6F894DEBFAF
:101CD0000FBECDBFDF91CF911F910F91FF90EF907D
:101CE000DF90CF900C94AA140E949814C701B601FB
:101CF00027960FB6F894DEBF0FBECDBFDF91CF9110
:101D00001F910F91FF90EF90DF90CF900C9486146D
:101D1000002319F0892F817001C08695882309F46A
:101D2000CFC1812F829586958770880F880F212FCC
:101D30002F70C22ED12CE12CF12C082E04C0CC0C1B
:101D4000DD1CEE1CFF1C0A94D2F714FF12C04FE0FA
:101D500050E060E070E004C0440F551F661F771F1D
:101D60008A95D2F78A019B010095109520953095B0
:101D700003C000E010E09801969596959370492F66
:101D800050E0C901B80142305105D1F0433051054E
:101D900059F16C297D298E299F294130510541F146
:101DA00027960FB6F894DEBF0FBECDBFDF91CF915F
:101DB0001F910F91FF90EF90DF90CF900C944F15F3
:101DC0006C297D298E299F2927960FB6F894DEBFAE
:101DD0000FBECDBFDF91CF911F910F91FF90EF907C
:101DE000DF90CF900C9461150E944F15C701B6018A
:101DF00027960FB6F894DEBF0FBECDBFDF91CF910F
:101E00001F910F91FF90EF90DF90CF900C943D15B4
:101E1000103F41F118F4103E48F48BC0123F09F412
:101E200050C0D8F1133F09F460C083C01F70892FE0
:101E30008F71002321F00E94D614812F9ECE0E9424
:101E4000F714812F27960FB6F894DEBF0FBECDBFD3
:101E5000DF91CF911F910F91FF90EF90DF90CF9086
:101E60000C94050D0023A9F0253008F029C1892F15
:101E70008F7127960FB6F894DEBF0FBECDBFDF91EE
:101E8000CF911F910F91FF90EF90DF90CF900C9426
:101E90001C15263008F014C1EACF0023A1F0892FC9
:101EA0008F7127960FB6F894DEBF0FBECDBFDF91BE
:101EB000CF911F910F91FF90EF90DF90CF900C94F6
:101EC000D614002361F3892F8F7127960FB6F894EB
:101ED000DEBF0FBECDBFDF91CF911F910F91FF905D
:101EE000EF90DF90CF900C94F714002391F0892F9E
:101EF0008F7127960FB6F894DEBF0FBECDBFDF916E
:101F0000CF911F910F91FF90EF90DF90CF900C94A5
:101F1000C11427960FB6F894DEBF0FBECDBFDF9178
:101F2000CF911F910F91FF90EF90DF90CF900C9485
:101F3000BC140023A1F0222309F4B1CF812F2796EE
:101F40000FB6F894DEBF0FBECDBFDF91CF911F91CA
:101F50000F91FF90EF90DF90CF900C94E70B22232E
:101F600009F4B1CF812F27960FB6F894DEBF0FBECC
:101F7000CDBFDF91CF911F910F91FF90EF90DF9038
:101F8000CF900C94AF0C492F4F70612FC7010E9466
:101F90001A0227960FB6F894DEBF0FBECDBFDF91B1
:101FA000CF911F910F91FF90EF90DF90CF900C9405
:101FB000F013011185C0112341F0892F8F708430F7
:101FC00021F0907F212F2F70922B9F70492F50E08E
:101FD0004230510509F440C0BCF44115510561F18E
:101FE0004130510509F06CC027960FB6F894DEBF5A
:101FF0000FBECDBFDF91CF911F910F91FF90EF905A
:10200000DF90CF900C94001E43305105A9F144306D
:10201000510509F055C0812F27960FB6F894DEBF01
:102020000FBECDBFDF91CF911F910F91FF90EF9029
:10203000DF90CF900C945B1E27960FB6F894DEBF0E
:102040000FBECDBFDF91CF911F910F91FF90EF9009
:10205000DF90CF900C94E71D27960FB6F894DEBF63
:102060000FBECDBFDF91CF911F910F91FF90EF90E9
:10207000DF90CF900C94191E27960FB6F894DEBF10
:102080000FBECDBFDF91CF911F910F91FF90EF90C9
:10209000DF90CF900C94381E492F4F70612FC701ED
:1020A00027960FB6F894DEBF0FBECDBFDF91CF915C
:1020B0001F910F91FF90EF90DF90CF900C948418B8
:1020C00027960FB6F894DEBF0FBECDBFDF91CF913C
:1020D0001F910F91FF90EF90DF90CF9008950E9495
:1020E0002C170E9401170E943D1780E090E00E948B
:1020F000F40A80E090E00C940A0B0E941C170C94E8
:102100006F100E947415292F22952F7030E02C300B
:1021100031054CF42A3031056CF42250310922305B
:10212000310588F407C02C30310549F02F303105D6
:1021300031F009C0803E48F0803F29F406C093FB8F
:10214000882780F9089580E0089581E00895CF936D
:10215000DF9300D000D01F92CDB7DEB70F900F9065
:102160000F900F900F90DF91CF910895CF93DF9351
:1021700000D000D000D0CDB7DEB726960FB6F894C9
:10218000DEBF0FBECDBFDF91CF910895CF93DF9318
:10219000CDB7DEB72B970FB6F894DEBF0FBECDBF1D
:1021A0004F83588769877A878B87DE01119686E08F
:1021B000FD0111928A95E9F785E0FE0137960190BD
:1021C0000D928A95E1F74F81588569857A858B85CF
:1021D0000E94C00349815A816B817C818D819E81DF
:1021E0000E944C132B960FB6F894DEBF0FBECDBFE6
:1021F000DF91CF9108951F93CF93DF93C0914F014B
:1022000016E080915001C81799F0D0E01C9FF001B2
:102210001D9FF00D1124EF5AFE4F408151816281C4
:102220007381848195810E94B6102196C770E9CF91
:10223000DF91CF911F9108954091810150918201CA
:102240006091830170918401809185019091860154
:102250000C94B6108091860182958F7009F054C05D
:1022600080918301882309F44FC080914F01A09190
:1022700050016091810170918201409184015091DF
:102280008501B6E08A1709F43FC090E04115510579
:10229000C1F17F3F11F46F3FA1F1B89FF001B99FE9
:1022A000F00D1124EF5AFE4F218172132AC02081B4
:1022B000621327C02281211124C023813481241775
:1022C000350710F421503109241B350B283C31050A
:1022D000C0F4209186012F7020612093860126E0B2
:1022E000289FF001299FF00D1124EA5AFE4F8081AA
:1022F0008F708061808381E891E00E940C0D0C94C6
:10230000FB1001968770BECF0895CF92DF92EF92B7
:10231000FF920F931F93CF93DF93CDB7DEB76297F2
:102320000FB6F894DEBF0FBECDBF8C0185E0F8017B
:10233000DE011D9601900D928A95E1F7D8014C912E
:1023400011965C91119712966C9112971396CD90FD
:10235000DC90149730918101709182018091840109
:1023600090918501009709F46BC17F3F19F43F3FBD
:1023700009F466C1E0908301EE2009F4C0C0209109
:102380008601C816D90628F0F601E81BF90BCF0123
:1023900004C0809590958C0D9D1DFF24F394883C7E
:1023A000910578F0F12C207F09F0C6C07C2DD98AE8
:1023B000C88A89890E94A71081E891E00E940C0DCB
:1023C000B1C0822F807F09F046C0751314C034134A
:1023D00012C0611110C02F702061209386010E94ED
:1023E0001C1181E891E00E940C0D80918601D801BA
:1023F00015968C932EC0CD2819F15F3F11F44F3FF5
:10240000F9F0F62E61111CC080914F01209150010E
:1024100036E0821709F45AC090E0389FF001399FE6
:10242000F00D1124EF5AFE4F7181571306C07081D1
:10243000471303C07281711103C001968770E9CF01
:10244000F62E662309F418C180918601816080937D
:102450008601F12C11C1751308C0341306C0611137
:1024600004C080918601D801C3C04D875E878D85E9
:102470009E856A8B0E9481106A898823E1F1662318
:10248000D1F120918601822F82958F7090E0029782
:1024900074F0809181019091820198878F831986D1
:1024A000DB86CA862C87CE0107960E940C0D86E03B
:1024B000F801A1E8B1E001900D928A95E1F70E9440
:1024C0002A110E941C11FF24F394D6C04D875E8709
:1024D0008D859E850E947415292F22952F7030E0DE
:1024E000223031050CF0BCC09F7009F0B6C0805E90
:1024F000883008F4C1C0C8010E940C0DE4CFC81692
:10250000D90608F453C0F601E81BF90BCF01883C4B
:10251000910508F450C0F12C7C2DD98AC88A89898C
:102520000E94A710E1E8F1E086E0DF011D928A95A4
:10253000E9F70E941C11A0C0751314C0341312C017
:10254000611110C080918601F8018583C8010E9445
:102550000C0D86E0E1E8F1E0DF011D928A95E9F7D4
:10256000FE2C8AC04D875E878D859E856A8B0E9472
:1025700081106A89882309F4BECF662309F4BBCF92
:1025800020918601822F82958F7090E002970CF443
:102590008ECF80918101909182019A8389831B82E1
:1025A000DD82CC822E83CE0101967FCF80959095DF
:1025B0008C0D9D1DACCFF62E662309F49CCF7513B0
:1025C0002EC034132CC02091860120FD1FC0822F05
:1025D00082958F70D9F0D80115962C9315978F306E
:1025E00049F08F5F982F9295907F822F8F70892B63
:1025F00015968C93C8010E940C0D86E0F801A1E8A5
:10260000B1E001900D928A95E1F793CF86E0F80151
:10261000A1E8B1E001900D928A95E1F72DC04D87B8
:102620005E878D859E850E948110811140CF8091AB
:102630008601816080938601C8010E940C0D1CC038
:10264000662309F458CF4D875E878D859E850E944D
:102650008110882309F44FCF2ACF811148CF0CC0B5
:10266000243031050CF047CF9F7009F440CFF801BA
:102670009581907F09F03BCF8F2D62960FB6F8942D
:10268000DEBF0FBECDBFDF91CF911F910F91FF90A5
:10269000EF90DF90CF9008951F93CF93DF93CDB746
:1026A000DEB72C970FB6F894DEBF0FBECDBF4F83B9
:1026B000588769877A878B879C87CE0107960E9407
:1026C0008511882369F08F8198852A853B85232B86
:1026D000F1F19F3F09F063C08F3F09F060C037C040
:1026E00086E0FE013796DE01119601900D928A95E3
:1026F000E1F76F817885EA85FB85309741F17F3F6F
:1027000011F46F3F21F12091500130E0C901019691
:102710008770992740914F0150E08417950709F47D
:1027200047C069837A83FD83EC8396E0929FD00152
:10273000939FB00D1124AF5ABE4FFE013196019008
:102740000D929A95E1F7809350010E94FB1016E0DC
:1027500080914F01909150018917C1F1189FC001DC
:1027600011248F5A9E4F0E948511882379F1E091A0
:102770004F011E9FF0011124EF5AFE4F40815181FD
:1027800062817381848195810E94B61080914F018E
:1027900090E001968770992780934F01D9CF4F81A0
:1027A000588569857A858B859C850E94B610CFCF28
:1027B0000E947D101092500110924F01E1E8F1E06B
:1027C00086E0DF011D928A95E9F7C1CF2C960FB6FE
:1027D000F894DEBF0FBECDBFDF91CF911F9108955A
:1027E000EF92FF920F931F93CF93DF938C01892B6E
:1027F00009F46AC0F12CEE24E394E8012196F80173
:102800008491843740F4843008F04FC0813081F0E7
:10281000823019F159C0853709F442C098F19CE71C
:10282000980F903708F050C08F770E94AF0C3FC0D0
:102830000E5F1F4FFE01C49180E28C0F883048F478
:10284000C7708E2D01C0880FCA95EAF70E941F1726
:102850002FC08C2F0E94E70B2BC00E5F1F4FFE0175
:10286000C49180E28C0F883048F4C7708E2D01C06F
:10287000880FCA95EAF70E9425171AC08C2F0E946C
:10288000AF0C16C00E5F1F4FFE01C491CC2381F028
:102890008FE99FE00197F1F700C00000C150F6CF2B
:1028A0000E5F1F4FFE01F49003C00E94E70B8E01E4
:1028B0008F2D882309F4A1CFEFE9FFE03197F1F7DD
:1028C00000C000008150F5CFDF91CF911F910F9193
:1028D000FF90EF90089560938B0170938C0180932B
:1028E0008D0190938E010E94591F0C946F1060937C
:1028F0008701709388018093890190938A010E94D7
:102900009B1F0C946F1008950C946B140F931F93DE
:1029100000918B0110918C0120918D0130918E01DD
:10292000602B712B822B932B1F910F910C946B14A6
:102930000F931F9300918B0110918C0120918D01B9
:1029400030918E0160237123822393231F910F9175
:102950000C946B140F931F9300918B0110918C01B9
:1029600020918D0130918E01602771278227932756
:102970001F910F910C946B1460E070E0CB010C94EC
:1029800077140F931F9341E050E060E070E08A01FC
:102990009B0104C0000F111F221F331F8A95D2F71D
:1029A000C901B8011F910F910C9477140F931F93D5
:1029B00041E050E060E070E004C0440F551F661F26
:1029C000771F8A95D2F78091870190918801A09115
:1029D0008901B0918A018A019B01082B192B2A2BAE
:1029E0003B2BC901B8011F910F910C9477140F93E1
:1029F0001F9341E050E060E070E004C0440F551FB9
:102A0000661F771F8A95D2F740955095609570950F
:102A10008091870190918801A0918901B0918A01EC
:102A20008A019B01082319232A233B23C901B801EA
:102A30001F910F910C9477140F931F9341E050E076
:102A400060E070E004C0440F551F661F771F8A9531
:102A5000D2F78091870190918801A0918901B0916E
:102A60008A018A019B01082719272A273B27C901C8
:102A7000B8011F910F910C9477140F931F9300913D
:102A80008701109188012091890130918A01602B82
:102A9000712B822B932B1F910F910C9477140F9312
:102AA0001F93009187011091880120918901309135
:102AB0008A0160237123822393231F910F910C9429
:102AC00077140F931F930091870110918801209133
:102AD000890130918A0160277127822793271F91EE
:102AE0000F910C9477140895CF92DF92EF92FF929A
:102AF0000F931F93CF93DF938C01C0908B01D090E5
:102B00008C01E0908D01F0908E01409187015091F1
:102B100088016091890170918A01C42AD52AE62A28
:102B2000F72ACFE1D0E0D701C6010C2E04C0B6953C
:102B3000A795979587950A94D2F780FF07C0B801AB
:102B40008C2F0E9411188130910531F4219758F78C
:102B5000B80180E00E941118DF91CF911F910F9171
:102B6000FF90EF90DF90CF900895CF92DF92EF9299
:102B7000FF920F931F93CF93DF93C82F80910C0187
:102B80008823C1F08C2F8695869586958F3008F026
:102B9000A8C0E0910D01F0910E01E80FF11DC77082
:102BA00081E090E001C0880FCA95EAF79181892BF6
:102BB000818397C0D090A2013091A001E0910D01D6
:102BC000F0910E01332309F477C04091A1018D2DBE
:102BD0002FEF96E0E92EF12C082F112707FD109515
:102BE000BF01600F711FDB0112969C919C1709F4C5
:102BF00078C02F3F19F4911101C0282FC801019608
:102C000006E010E0B7010E944A218413E5CFD22FDD
:102C10004D1152C02F3F71F4842F992787FD909555
:102C20000196B8010E944A218093A201315030934D
:102C3000A00142C0822F992787FD90950196B80187
:102C40000E944A21282FFF24F39406E010E0332746
:102C500027FD30956F01C20ED31ED60112965C91EE
:102C6000552399F08D2F992787FD9095BF01680F07
:102C7000791FDB0112965C93D60112961C92019685
:102C8000B8010E944A21D82F01C0F394C9010196CE
:102C9000B8010E944A21282F8413D9CF242F33272B
:102CA00027FD30952F193109C901069666E070E0BD
:102CB0000E944A218093A1012091A101332727FD81
:102CC0003095E20FF31FC283C901019666E070E000
:102CD0000E944A218093A1018091A0018F5F80937F
:102CE000A001DF91CF911F910F91FF90EF90DF90A6
:102CF000CF900895EF92FF920F931F93CF93C82F19
:102D000080910C018823C9F08C2F86958695869535
:102D10008F3008F070C0E0910D01F0910E01E80FC6
:102D2000F11DC77081E090E001C0880FCA95EAF7F5
:102D300080959181892381835EC02091A201409179
:102D4000A001442309F457C0E0910D01F0910E0158
:102D50000091A101112707FD109586E0E82EF12CC6
:102D600030E0DF01A20FB31FCD01029612965C91F5
:102D70005C1337C0DC011C9241504093A00141110B
:102D800004C01092A2011092A1014091A101842FD0
:102D9000992787FD9095059666E070E00E944A218C
:102DA0002817390741F5C091A20106E010E0842FF1
:102DB000992787FD90950596B8010E944A219C01AC
:102DC000482F0596B8010E944A21DF01A80FB91FBC
:102DD00012968C91811102C02C13E9CF2093A1018E
:102DE0000AC0C9010196B7010E944A21282F801705
:102DF000910709F0B5CFCF911F910F91FF90EF9000
:102E0000089581E090E0E0910D01F0910E01E80F4E
:102E1000F91F1082019680319105A9F708959091CC
:102E2000A401892B8093A401089580959091A40119
:102E300089238093A40108951092A401089590918C
:102E4000A301892B8093A301089580959091A301FC
:102E500089238093A30108951092A301089580937C
:102E60008F01089510928F01089580910C018111B6
:102E700003C08091A00108950895E0910D01F091A3
:102E80000E018091A4018083E0910D01F0910E016B
:102E900090818091A301892B808380918F01882369
:102EA00061F0E0910D01F0910E019081892B8083FA
:102EB0000E943517811110928F0180910D01909120
:102EC0000E010C94E90A8D3B50F4883AE8F4853AF7
:102ED00090F4843070F4813009F45BC007C0803E08
:102EE00028F0883E30F0803F08F050C080E090E04D
:102EF000089590E00895853A09F44EC0863A09F4A1
:102F00004EC083E890E40895883A09F44BC0893AAA
:102F100009F44BC08A3A09F44BC08B3A09F44BC010
:102F20008C3A09F44BC08B3B09F44BC08C3B09F441
:102F30004BC08D3A09F44BC0803B09F44BC08E3A2C
:102F400009F44BC08F3A09F44BC0813B09F44BC0E4
:102F5000823B09F44BC0833B09F44BC0843B09F42A
:102F60004BC0853B09F44BC0863B09F44BC0873B03
:102F700009F44BC0883B09F44BC0893B09F44BC0B2
:102F80008A3B09F44BC080E094E4089590E090659A
:102F9000089581E090E0089581E890E4089582E842
:102FA00090E4089582EE94E4089589EE94E40895FF
:102FB0008AEE94E4089585EB94E4089586EB94E416
:102FC000089583EB94E4089584EB94E4089587EBEB
:102FD00094E408958CEC94E408958DEC94E40895C1
:102FE00083E895E408958AE895E4089582E995E4F4
:102FF000089584E995E4089581E296E4089583E2D2
:1030000096E4089584E296E4089585E296E40895AE
:1030100086E296E4089587E296E408958AE296E4CB
:1030200008950E942602803EA8F4803C00F581337A
:1030300009F45CC038F4893209F452C08A3209F4C8
:103040005BC05FC08933B1F08238A1F0853309F4E9
:1030500041C057C0833E41F128F4803E99F0823E42
:10306000B9F04FC0863E31F1873E71F14AC00E94EF
:103070002A0208959091CC0190FD02C091FF41C0B9
:1030800080EE3FC08091CC0180FFFACF89E339C048
:103090008091CC0182FF0CC08091CC0184FF02C0E2
:1030A00080E02FC083EE2DC08091CC0182FFF4CF51
:1030B00082EE27C08091CC0183FF0AC08091CC01B1
:1030C00084FDEECF87EE1DC08091CC0183FFF6CF4B
:1030D00086EE17C08091CC0185FF06C089E211C041
:1030E0008091CC0185FFFACF85E30BC08091CC01A4
:1030F00086FF06C08AE205C08091CC0186FFFACF28
:1031000081E30E946317089508958091D10184306E
:1031100019F11092A60120E488E190E00FB6F8942E
:10312000A895809360000FBE209360000E94391C18
:1031300083B7817F846083BF83B7816083BF7894C6
:10314000889583B78E7F83BF88E10FB6F89480930C
:103150006000109260000FBE0895CF930E9412028B
:103160000E947A020E941302C0E08C2F0E94750315
:10317000892B29F4CF5FC430C1F780E001C081E022
:10318000CF9108950E947D100C94D61D1F920F922E
:103190000FB60F9211248F939F93AF93BF9380919B
:1031A000A601811113C08091A7019091A801A0915F
:1031B000A901B091AA014196A11DB11D8093A7015B
:1031C0009093A801A093A901B093AA01BF91AF91D8
:1031D0009F918F910F900FBE0F901F90189582E0D6
:1031E00084BD93E095BD9AEF97BD80936E000895DE
:1031F0002FB7F8948091A7019091A801A091A901FF
:10320000B091AA012FBF08951F920F920FB60F928F
:1032100011248F939F93AF93BF938091A7019091B7
:10322000A801A091A901B091AA010196A11DB11D0B
:103230008093A7019093A801A093A901B093AA013C
:10324000BF91AF919F918F910F900FBE0F901F90E4
:1032500018950E94F107F8942FEF87EA91E6215024
:1032600080409040E1F700C0000087E090EBDC0177
:103270008093DB019093DC01A093DD01B093DE012C
:103280002CE088E190E00FB6F894A8958093600058
:103290000FBE20936000FFCFCF92DF92EF92FF929C
:1032A0000F931F93CF93DF93D82FC0E0EE24E394C6
:1032B000F12C8C2F0E9475036C0100E010E0970147
:1032C000002E02C0220F331F0A94E2F72C213D2169
:1032D000232B31F40F5F1F4F0C30110581F709C00C
:1032E000602F7C2F80E00E942602D813F3CF81E06C
:1032F00004C0CF5FC430E9F680E0DF91CF911F9129
:103300000F91FF90EF90DF90CF900895CF93C82F4B
:103310008CE20E944C19882321F08C2FCF910C94C1
:103320004C1980E0CF910895CF930E94ED1A81113E
:1033300002C00E94C81AC5E6C15049F00E947A0234
:103340008FE39CE90197F1F700C00000F5CF89E217
:103350000E94861981111AC18AE20E948619882367
:1033600041F00E94E71A0E94C81A0E94C9200E94D8
:103370002D2085E00E94861981110E9429190E9442
:10338000F81A8093A50187E00E9486198823A9F185
:103390008BE10E948619882351F08091A50181FB61
:1033A000222720F991E0922790FB81F90EC08EE050
:1033B0000E948619882361F08091A50182FB222753
:1033C00020F991E0922790FB82F98093A50115C026
:1033D00080E10E9486199091A501882341F093FB1A
:1033E000222720F981E0822780FB93F904C0892FEE
:1033F000809580FB90F99093A5018091A5010E9492
:10340000FC1A0E940A1B8093CC0180EE0E94861950
:10341000882341F08091CC01982F909590FB80F902
:103420008093CC0189E30E948619882359F080910A
:10343000CC0181FB222720F991E0922790FB81F9B2
:103440008093CC0182EE0E948619882359F08091E6
:10345000CC0182FB222720F991E0922790FB82F990
:103460008093CC0186EE0E948619882359F08091C2
:10347000CC0183FB222720F991E0922790FB83F96E
:103480008093CC0183EE0E948619882359F08091A5
:10349000CC0184FB222720F991E0922790FB84F94C
:1034A0008093CC0185E30E948619882359F080918E
:1034B000CC0185FB222720F991E0922790FB85F92A
:1034C0008093CC0181E30E948619882359F0809172
:1034D000CC0186FB222720F991E0922790FB86F908
:1034E0008093CC0181E10E948619882359F0809154
:1034F000CC0187FB222720F991E0922790FB87F9E6
:103500008093CC018091CC010E940E1B8091CC0154
:1035100087FB882780F980930C0187E20E94861937
:10352000C82F8EE10E9486198111C2608FE10E942E
:1035300086198111C46080E20E9486198111C860D9
:1035400081E20E9486198111C06182E20E9486197F
:103550008111C06283E20E9486198111C06484E2F5
:103560000E948619882311F0C06802C0CC2329F07C
:103570008C2F0E94051B6C2F03C00E94011B682F1B
:1035800070E080E090E0CF910C948414CF91089586
:103590006DEE7EEF80E090E00E94942160E082E09A
:1035A00090E00E94862160E083E090E00E94862106
:1035B00060E084E090E00E94862160E085E090E099
:1035C0000E94862160E086E090E00C9486216FEFF7
:1035D0007FEF80E090E00C94942180E090E00E94E6
:1035E000802121E08D3E9E4F09F020E0822F08953A
:1035F00082E090E00C947821682F82E090E00C94B7
:10360000862183E090E00C947821682F83E090E09D
:103610000C94862184E090E00C947821682F84E05B
:1036200090E00C94862186E090E00C947821682F3D
:1036300086E090E00C9486210F931F93482F50E072
:10364000FA013697E334F10508F0ACC0E059FF4FBA
:103650000C945E210E94F81A0E940A1B0E94131B00
:103660004BC00E94D80A892B59F00E94D80A909327
:10367000AC018093AB010E947D1080E090E004C01B
:103680008091AB019091AC010E94D30A35C080912A
:10369000A501817F8E7F8093A50181E08093AD019C
:1036A00082C00E947D100FEF13ED20E30150104007
:1036B0002040E1F700C000000E9429191DC0909130
:1036C000A501892F817090FF12C0917F9E7F9093FA
:1036D000A50169C08091A50181FB222720F991E015
:1036E000922790FB81F98093A501992329F080917D
:1036F000A50181608093A50181E055C08091A5015D
:1037000082FB222720F991E0922790FB82F9EBCFF0
:103710008091A50183FB222720F991E0922790FB5D
:1037200083F9E1CF0E947D1090910C0181E08927FF
:1037300080930C01E1CF81E890E00E94F40A3FEF12
:1037400081EE94E0315080409040E1F700C00000ED
:1037500080E090E00E94F40A0FEF19E628E10150A2
:1037600010402040E1F700C00000C6CF61E070E0EB
:1037700080E090E012C08D5101C0895341E050E0DB
:1037800060E070E08A019B0104C0000F111F221F3E
:10379000331F8A95D2F7C901B8010E9484140E9490
:1037A0007D10AACF80E01F910F91089580E00895C9
:1037B00080E00895CF93C82F8091AD01882319F040
:1037C000813049F031C0E0910D01F0910E0180810E
:1037D000823261F507C0E0910D01F0910E01808108
:1037E000823261F48C2F0E94D61B811104C08C2F71
:1037F0000E941C1B17C081E090E014C08C2F0E9417
:10380000D81B81110EC0C43149F018F4CB3049F0F7
:103810000FC0C93219F0C83321F00AC01092AD01AF
:1038200007C081E0817006C01092AD0180E002C047
:1038300080E0F8CFCF910895E1E8F0E080818860E2
:1038400080838081816080838FB7F89493E0909328
:10385000890090ED909388008FBF0C94DD1FEFE6F8
:10386000F0E080818260808381E08093C1010C94CC
:10387000F81FEFE6F0E080818D7F80831092C10118
:1038800080E00E94EB1F81E00E94EB1F8091C1014C
:103890000C94F81FEDEBF1E0808381830895E82F0D
:1038A000F0E0E354FE4F2081422F50E08FEF90E094
:1038B000861B9109841795071CF48FEF8083089568
:1038C000620F60830895CF93C82F682F80E00E9415
:1038D0004F1C6C2F81E0CF910C944F1CE82FF0E02F
:1038E000E354FE4F8081861710F410820895861BE2
:1038F00080830895CF93C82F682F80E00E946E1CAC
:103900006C2F81E0CF910C946E1C8091C1010895C1
:103910008091BC0183608093BC0108951092BC012A
:1039200008954091BB0121E030E0662341F001C0E1
:10393000220F8A95EAF7242B2093BB010895B90141
:1039400002C0660F771F8A95E2F7CB01809584232A
:103950008093BB010895CF93C82F682F80E00E9409
:10396000911C6C2F81E0CF910C94911C8093BA0133
:103970000895E8EBF1E08083818308958091B70199
:1039800083608093B70108951092B70108958093E2
:10399000B50108951F920F920FB60F921124EF9266
:1039A000FF920F931F932F933F934F935F936F93C8
:1039B0007F938F939F93AF93BF93CF93DF93EF93B7
:1039C000FF938091B1018F5F8093B1010FEB11E004
:1039D000C0E0D0E0FC2E8091B10181110DC0F80152
:1039E0008081882319F08C2F0E94DE1FFE01E35492
:1039F000FE4F8081F8018083F80181918F019091C1
:103A0000B101981303C08F2D0E94EB1F219719F06D
:103A1000C1E0D0E0DFCF8091B0018F5F803418F437
:103A20008093B001ACC01092B001E090BC01E110F5
:103A300005C09091B70191113BC0A1C08091AF0129
:103A40008F5F8093AF019091BA01981790F7109211
:103A5000AF0108EB11E0C0E0D0E0F12CC7010C2E63
:103A600002C0969587950A94E2F780FF1AC0F80184
:103A70008081882319F08150808313C08091BB011D
:103A800090E00C2E02C0969587950A94E2F761E0CB
:103A900080FF04C08C2F0E946E1C03C08C2F0E94DC
:103AA0004F1C0F5F1F4F219721F2C1E0D0E0D6CF0E
:103AB0008091AE018F5F8093AE012091B5012817F0
:103AC00008F05DC01092AE012091B2013091B601B4
:103AD000A3EBB1E040E050E0C1E0D0E0692F70E03E
:103AE000042E02C0769567950A94E2F760FF3AC00B
:103AF0008C91E82FF0E0E95EFC4F0491BA01635429
:103B00007E4FFB010083622F70E0042E02C0769589
:103B100067950A94E2F760FF19C0811115C0BE01D4
:103B2000042E01C0660F0A94EAF760952623E32F5E
:103B3000F0E0042E02C0F695E7950A94E2F7E0FF64
:103B400011C0962336230EC081500BC08F3741F42D
:103B5000BE01042E01C0660F0A94EAF7262B02C0AC
:103B60008F5F8C9311964130510519F041E050E080
:103B7000B5CF9093B7012093B2013093B601FF9176
:103B8000EF91DF91CF91BF91AF919F918F917F91F5
:103B90006F915F914F913F912F911F910F91FF90E6
:103BA000EF900F900FBE0F901F9018950E94ED1A86
:103BB000811102C00E94C81A0E94131B8093DA016F
:103BC00080FF02C0869501C080E00C947F03809145
:103BD000DA0180FF14C0982F9695292F30E0283005
:103BE000310544F49F5F990F8170892B8093DA012E
:103BF0000E94171B8091DA0186950C947F0308952B
:103C00008091DA0180FF14C0982F9695292F30E01B
:103C10002230310544F09158990F8170892B80939F
:103C2000DA010E94171B8091DA0186950C947F03BC
:103C300008958091DA01982F9095917090FB80F90A
:103C40008093DA01992339F0982F9E7F21F48170B7
:103C500082608093DA018091DA010E94171B8091C3
:103C6000DA0180FF02C0869501C080E00C947F03DA
:103C70009091DA01892F86958F5F8F7791708930C7
:103C800028F4880F892B8093DA0102C09093DA011F
:103C90008091DA018E7F91E009F490E08091DA0161
:103CA00090FB80F98093DA010E94171B8091DA0162
:103CB00086950C947F03880F9091DA019170892B7F
:103CC0008093DA018E7F91E009F490E08091DA012F
:103CD00090FB80F98093DA010E94171B8091DA0132
:103CE00086950C947F03DF92EF92FF920F931F93C0
:103CF000CF93DF930091C7010827611101C0C9F17B
:103D0000C0E0D0E0E62EF82E10E0DC2E0E94851CEC
:103D1000882359F02091C30130E00C2E02C0369563
:103D200027950A94E2F720FD1DC0E11009C0C801E3
:103D30000C2E02C0969587950A94E2F780FF12C078
:103D40002091C2012F2530E00C2E02C03695279518
:103D50000A94E2F78D2D20FF03C00E94070402C0E1
:103D60000E941004219719F0C1E0D0E0CECFF0926C
:103D7000C701DF91CF911F910F91FF90EF90DF90DE
:103D800008950F931F93CF93DF93C0E0D0E001E03D
:103D900010E08C2F0E943D2094FF0BC08091C20147
:103DA00098010C2E01C0220F0A94EAF7282B2093C9
:103DB000C20195FF0BC08091C30198010C2E01C078
:103DC000220F0A94EAF7282B2093C3019F70892FB2
:103DD00090E08230910589F083309105D1F08130F7
:103DE000910511F50C2E01C0880F0A94EAF7909105
:103DF000C501892B8093C50117C02091C401C8015A
:103E00000C2E01C0880F0A94EAF7822B8093C4011C
:103E10000BC02091C601C8010C2E01C0880F0A9466
:103E2000EAF7822B8093C601219719F0C1E0D0E018
:103E3000B0CF0E94020461E080E0DF91CF911F913A
:103E40000F910C94731ECF93DF939091C601992329
:103E500069F1D82FC091C70190FF0FC080E00E9488
:103E60003D202D2F30E002C0359527958A95E2F749
:103E700020FD02C0CE7F01C0C1608091C60181FFDC
:103E80000FC081E00E943D202D2F30E002C035950B
:103E900027958A95E2F720FD02C0CD7F01C0C26060
:103EA00060E08C2FDF91CF910C94731EDF91CF9146
:103EB0000895CF92DF92EF92FF92CF932091C501A8
:103EC000222399F16B017C01C091C70120FF11C031
:103ED00080E00E943D20A701960104C056954795B9
:103EE000379527958A95D2F720FD02C0CE7F01C075
:103EF000C1608091C50181FF0FC081E00E943D201B
:103F000004C0F694E794D794C7948A95D2F7C0FC7E
:103F100002C0CD7F01C0C26060E08C2FCF91FF90C6
:103F2000EF90DF90CF900C94731ECF91FF90EF90A5
:103F3000DF90CF900895CF92DF92EF92FF92CF93D0
:103F40002091C401222399F16B017C01C091C7012A
:103F500020FF11C080E00E943D20A701960104C00F
:103F600056954795379527958A95D2F720FD02C03B
:103F7000CE7F01C0C1608091C40181FF0FC081E08C
:103F80000E943D2004C0F694E794D794C7948A9584
:103F9000D2F7C0FC02C0CD7F01C0C26060E08C2FB0
:103FA000CF91FF90EF90DF90CF900C94731ECF9144
:103FB000FF90EF90DF90CF90089508952091C30176
:103FC00030E0082E02C0369527950A94E2F720FDCE
:103FD0000C94070408952091C30130E0082E02C01C
:103FE000369527950A94E2F720FD0C941004089565
:103FF000811105C061E08091C7010C94731E089582
:1040000088E090E00E9480219093C9018093C801CC
:10401000019661F480E00E94F9039093C9018093B6
:10402000C801BC0188E090E00E9494218AE090E001
:104030000E9480219093CB018093CA01019661F484
:1040400081E00E94F9039093CB018093CA01BC01E7
:104050008AE090E00C949421089580E00E94F90396
:10406000BC0188E090E00E94942181E00E94F90365
:10407000BC018AE090E00C949421E82FF0E0EE0F70
:10408000FF1FE853FE4F808191810895CF92DF9208
:10409000EF92FF920F931F93CF9380E190E00E94E5
:1040A00080218C01C12CD12C2DEEE22E2EEFF22E90
:1040B0000E943B02C82F0E943D02C89FC0011124EC
:1040C0009C0183E0220F331F8A95E1F7205C3F4F6C
:1040D000C216D30680F4C60142960E947821282F8A
:1040E00030E0C0FE02C0322F2227E20EF31E8FEF17
:1040F000C81AD80ADDCF81E00E151F0509F080E04F
:10410000CF911F910F91FF90EF90DF90CF90089586
:1041100090E0880F991F42960C94802190E0880FC0
:10412000991F42960C949421EF92FF920F931F9344
:10413000CF93DF9300D0CDB7DEB7182F4A836983C2
:104140000E943B02082F0E943D02089FC0011124DB
:10415000189F7001199FF00C11240E943D02698183
:104160009701689F200D311D1124C9014A81840FD8
:10417000911D8E5A9F4F0F900F90DF91CF911F91FD
:104180000F91FF90EF900C9478218E5A9F4F0C94D2
:1041900086218F929F92AF92BF92CF92DF92EF9241
:1041A000FF920F931F93CF93DF930E9431026C0114
:1041B0000E942E027C01C114D10409F10E94170251
:1041C0004C01A12CB12C0DEE1EEFA814B90420F463
:1041D000F601C591D49102C0C0E0D0E0BE018A2DA5
:1041E0000E948E200C0F1D1F8FEFA81AB80A82E0C4
:1041F000C80ED11C80E2A816B10439F702C00DEE3A
:104200001EEFE114F10471F10E9414026C01A12C63
:10421000B12C0E943B02C82F0E943D02C89FC001E2
:10422000112423E0880F991F2A95E1F7A816B906F3
:10423000C8F4AC14BD0428F4F701EA0DFB1DC491C9
:1042400001C0C0E06C2FC5010E94C520EC2FF0E03A
:10425000A0FE02C0FE2FEE270E0F1F1F8FEFA81A21
:10426000B80AD7CFB80180E190E0DF91CF911F91DC
:104270000F91FF90EF90DF90CF90BF90AF909F9005
:104280008F900C9494210E944620811102C00C94BE
:10429000C920089597FB072E16F4009407D077FDE8
:1042A00009D00E94642107FC05D03EF490958195C9
:1042B0009F4F0895709561957F4F0895EE0FFF1FF2
:1042C0000590F491E02D0994AA1BBB1B51E107C096
:1042D000AA1FBB1FA617B70710F0A61BB70B881F96
:1042E000991F5A95A9F780959095BC01CD01089525
:1042F000F999FECF92BD81BDF89A992780B50895AE
:10430000A8E1B0E042E050E00C949B21262FF999FF
:10431000FECF1FBA92BD81BD20BD0FB6F894FA9AA8
:10432000F99A0FBE019608950E948621272F0C94BA
:104330008721DC01CB01FC01F999FECF06C0F2BD5B
:10434000E1BDF89A319600B40D9241505040B8F753
:064350000895F894FFCF70
:1043560005190485041C0451041D04010190013F44
:0E4366003639D802A202690215022E02470261
:00000001FF
