:100000000C94E3010C9427020C9427020C94270211
:100010000C9427020C9427020C9427020C942702BC
:100020000C9427020C9427020C9484080C94560913
:100030000C94DE180C9427020C9427020C942702CF
:100040000C9427020C94E21C0C9427020C942702B7
:100050000C9427020C941C190C9427020C94270270
:100060000C9427020C9427020C9427020C9427026C
:100070000C9427020C9427020C9427020C9427025C
:100080000C9427020C9427020C9427020C9427024C
:100090000C9427020C9427020C9427020C9427023C
:1000A0000C9427020C9427020C942702C309E5093B
:1000B000D30AE509D30A2A0A4D0AD30AA20AB50AC5
:1000C000650D650D920D920DE90D78107810781080
:1000D000230E7810200F200FDB0FF10F7810641023
:1000E0005F1B771B421BEA1BEA1B941BEA1BEA1BE4
:1000F000961BEA1BA01BAA1BEA1BEA1BEA1BEA1BB6
:10010000941B941BEA1B941BEA1B821BEA1BEA1B31
:10011000D31BD31BD31BD31BD31BD31BD31BD31B6F
:10012000D31BCE1BEA1BCE1BEA1BEA1BEA1BEA1BF6
:10013000EA1BEA1BEA1BEA1BEA1BEA1BEA1BCE1BB3
:10014000EA1BEA1B941B491BD51BD51BD51BD51BD2
:10015000D51BD51BD51BD51BD51BD51BD51BD51B1F
:10016000B31BEA1B691B016202620162026200F1B9
:10017000A100D100D200D0291E1F20212223242536
:1001800026272D2E2A2B141A0815171C180C1213AB
:100190002F303139041607090A0B0D0E0F333400C6
:1001A00028E1001D1B0619051110363738C0E5E09F
:1001B000E3E200002C00000000E6C0E7E4353A3B33
:1001C0003C3D3E3F4041424344454C010152010108
:1001D00001B2014901464748010150514F01010157
:1001E0000101014A4B000101000165C1C2C3AAA976
:1001F000A84D4E01010101010000010000000001B5
:10020000010101001080FF012300200C0341004D7B
:10021000004A003600300000001203480061006E02
:100220000020004300680065006E00000004030920
:100230000409025400030100A03209040000010374
:10024000010100092111010001223F00070581037E
:1002500008000A090401000103000000092111013E
:1002600000012236000705820308000A0904020083
:1002700001030000000921110100012239000705D6
:1002800083031000011201100100000008EDFE665A
:100290006001000102000105010906A1010507191D
:1002A000E029E71500250195087501810205081967
:1002B00001290595057501910295017503910105C7
:1002C000071900297715002501957875018102C06D
:1002D00005010980A101850216010026B7001A0157
:1002E000002AB700751095018100C0050C0901A115
:1002F000018503160100269C021A01002A9C027542
:100300001095018100C005010906A101050719E04A
:1003100029E71500250195087501810295017508E9
:1003200081010508190129059505750191029501BD
:10033000750391010507190029FF150025FF950692
:1003400075088100C00000000000000000000001EE
:10035000010102020203030404050506060708085A
:10036000090A0B0B0C0D0E0F10111213151617198D
:100370001A1B1D1E2022232527292B2D2F31333513
:10038000383A3D3F4244474A4D505356595C5F62AC
:1003900066696C7074777B7E82868A8E9195999D52
:1003A000A1A5A9ADB0B4B8BCC0C3C7CBCED2D5D877
:1003B000DBDFE2E4E7EAECEFF1F3F5F7F8FAFBFC58
:1003C000FDFEFFFFFF0011241FBECFEFDAE0DEBF0E
:1003D000CDBF04B603FE24C08091E1019091E201FB
:1003E000A091E301B091E4018730904BA740B04B5E
:1003F000B9F41092E1011092E2011092E30110921F
:10040000E40114BE84B7877F84BF88E10FB6F894F7
:1004100080936000109260000FBEE0E0F8E3099561
:1004200011E0A0E0B1E0E4E8F3E402C005900D9231
:10043000AE31B107D9F711E0AEE1B1E001C01D92D4
:10044000A13EB107E1F70E94CA050C94C0210C94AB
:100450000000089508958CE890E0089584E090E00D
:100460000895611104C0FC018281811103C080E004
:1004700090E0089586E691E00895462F672F0C944A
:10048000AC20805C0E94A020089587E791E0089549
:100490008FE691E0089580B38F7080BB81B38F7039
:1004A00081BB55985D98089585E008958EE0089584
:1004B00080E885BF85BF0E944B0287B18F7387B9E3
:1004C00088B1806C88B96E98769A80B38C7F80BB37
:1004D00081B3836081BB8AB18F728AB98BB1806D21
:1004E0008BB984B1847484B985B18B6B85B9E8E22A
:1004F000F1E0AEE1B1E0119211921D921D9281E006
:10050000E233F807C1F70895AF92BF92CF92DF921E
:10051000EF92FF920F931F93CF93DF931F92CDB76C
:10052000DEB7BEE1EB2EB1E0FB2E870140E0DD241B
:10053000D39485E0C82E423071F018F4413041F078
:1005400004C0433059F0443061F0879A8F980BC053
:10055000869A8E9808C0859A8D9805C0849A8C9842
:1005600002C0559A5D9880EA8A95F1F78FB1869519
:100570008D2580FBAA24A0F8B12C789903C022E035
:1005800030E002C020E030E0C9018A299B29669949
:1005900003C024E030E002C020E030E0BC01622B68
:1005A000732B26B1332727FD309520953095C9014F
:1005B0008827990F881F9927A3E0880F991FAA956C
:1005C000E1F7862B972B369903C0A0E1B0E002C07B
:1005D000A0E0B0E08A2B9B2B189903C0A0E2B0E00A
:1005E00002C0A0E0B0E08A2B9B2B4C9903C0E0E452
:1005F000F0E002C0E0E0F0E08E2B9F2B199903C0E1
:1006000020E830E002C020E030E0BC01622B732B18
:1006100023B1332727FD309520953095C9018827D0
:10062000990F881F9927982F8827862B972B1D991C
:1006300003C020E032E002C020E030E0822B932BA8
:100640001C9903C020E034E002C020E030E0BC018F
:10065000622B732B29B1332727FD309520953095D8
:10066000C9018827990F881F9927982F8827990FE4
:10067000990F990F862B972B4E9903C020E030E1FC
:1006800002C020E030E0822B932B1B9903C020E0B6
:1006900030E202C020E030E0822B932BD8012D9174
:1006A0003C9111972817390721F08D939C93C092A4
:1006B000000149830E944B0249814F5F0E5F1F4F2B
:1006C000453009F038CF809100018823C9F081506E
:1006D00080930001882339F0EFE9FFE03197F1F7CB
:1006E00000C000000DC0E8E2F1E0D7018D919D91BE
:1006F0007D0181939193B8E2EB16B1E0FB06A9F777
:1007000081E00F90DF91CF911F910F91FF90EF90BB
:10071000DF90CF90BF90AF900895E82FF0E0EE0FFC
:10072000FF1FE85DFE4F8081918108950895CF936A
:10073000C82F873090F48430E0F4813090F10E942B
:10074000471C0E94A61C0E94DC1CEC2FF0E0ED5F11
:10075000FD4F8491CF910C94621C8730A9F08830B2
:1007600001F50E94471C0E94A01C0E94DC1C81E035
:1007700012C00E94471C0E94A61C0E94D61C86E044
:100780008C1BCF910C94DF1C0E94471C0E94A01C64
:100790000E94DC1C80E00E94C31C83E0CF910C947B
:1007A000CE1C0E94A61C0E94DC1CCF910C94511CF4
:1007B000CF93DF9300D000D01F92CDB7DEB78091EA
:1007C000E00180FF26C0869590E08730910519F002
:1007D000089781F01EC06623E1F080E40E94D11CDE
:1007E00080E20F900F900F900F900F90DF91CF91BC
:1007F0000C94921C662369F080E40E94D11C80E274
:100800000F900F900F900F900F90DF91CF910C945D
:100810007B1C0F900F900F900F900F90DF91CF9156
:100820000895E82FF0E0EE0FFF1FE95FFD4F85917F
:1008300094910895229A2A9A269A2E9808958823A8
:1008400019F0813019F008952A9808952E9A089584
:10085000882319F0813019F008952A9A08952E9866
:1008600008958091420108950895CF93DF9300D0B9
:100870001F92CDB7DEB72091D701243021F523E0B8
:1008800029839B838A8382E08093E9008FEF909194
:10089000E800815095FD06C095ED9A95F1F70000AE
:1008A0008111F5CF8091E80085FF0DC040E050E058
:1008B00063E070E0CE0101960E9474068091E8002A
:1008C0008E778093E8000F900F900F90DF91CF917B
:1008D0000895CF93DF9300D01F92CDB7DEB79C0170
:1008E0008091D701843019F592E099833B832A8364
:1008F0009093E9008FEF9091E800815095FD06C03C
:1009000095ED9A95F1F700008111F5CF8091E800FF
:1009100085FF0DC040E050E063E070E0CE0101963D
:100920000E9474068091E8008E778093E8000F9013
:100930000F900F90DF91CF910895CF93DF93209187
:10094000D701243009F044C0EC0180910C018823C8
:10095000C1F083E08093E9008FEF9091E80081502F
:1009600095FD06C095E19A95F1F700008111F5CF4C
:100970008091E80085FF2CC040E050E060E170E02D
:1009800017C081E08093E9008FEF9091E8008150DB
:1009900095FD06C095ED9A95F1F700008111F5CF10
:1009A0008091E80085FF14C040E050E068E070E00E
:1009B000CE010E9474068091E8008E778093E80053
:1009C00080E1FE01A2E3B1E001900D928A95E1F78A
:1009D000DF91CF9108958091D601811109C00E94C5
:1009E00009080E9466088091E20084608093E2001A
:1009F00008951092D601089508950C942A020C943B
:100A0000DA18089542E061EC81E00E94830742E039
:100A100061EC82E00E94830742E161EC83E00C9488
:100A200083078091D901833009F455C030F48130B7
:100A300071F0823009F495C008958A3009F481C0BC
:100A40008B3009F460C0893009F0A3C020C08091C8
:100A5000D801813A09F09DC08091E800877F80939A
:100A6000E8008091DC019091DD01892B21F460E1A7
:100A700082E391E003C060E080E090E070E00E94DB
:100A8000BF068091E8008B778093E80008958091FD
:100A9000D801813209F07DC08091DC019091DD01A7
:100AA000009719F0029709F074C08091E800877FE1
:100AB0008093E8008091E80082FD05C08091D70115
:100AC0008111F8CF66C08091F1008093420180913E
:100AD000E8008B775AC08091D801813A09F059C05B
:100AE0008091DC019091DD01892B09F052C0809149
:100AF000E800877F8093E8008091E80080FFFCCFCA
:100B000080910B013DC08091D801813209F041C034
:100B10008091DC019091DD01892BD9F58091E8006D
:100B2000877F8093E8000E94B8079091DA0181E006
:100B3000911101C080E080930B0180930C010C9413
:100B400095108091D801813221F58091E800877F4E
:100B50008093E8000E94B8078091DB0180934301F5
:100B600008958091D801813AA1F48091E800877FAF
:100B70008093E8008091E80080FFFCCF80914301E2
:100B80008093F1008091E8008E778093E8000C94C8
:100B9000B807089584B7877F84BF88E10FB6F894BB
:100BA00080936000109260000FBE90E080E80FB666
:100BB000F89480936100909361000FBE0E94090831
:100BC0000E9466088091E20084608093E20078943D
:100BD0008091D7018430E1F70E94380B81E091E0E9
:100BE0000E94EB0A8091D701853069F40E949D181C
:100BF0008091D5018823B1F30E94C518882391F311
:100C00000E945E06EFCF0E94480BECCF292F3327BE
:100C100023303105C9F064F42130310581F02230F0
:100C2000310509F043C084E590E021E332E042C0A1
:100C300021323105F1F02232310541F137C082E134
:100C400090E025E832E036C099278130910541F0E7
:100C50008230910541F0892B49F5EDE2F2E005C0C3
:100C6000E9E1F2E002C0EBE0F2E0849190E09F0164
:100C700021C06330D8F4E62FF0E0EE0FFF1FE85EEE
:100C8000FE4F2081318189E090E014C0633070F420
:100C900070E0FB01EE0FFF1FEE5EFE4F2081318101
:100CA000FB01E15FFE4F808190E004C080E090E0B6
:100CB00020E030E0FA0131832083089580E189BD8E
:100CC00082E189BD09B400FEFDCF8091D8008F7DFF
:100CD0008093D8008091E00082608093E000809152
:100CE000E00081FDFCCF0895CF92DF92EF92FF925A
:100CF0000F931F93CF93DF93EC018B016A010E9446
:100D0000D707811133C0C114D10439F0F6018081B5
:100D10009181081B190BC80FD91FE12CF12C01156B
:100D2000110519F18091E80085FD16C08091E80059
:100D30008E778093E800C114D10449F0F6018081D8
:100D40009181E80EF91EF182E08285E00FC00E94D9
:100D5000D707882321F30AC089918093F1000150BD
:100D60001109FFEFEF1AFF0ADACF80E0DF91CF9190
:100D70001F910F91FF90EF90DF90CF9008952091F9
:100D8000DE013091DF012617370748F06115710544
:100D900039F42091E8002E772093E80001C0B901D2
:100DA00040E061157105A9F12091D701222309F4D2
:100DB00043C0253009F442C02091E80023FD40C023
:100DC0002091E80022FD32C02091E80020FFE9CF09
:100DD0004091F3002091F20030E0342BFC01CF0170
:100DE0006115710559F02830310540F481918093E7
:100DF000F100615071092F5F3F4FF1CF41E0283082
:100E0000310509F040E02091E8002E772093E800BA
:100E1000C8CF4111C9CF0AC08091D701882361F0A2
:100E2000853061F08091E80083FD0AC08091E80080
:100E300082FFF2CF80E0089582E0089583E0089574
:100E400081E008952091DE013091DF0126173707F8
:100E500048F06115710539F42091E8002E77209350
:100E6000E80001C0B901FC0120E06115710591F1B4
:100E70008091D701882309F440C0853009F43FC030
:100E80008091E80083FD3DC08091E80082FD2FC085
:100E90008091E80080FFE9CF2091F3008091F2007B
:100EA00090E0922B6115710559F08830910540F45E
:100EB00024912093F1003196615071090196F2CF8F
:100EC00021E0089709F020E08091E8008E77809378
:100ED000E800CBCF2111CCCF0AC08091D701882365
:100EE00061F0853061F08091E80083FD0AC0809157
:100EF000E80082FFF2CF80E0089582E0089583E069
:100F0000089581E00895982F973058F59093E9005F
:100F1000981739F07091EC002091ED005091F0009D
:100F200003C0242F762F50E021FF19C03091EB0031
:100F30003E7F3093EB003091ED003D7F3093ED002C
:100F40003091EB0031603093EB007093EC00209314
:100F5000ED005093F0002091EE0027FF07C09F5F47
:100F6000D3CF8F708093E90081E0089580E00895E9
:100F70008091D80187FF11C08091E80082FD05C0F3
:100F80008091D7018111F8CF11C08091E8008B7753
:100F90000BC08091D701882349F08091E80080FF41
:100FA000F8CF8091E8008E778093E8000895209133
:100FB000E4003091E50095E64091EC00842F8170CB
:100FC00040FF22C08091E80080FD1CC08091D701C5
:100FD000882391F0853091F08091EB0085FD10C061
:100FE0004091E4005091E5004217530729F39A011C
:100FF000915011F784E0089582E0089583E0089508
:1010000081E0089580E008954091E80042FFDECF3E
:1010100008950E9477080E947F08E0EEF0E080814A
:1010200081608083E8EDF0E080818F77808319BC58
:10103000A7EDB0E08C918E7F8C9380818F7E808332
:101040001092D60108950F931F93CF93DF930E94C0
:1010500077080E947F08C8EDD0E088818F77888369
:1010600088818068888388818F7D888319BC1092ED
:10107000D7011092D3011092D5011092D40100EE45
:1010800010E0F80180818B7F808388818160888374
:1010900042E060E080E00E948307E1EEF0E08081C2
:1010A0008E7F8083E2EEF0E08081816080838081AA
:1010B00088608083F80180818E7F80838881806151
:1010C0008883DF91CF911F910F910895E8EDF0E0B3
:1010D00080818F7E8083E7EDF0E080818160808376
:1010E00084E082BF81E08093D6010C942308E8ED70
:1010F000F0E080818E7F80831092E200089510924C
:10110000DA001092E10008951F920F920FB60F922D
:1011100011242F933F934F935F936F937F938F93FC
:101120009F93AF93BF93EF93FF938091E10082FF72
:101130000BC08091E20082FF07C08091E1008B7FAD
:101140008093E1000E9401058091DA0080FF1FC0BA
:101150008091D80080FF1BC08091DA008E7F809341
:10116000DA008091D90080FF0DC080E189BD82E165
:1011700089BD09B400FEFDCF81E08093D7010E94B4
:10118000EB0405C019BC1092D7010E94F9048091AC
:10119000E10080FF19C08091E20080FF15C08091BE
:1011A000E2008E7F8093E2008091E2008061809374
:1011B000E2008091D80080628093D80019BC85E05D
:1011C0008093D7010E94FD048091E10084FF30C02C
:1011D0008091E20084FF2CC080E189BD82E189BD5D
:1011E00009B400FEFDCF8091D8008F7D8093D80098
:1011F0008091E1008F7E8093E1008091E2008F7EFC
:101200008093E2008091E20081608093E20080910F
:10121000D301882311F084E007C08091E30087FDAB
:1012200002C081E001C083E08093D7010E94FF04E7
:101230008091E10083FF29C08091E20083FF25C0F7
:101240008091E100877F8093E10082E08093D70165
:101250001092D3018091E1008E7F8093E100809114
:10126000E2008E7F8093E2008091E20080618093B3
:10127000E20042E060E080E00E9483078091F0009D
:1012800088608093F0000E94FC04FF91EF91BF9171
:10129000AF919F918F917F916F915F914F913F910E
:1012A0002F910F900FBE0F901F9018951F920F92C5
:1012B0000FB60F9211242F933F934F935F936F9329
:1012C0007F938F939F93AF93BF93CF93DF93EF93CE
:1012D000FF93C091E900CF708091EC00D82FD170BE
:1012E00080FDD0E81092E9008091F000877F809324
:1012F000F00078940E949A091092E9008091F00021
:1013000088608093F000CD2BCF70C093E900FF91EF
:10131000EF91DF91CF91BF91AF919F918F917F918D
:101320006F915F914F913F912F910F900FBE0F9052
:101330001F9018951F93CF93DF93CDB7DEB7AA9771
:101340000FB6F894DEBF0FBECDBFE8EDF1E088E048
:101350008E0F9091F10091938E13FBCF0E94110597
:101360008091E80083FF1FC18091D8019091D9013D
:10137000492F50E04A30510508F015C1FA01EA5AE8
:10138000FF4F0C947521803881F0823809F00BC131
:101390008091DC018F708093E9008091EB0085FBE8
:1013A000882780F91092E90006C08091D4019091BD
:1013B000D501911182609091E800977F9093E800A9
:1013C0008093F1001092F100C8C0282F2D7F09F002
:1013D000EAC0882319F0823061F0E5C08091DA011B
:1013E000813009F0E0C0933009F080E08093D501AE
:1013F0002BC08091DA01811127C08091DC018F70B0
:1014000009F4D1C08093E9002091EB0020FF1CC0BB
:10141000933021F48091EB00806214C09091EB0036
:1014200090619093EB0021E030E0A90102C0440FED
:10143000551F8A95E2F74093EA001092EA008091E6
:10144000EB0088608093EB001092E9008091E80047
:10145000877F86C08111A7C01091DA011F77809124
:10146000E3008078812B8093E3008091E800877F00
:101470008093E8000E94B8078091E80080FFFCCFCD
:101480008091E30080688093E300111102C082E044
:1014900001C083E08093D70186C08058823008F075
:1014A00082C08091DA019091DB018C3D53E0950779
:1014B00079F583E08A838AE289834FB7F894DE0165
:1014C000139620E03EE051E2E32FF0E05093570006
:1014D000E49120FF03C0E295EF703F5FEF708E2F25
:1014E00090E0EA3010F0C79601C0C0968D939D93AE
:1014F0002F5F243149F74FBF8091E800877F8093A9
:10150000E8006AE270E0CE0101960E94BF0614C0B6
:10151000AE014F5F5F4F6091DC010E940606BC0187
:10152000892B09F440C09091E800977F9093E800E0
:1015300089819A810E9422078091E8008B778093AD
:10154000E80031C0803879F58091E800877F80938A
:10155000E8008091D3018093F1008091E8008E77BC
:101560008093E8000E94B8071EC081111CC09091B2
:10157000DA019230C0F48091E800877F8093E80020
:101580009093D3010E94B8078091D301811106C0C6
:101590008091E30087FD02C081E001C084E0809378
:1015A000D7010E9402058091E80083FF0AC0809164
:1015B000E800877F8093E8008091EB008062809351
:1015C000EB00AA960FB6F894DEBF0FBECDBFDF9139
:1015D000CF911F91089590934901809348010895F8
:1015E00080914801909149010895E0914801F0915E
:1015F0004901309721F00190F081E02D099480E0BD
:101600000895E0914801F0914901309721F002805E
:10161000F381E02D0994089520914601309147010E
:101620008217930771F09093470180934601E091F0
:101630004801F0914901309721F00680F781E02DB3
:101640000994089520914401309145018217930730
:1016500071F09093450180934401E0914801F0912D
:101660004901309721F00084F185E02D0994089517
:101670000E9407190E9458020E94AC190E9418206B
:101680000E94D91E0E94341C0E94EE1D0C945A2107
:101690004F925F927F928F929F92AF92BF92CF9222
:1016A000DF92EF92FF920F931F93CF93DF93CDB70B
:1016B000DEB72A970FB6F894DEBF0FBECDBF0E94EB
:1016C00084029BE4C92E91E0D92E00E010E0AA2408
:1016D000A394B12C702E802F0E948D034C01F60133
:1016E000419051906F014826592641145104B1F49C
:1016F0000F5F1F4F0530110569F78FEF89838A83CC
:101700001B820E9410198160782F9D838C834981F0
:101710005A816B818D810E94DE103AC08091AB01AD
:1017200081FD0E94960320E030E07501022E02C088
:10173000EE0CFF1C0A94E2F7C70184219521892B46
:1017400009F12E837F828E209F2091E0892809F461
:1017500090E098870E9410198160782F9A87898776
:101760004E815F8168858A850E94DE10000F111FFF
:10177000F801E55BFE4F80819181E826F926F18230
:10178000E08206C02F5F3F4F2E30310571F6B0CF9B
:1017900010914A010E94F50A1817D9F00E94F50A23
:1017A00080934A012A960FB6F894DEBF0FBECDBFD4
:1017B000DF91CF911F910F91FF90EF90DF90CF902D
:1017C000BF90AF909F908F907F905F904F900C94C0
:1017D0003B1F2A960FB6F894DEBF0FBECDBFDF9138
:1017E000CF911F910F91FF90EF90DF90CF90BF901E
:1017F000AF909F908F907F905F904F900895CF9380
:10180000882309F4C2C0C82F823859F40E94F50A0F
:1018100081FDBBC089E30E94CD150E94551789E365
:101820000CC0833879F40E94F50A80FDAEC083E5D0
:101830000E94CD150E94551783E50E949216CF9104
:101840000C945517843859F40E94F50A82FD9DC006
:1018500087E40E94CD150E94551787E4EECF8CEFE8
:101860008C0F813A48F48C2F0E94F21B81118DC09D
:101870008C2F0E94CD15E3CF80E28C0F883048F486
:10188000C77081E001C0880FCA95EAF70E94271748
:10189000D6CF8BE58C0F833078F4C53A29F0C63A61
:1018A00031F083E890E005C081E890E002C082E872
:1018B00090E0CF910C940C0B88E58C0F833108F0ED
:1018C00064C0C83A39F1C93A41F1CA3A49F1CB3A50
:1018D00051F1CC3A59F1CD3A61F1C03B69F1CE3AC0
:1018E00071F1CF3A79F1C13B81F1C23B89F1C33B40
:1018F00091F1C43B99F1C53BA1F1C63BA9F1C73BAE
:10190000B1F1C83BB9F1C93BC1F1CA3BC9F180E0B3
:1019100090E038C082EE90E035C089EE90E032C0B1
:101920008AEE90E02FC085EB90E02CC086EB90E033
:1019300029C087EB90E026C08CEC90E023C08DECB2
:1019400090E020C083E891E01DC08AE891E01AC0D1
:1019500082E991E017C084E991E014C081E292E04D
:1019600011C083E292E00EC084E292E00BC085E2F7
:1019700092E008C086E292E005C087E292E002C0F1
:101980008AE292E0CF910C94220BCF9108958823A4
:1019900009F44BC0823859F40E94F50A81FF45C012
:1019A00089E30E94CD150E94551789E30CC0833846
:1019B00071F40E94F50A80FF38C083E50E94CD15BE
:1019C0000E94551783E50E9492160C94551784388F
:1019D00059F40E94F50A82FF28C087E40E94CD15C1
:1019E0000E94551787E4EFCF9CEF980F913A58F378
:1019F00090E2980F983050F4877091E001C0990FF1
:101A00008A95EAF7892F0E942D17DFCF9BE5980F63
:101A1000933020F480E090E00C940C0B885A8331D2
:101A200020F480E090E00C94220B0895882321F0AC
:101A30000E9427170C9455170895882321F00E94BF
:101A40002D170C9455170895CF92DF92EF92FF92C5
:101A50000F931F93CF93DF93CDB7DEB727970FB6C2
:101A6000F894DEBF0FBECDBF25E0FC01DE0111966C
:101A700001900D922A95E1F7FC01408131810281AC
:101A8000258122952F7063817481672B09F430C3FF
:101A90003F3F19F44F3F09F42BC37C0149833A833C
:101AA00089819A812F830E948C15182F9E830E9412
:101AB0008B150E949B149E81E92FE295EF70F0E058
:101AC000E05AFF4F2F810C947521892F807F9F70E2
:101AD000F92E882319F0F29480EFF822002349F0C0
:101AE000FF2009F443C28F2D0E9437170E9455171B
:101AF0003DC2812F0E94C70CFF2009F4F9C28F2D2F
:101B00000E943D1727960FB6F894DEBF0FBECDBFDB
:101B1000DF91CF911F910F91FF90EF90DF90CF90C9
:101B20000C945517892F807F9F70803211F4892F74
:101B300003C0892F8295807F112319F0113009F19C
:101B40002AC00023A1F0222381F1213071F52796CC
:101B50000FB6F894DEBF0FBECDBFDF91CF911F91BE
:101B60000F91FF90EF90DF90CF900C9447172223B6
:101B700019F0213009F4BCC28E830E944A178E816D
:101B800079C1002321F0263008F0B2C20EC0253002
:101B900008F0AEC26FC10023C1F0222331F0F7017B
:101BA000958190FFE3C19F70958327960FB6F894B7
:101BB000DEBF0FBECDBFDF91CF911F910F91FF9080
:101BC000EF90DF90CF900C94160D222309F452C1B0
:101BD000E1C1292F26952695237030E02115310586
:101BE00021F021303105C1F083C2002319F0812F8B
:101BF000937002C080E090E027960FB6F894DEBFA5
:101C00000FBECDBFDF91CF911F910F91FF90EF904D
:101C1000DF90CF900C940C0B002319F0812F937060
:101C200002C080E090E027960FB6F894DEBF0FBEAA
:101C3000CDBFDF91CF911F910F91FF90EF90DF907B
:101C4000CF900C94220B892F837009F079C0011179
:101C50004FC2812F829586958770880F880F212F1C
:101C60002F70C22ED12CE12CF12C082E04C0CC0CEC
:101C7000DD1CEE1CFF1C0A94D2F714FF12C04FE0CB
:101C800050E060E070E004C0440F551F661F771FEE
:101C90008A95D2F78A019B01009510952095309581
:101CA00003C000E010E09801969596959370492F37
:101CB00050E0C901B80142305105D1F0433051051F
:101CC00059F16C297D298E299F294130510541F117
:101CD00027960FB6F894DEBF0FBECDBFDF91CF9130
:101CE0001F910F91FF90EF90DF90CF900C94B01464
:101CF0006C297D298E299F2927960FB6F894DEBF7F
:101D00000FBECDBFDF91CF911F910F91FF90EF904C
:101D1000DF90CF900C94C2140E94B014C701B6019A
:101D200027960FB6F894DEBF0FBECDBFDF91CF91DF
:101D30001F910F91FF90EF90DF90CF900C949E1425
:101D4000002319F0892F817001C08695882309F43A
:101D5000CFC1812F829586958770880F880F212F9C
:101D60002F70C22ED12CE12CF12C082E04C0CC0CEB
:101D7000DD1CEE1CFF1C0A94D2F714FF12C04FE0CA
:101D800050E060E070E004C0440F551F661F771FED
:101D90008A95D2F78A019B01009510952095309580
:101DA00003C000E010E09801969596959370492F36
:101DB00050E0C901B80142305105D1F0433051051E
:101DC00059F16C297D298E299F294130510541F116
:101DD00027960FB6F894DEBF0FBECDBFDF91CF912F
:101DE0001F910F91FF90EF90DF90CF900C946715AB
:101DF0006C297D298E299F2927960FB6F894DEBF7E
:101E00000FBECDBFDF91CF911F910F91FF90EF904B
:101E1000DF90CF900C9479150E946715C701B60129
:101E200027960FB6F894DEBF0FBECDBFDF91CF91DE
:101E30001F910F91FF90EF90DF90CF900C9455156C
:101E4000103F41F118F4103E48F48BC0123F09F4E2
:101E500050C0D8F1133F09F460C083C01F70892FB0
:101E60008F71002321F00E94EE14812F9ECE0E94DC
:101E70000F15812F27960FB6F894DEBF0FBECDBF8A
:101E8000DF91CF911F910F91FF90EF90DF90CF9056
:101E90000C941D0D0023A9F0253008F029C1892FCD
:101EA0008F7127960FB6F894DEBF0FBECDBFDF91BE
:101EB000CF911F910F91FF90EF90DF90CF900C94F6
:101EC0003415263008F014C1EACF0023A1F0892F81
:101ED0008F7127960FB6F894DEBF0FBECDBFDF918E
:101EE000CF911F910F91FF90EF90DF90CF900C94C6
:101EF000EE14002361F3892F8F7127960FB6F894A3
:101F0000DEBF0FBECDBFDF91CF911F910F91FF902C
:101F1000EF90DF90CF900C940F15002391F0892F54
:101F20008F7127960FB6F894DEBF0FBECDBFDF913D
:101F3000CF911F910F91FF90EF90DF90CF900C9475
:101F4000D91427960FB6F894DEBF0FBECDBFDF9130
:101F5000CF911F910F91FF90EF90DF90CF900C9455
:101F6000D4140023A1F0222309F4B1CF812F2796A6
:101F70000FB6F894DEBF0FBECDBFDF91CF911F919A
:101F80000F91FF90EF90DF90CF900C94FF0B2223E6
:101F900009F4B1CF812F27960FB6F894DEBF0FBE9C
:101FA000CDBFDF91CF911F910F91FF90EF90DF9008
:101FB000CF900C94C70C492F4F70612FC7010E941E
:101FC000310227960FB6F894DEBF0FBECDBFDF916A
:101FD000CF911F910F91FF90EF90DF90CF900C94D5
:101FE0000814011185C0112341F0892F8F708430AE
:101FF00021F0907F212F2F70922B9F70492F50E05E
:102000004230510509F440C0BCF44115510561F15D
:102010004130510509F06CC027960FB6F894DEBF29
:102020000FBECDBFDF91CF911F910F91FF90EF9029
:10203000DF90CF900C94181E43305105A9F1443025
:10204000510509F055C0812F27960FB6F894DEBFD1
:102050000FBECDBFDF91CF911F910F91FF90EF90F9
:10206000DF90CF900C94731E27960FB6F894DEBFC6
:102070000FBECDBFDF91CF911F910F91FF90EF90D9
:10208000DF90CF900C94FF1D27960FB6F894DEBF1B
:102090000FBECDBFDF91CF911F910F91FF90EF90B9
:1020A000DF90CF900C94311E27960FB6F894DEBFC8
:1020B0000FBECDBFDF91CF911F910F91FF90EF9099
:1020C000DF90CF900C94501E492F4F70612FC701A5
:1020D00027960FB6F894DEBF0FBECDBFDF91CF912C
:1020E0001F910F91FF90EF90DF90CF900C949C1870
:1020F00027960FB6F894DEBF0FBECDBFDF91CF910C
:102100001F910F91FF90EF90DF90CF9008950E9464
:1021100044170E9419170E94551780E090E00E9412
:102120000C0B80E090E00C94220B0E9434170C946E
:1021300087100E948C15292F22952F7030E02C30AB
:1021400031054CF42A3031056CF42250310922302B
:10215000310588F407C02C30310549F02F303105A6
:1021600031F009C0803E48F0803F29F406C093FB5F
:10217000882780F9089580E0089581E00895CF933D
:10218000DF9300D000D01F92CDB7DEB70F900F9035
:102190000F900F900F90DF91CF910895CF93DF9321
:1021A00000D000D000D0CDB7DEB726960FB6F89499
:1021B000DEBF0FBECDBFDF91CF910895CF93DF93E8
:1021C000CDB7DEB72B970FB6F894DEBF0FBECDBFED
:1021D0004F83588769877A878B87DE01119686E05F
:1021E000FD0111928A95E9F785E0FE01379601908D
:1021F0000D928A95E1F74F81588569857A858B859F
:102200000E94D80349815A816B817C818D819E8196
:102210000E9464132B960FB6F894DEBF0FBECDBF9D
:10222000DF91CF9108951F93CF93DF93C091550114
:1022300016E080915601C81799F0D0E01C9FF0017C
:102240001D9FF00D1124E95AFE4F4081518162819A
:102250007381848195810E94CE102196C770E9CF49
:10226000DF91CF911F91089540918701509188018E
:102270006091890170918A0180918B0190918C010C
:102280000C94CE1080918C0182958F7009F054C00F
:1022900080918901882309F44FC080915501A09154
:1022A0005601609187017091880140918A01509197
:1022B0008B01B6E08A1709F43FC090E04115510543
:1022C000C1F17F3F11F46F3FA1F1B89FF001B99FB9
:1022D000F00D1124E95AFE4F218172132AC020818A
:1022E000621327C02281211124C023813481241745
:1022F000350710F421503109241B350B283C3105DA
:10230000C0F420918C012F70206120938C0126E075
:10231000289FF001299FF00D1124E45AFE4F80817F
:102320008F708061808387E891E00E94240D0C9477
:10233000131101968770BECF0895CF92DF92EF926E
:10234000FF920F931F93CF93DF93CDB7DEB76297C2
:102350000FB6F894DEBF0FBECDBF8C0185E0F8014B
:10236000DE011D9601900D928A95E1F7D8014C91FE
:1023700011965C91119712966C9112971396CD90CD
:10238000DC901497309187017091880180918A01C7
:1023900090918B01009709F46BC17F3F19F43F3F87
:1023A00009F466C1E0908901EE2009F4C0C02091D3
:1023B0008C01C816D90628F0F601E81BF90BCF01ED
:1023C00004C0809590958C0D9D1DFF24F394883C4E
:1023D000910578F0F12C207F09F0C6C07C2DD98AB8
:1023E000C88A89890E94BF1087E891E00E94240D65
:1023F000B1C0822F807F09F046C0751314C034131A
:1024000012C0611110C02F70206120938C010E94B6
:10241000341187E891E00E94240D80918C01D8014D
:1024200015968C932EC0CD2819F15F3F11F44F3FC4
:10243000F9F0F62E61111CC08091550120915601D2
:1024400036E0821709F45AC090E0389FF001399FB6
:10245000F00D1124E95AFE4F7181571306C07081A7
:10246000471303C07281711103C001968770E9CFD1
:10247000F62E662309F418C180918C018160809347
:102480008C01F12C11C1751308C0341306C0611101
:1024900004C080918C01D801C3C04D875E878D85B3
:1024A0009E856A8B0E9499106A898823E1F16623D0
:1024B000D1F120918C01822F82958F7090E002974C
:1024C00074F0809187019091880198878F83198695
:1024D000DB86CA862C87CE0107960E94240D86E0F3
:1024E000F801A7E8B1E001900D928A95E1F70E940A
:1024F00042110E943411FF24F394D6C04D875E87A9
:102500008D859E850E948C15292F22952F7030E095
:10251000223031050CF0BCC09F7009F0B6C0805E5F
:10252000883008F4C1C0C8010E94240DE4CFC81649
:10253000D90608F453C0F601E81BF90BCF01883C1B
:10254000910508F450C0F12C7C2DD98AC88A89895C
:102550000E94BF10E7E8F1E086E0DF011D928A9556
:10256000E9F70E943411A0C0751314C0341312C0CF
:10257000611110C080918C01F8018583C8010E940F
:10258000240D86E0E7E8F1E0DF011D928A95E9F786
:10259000FE2C8AC04D875E878D859E856A8B0E9442
:1025A00099106A89882309F4BECF662309F4BBCF4A
:1025B00020918C01822F82958F7090E002970CF40D
:1025C0008ECF80918701909188019A8389831B82A5
:1025D000DD82CC822E83CE0101967FCF80959095AF
:1025E0008C0D9D1DACCFF62E662309F49CCF751380
:1025F0002EC034132CC020918C0120FD1FC0822FCF
:1026000082958F70D9F0D80115962C9315978F303D
:1026100049F08F5F982F9295907F822F8F70892B32
:1026200015968C93C8010E94240D86E0F801A7E856
:10263000B1E001900D928A95E1F793CF86E0F80121
:10264000A7E8B1E001900D928A95E1F72DC04D8782
:102650005E878D859E850E949910811140CF809163
:102660008C01816080938C01C8010E94240D1CC0E4
:10267000662309F458CF4D875E878D859E850E941D
:102680009910882309F44FCF2ACF811148CF0CC06D
:10269000243031050CF047CF9F7009F440CFF8018A
:1026A0009581907F09F03BCF8F2D62960FB6F894FD
:1026B000DEBF0FBECDBFDF91CF911F910F91FF9075
:1026C000EF90DF90CF9008951F93CF93DF93CDB716
:1026D000DEB72C970FB6F894DEBF0FBECDBF4F8389
:1026E000588769877A878B879C87CE0107960E94D7
:1026F0009D11882369F08F8198852A853B85232B3E
:10270000F1F19F3F09F063C08F3F09F060C037C00F
:1027100086E0FE013796DE01119601900D928A95B2
:10272000E1F76F817885EA85FB85309741F17F3F3E
:1027300011F46F3F21F12091560130E0C90101965B
:10274000877099274091550150E08417950709F447
:1027500047C069837A83FD83EC8396E0929FD00122
:10276000939FB00D1124A95ABE4FFE0131960190DE
:102770000D929A95E1F7809356010E94131116E08D
:1027800080915501909156018917C1F1189FC001A0
:102790001124895A9E4F0E949D11882379F1E0915E
:1027A00055011E9FF0011124E95AFE4F40815181CD
:1027B00062817381848195810E94CE108091550140
:1027C00090E001968770992780935501D9CF4F816A
:1027D000588569857A858B859C850E94CE10CFCFE0
:1027E0000E9495101092560110925501E7E8F1E011
:1027F00086E0DF011D928A95E9F7C1CF2C960FB6CE
:10280000F894DEBF0FBECDBFDF91CF911F91089529
:10281000EF92FF920F931F93CF93DF938C01892B3D
:1028200009F46AC0F12CEE24E394E8012196F80142
:102830008491843740F4843008F04FC0813081F0B7
:10284000823019F159C0853709F442C098F19CE7EC
:10285000980F903708F050C08F770E94C70C3FC088
:102860000E5F1F4FFE01C49180E28C0F883048F448
:10287000C7708E2D01C0880FCA95EAF70E943717DE
:102880002FC08C2F0E94FF0B2BC00E5F1F4FFE012D
:10289000C49180E28C0F883048F4C7708E2D01C03F
:1028A000880FCA95EAF70E943D171AC08C2F0E9424
:1028B000C70C16C00E5F1F4FFE01C491CC2381F0E0
:1028C0008FE99FE00197F1F700C00000C150F6CFFB
:1028D0000E5F1F4FFE01F49003C00E94FF0B8E019C
:1028E0008F2D882309F4A1CFEFE9FFE03197F1F7AD
:1028F00000C000008150F5CFDF91CF911F910F9163
:10290000FF90EF90089560939101709392018093EE
:102910009301909394010E94711F0C94871060930F
:102920008D0170938E0180938F01909390010E948E
:10293000B31F0C94871008950C9483140F931F9366
:102940000091910110919201209193013091940195
:10295000602B712B822B932B1F910F910C9483145E
:102960000F931F9300919101109192012091930177
:102970003091940160237123822393231F910F913F
:102980000C9483140F931F93009191011091920165
:10299000209193013091940160277127822793271A
:1029A0001F910F910C94831460E070E0CB010C94A4
:1029B0008F140F931F9341E050E060E070E08A01B4
:1029C0009B0104C0000F111F221F331F8A95D2F7ED
:1029D000C901B8011F910F910C948F140F931F938D
:1029E00041E050E060E070E004C0440F551F661FF6
:1029F000771F8A95D2F780918D0190918E01A091D9
:102A00008F01B09190018A019B01082B192B2A2B71
:102A10003B2BC901B8011F910F910C948F140F9398
:102A20001F9341E050E060E070E004C0440F551F88
:102A3000661F771F8A95D2F74095509560957095DF
:102A400080918D0190918E01A0918F01B0919001A4
:102A50008A019B01082319232A233B23C901B801BA
:102A60001F910F910C948F140F931F9341E050E02E
:102A700060E070E004C0440F551F661F771F8A9501
:102A8000D2F780918D0190918E01A0918F01B0912C
:102A900090018A019B01082719272A273B27C90192
:102AA000B8011F910F910C948F140F931F930091F5
:102AB0008D0110918E0120918F0130919001602B3A
:102AC000712B822B932B1F910F910C948F140F93CA
:102AD0001F9300918D0110918E0120918F013091F3
:102AE000900160237123822393231F910F910C94F3
:102AF0008F140F931F9300918D0110918E012091DF
:102B00008F013091900160277127822793271F91B1
:102B10000F910C948F140895CF92DF92EF92FF9251
:102B20000F931F93CF93DF938C01C0909101D090AE
:102B30009201E0909301F090940140918D015091A9
:102B40008E0160918F0170919001C42AD52AE62AE6
:102B5000F72ACFE1D0E0D701C6010C2E04C0B6950C
:102B6000A795979587950A94D2F780FF07C0B8017B
:102B70008C2F0E9429188130910531F4219758F744
:102B8000B80180E00E942918DF91CF911F910F9129
:102B9000FF90EF90DF90CF900895CF92DF92EF9269
:102BA000FF920F931F93CF93DF93C82F80910C0157
:102BB0008823C1F08C2F8695869586958F3008F0F6
:102BC000A8C0E0910D01F0910E01E80FF11DC77052
:102BD00081E090E001C0880FCA95EAF79181892BC6
:102BE000818397C0D090A8013091A601E0910D019A
:102BF000F0910E01332309F477C04091A7018D2D88
:102C00002FEF96E0E92EF12C082F112707FD1095E4
:102C1000BF01600F711FDB0112969C919C1709F494
:102C200078C02F3F19F4911101C0282FC8010196D7
:102C300006E010E0B7010E9461218413E5CFD22F96
:102C40004D1152C02F3F71F4842F992787FD909525
:102C50000196B8010E9461218093A8013150309300
:102C6000A60142C0822F992787FD90950196B80151
:102C70000E946121282FFF24F39406E010E03327FF
:102C800027FD30956F01C20ED31ED60112965C91BE
:102C9000552399F08D2F992787FD9095BF01680FD7
:102CA000791FDB0112965C93D60112961C92019655
:102CB000B8010E946121D82F01C0F394C901019687
:102CC000B8010E946121282F8413D9CF242F3327E4
:102CD00027FD30952F193109C901069666E070E08D
:102CE0000E9461218093A7012091A701332727FD2E
:102CF0003095E20FF31FC283C901019666E070E0D0
:102D00000E9461218093A7018091A6018F5F80932B
:102D1000A601DF91CF911F910F91FF90EF90DF906F
:102D2000CF900895EF92FF920F931F93CF93C82FE8
:102D300080910C018823C9F08C2F86958695869505
:102D40008F3008F070C0E0910D01F0910E01E80F96
:102D5000F11DC77081E090E001C0880FCA95EAF7C5
:102D600080959181892381835EC02091A801409143
:102D7000A601442309F457C0E0910D01F0910E0122
:102D80000091A701112707FD109586E0E82EF12C90
:102D900030E0DF01A20FB31FCD01029612965C91C5
:102DA0005C1337C0DC011C9241504093A6014111D5
:102DB00004C01092A8011092A7014091A701842F8E
:102DC000992787FD9095059666E070E00E94612145
:102DD0002817390741F5C091A80106E010E0842FBB
:102DE000992787FD90950596B8010E9461219C0165
:102DF000482F0596B8010E946121DF01A80FB91F75
:102E000012968C91811102C02C13E9CF2093A70157
:102E10000AC0C9010196B7010E946121282F8017BD
:102E2000910709F0B5CFCF911F910F91FF90EF90CF
:102E3000089581E090E0E0910D01F0910E01E80F1E
:102E4000F91F1082019680319105A9F7089590919C
:102E5000AA01892B8093AA01089580959091AA01D7
:102E600089238093AA0108951092AA010895909150
:102E7000A901892B8093A901089580959091A901BA
:102E800089238093A90108951092A9010895809340
:102E90009501089510929501089580910C0181117A
:102EA00003C08091A60108950895E0910D01F0916D
:102EB0000E018091AA018083E0910D01F0910E0135
:102EC00090818091A901892B80838091950188232D
:102ED00061F0E0910D01F0910E019081892B8083CA
:102EE0000E944D1781111092950180910D019091D2
:102EF0000E010C94010B8D3B50F4883AE8F4853AAE
:102F000090F4843070F4813009F45BC007C0803ED7
:102F100028F0883E30F0803F08F050C080E090E01C
:102F2000089590E00895853A09F44EC0863A09F470
:102F30004EC083E890E40895883A09F44BC0893A7A
:102F400009F44BC08A3A09F44BC08B3A09F44BC0E0
:102F50008C3A09F44BC08B3B09F44BC08C3B09F411
:102F60004BC08D3A09F44BC0803B09F44BC08E3AFC
:102F700009F44BC08F3A09F44BC0813B09F44BC0B4
:102F8000823B09F44BC0833B09F44BC0843B09F4FA
:102F90004BC0853B09F44BC0863B09F44BC0873BD3
:102FA00009F44BC0883B09F44BC0893B09F44BC082
:102FB0008A3B09F44BC080E094E4089590E090656A
:102FC000089581E090E0089581E890E4089582E812
:102FD00090E4089582EE94E4089589EE94E40895CF
:102FE0008AEE94E4089585EB94E4089586EB94E4E6
:102FF000089583EB94E4089584EB94E4089587EBBB
:1030000094E408958CEC94E408958DEC94E4089590
:1030100083E895E408958AE895E4089582E995E4C3
:10302000089584E995E4089581E296E4089583E2A1
:1030300096E4089584E296E4089585E296E408957E
:1030400086E296E4089587E296E408958AE296E49B
:1030500008950E943D02803EA8F4803C00F5813333
:1030600009F45CC038F4893209F452C08A3209F498
:103070005BC05FC08933B1F08238A1F0853309F4B9
:1030800041C057C0833E41F128F4803E99F0823E12
:10309000B9F04FC0863E31F1873E71F14AC00E94BF
:1030A000410208959091D20190FD02C091FF41C06C
:1030B00080EE3FC08091D20180FFFACF89E339C012
:1030C0008091D20182FF0CC08091D20184FF02C0A6
:1030D00080E02FC083EE2DC08091D20182FFF4CF1B
:1030E00082EE27C08091D20183FF0AC08091D20175
:1030F00084FDEECF87EE1DC08091D20183FFF6CF15
:1031000086EE17C08091D20185FF06C089E211C00A
:103110008091D20185FFFACF85E30BC08091D20167
:1031200086FF06C08AE205C08091D20186FFFACFF1
:1031300081E30E947B17089508958091D701843020
:1031400019F11092AC0120E488E190E00FB6F894F8
:10315000A895809360000FBE209360000E94511CD0
:1031600083B7817F846083BF83B7816083BF789496
:10317000889583B78E7F83BF88E10FB6F8948093DC
:103180006000109260000FBE0895CF930E94290244
:103190000E9484020E942A02C0E08C2F0E948D03AC
:1031A000892B29F4CF5FC530C1F780E001C081E0F1
:1031B000CF9108950E9495100C94EE1D1F920F92CE
:1031C0000FB60F9211248F939F93AF93BF9380916B
:1031D000AC01811113C08091AD019091AE01A0911D
:1031E000AF01B091B0014196A11DB11D8093AD0119
:1031F0009093AE01A093AF01B093B001BF91AF9196
:103200009F918F910F900FBE0F901F90189582E0A5
:1032100084BD93E095BD9AEF97BD80936E000895AD
:103220002FB7F8948091AD019091AE01A091AF01BC
:10323000B091B0012FBF08951F920F920FB60F9259
:1032400011248F939F93AF93BF938091AD01909181
:10325000AE01A091AF01B091B0010196A11DB11DC9
:103260008093AD019093AE01A093AF01B093B001F4
:10327000BF91AF919F918F910F900FBE0F901F90B4
:1032800018950E940908F8942FEF87EA91E62150DB
:1032900080409040E1F700C0000087E090EBDC0147
:1032A0008093E1019093E201A093E301B093E401E4
:1032B0002CE088E190E00FB6F894A8958093600028
:1032C0000FBE20936000FFCFCF92DF92EF92FF926C
:1032D0000F931F93CF93DF93D82FC0E0EE24E39496
:1032E000F12C8C2F0E948D036C0100E010E09701FF
:1032F000002E02C0220F331F0A94E2F72C213D2139
:10330000232B31F40F5F1F4F0E30110581F709C0D9
:10331000602F7C2F80E00E943D02D813F3CF81E024
:1033200004C0CF5FC530E9F680E0DF91CF911F91F7
:103330000F91FF90EF90DF90CF900895CF93C82F1B
:103340008CE20E946419882321F08C2FCF910C9479
:10335000641980E0CF910895CF930E94051B8111DD
:1033600002C00E94E01AC5E6C15049F00E948402E2
:103370008FE39CE90197F1F700C00000F5CF89E2E7
:103380000E949E1981111AC18AE20E949E19882307
:1033900041F00E94FF1A0E94E01A0E94E0200E9461
:1033A000452085E00E949E1981110E9441190E94CA
:1033B000101B8093AB0187E00E949E198823A9F11E
:1033C0008BE10E949E19882351F08091AB0181FB13
:1033D000222720F991E0922790FB81F90EC08EE020
:1033E0000E949E19882361F08091AB0182FB222705
:1033F00020F991E0922790FB82F98093AB0115C0F0
:1034000080E10E949E199091AB01882341F093FBCB
:10341000222720F981E0822780FB93F904C0892FBD
:10342000809580FB90F99093AB018091AB010E9455
:10343000141B0E94221B8093D20180EE0E949E19D1
:10344000882341F08091D201982F909590FB80F9CC
:103450008093D20189E30E949E19882359F08091BC
:10346000D20181FB222720F991E0922790FB81F97C
:103470008093D20182EE0E949E19882359F0809198
:10348000D20182FB222720F991E0922790FB82F95A
:103490008093D20186EE0E949E19882359F0809174
:1034A000D20183FB222720F991E0922790FB83F938
:1034B0008093D20183EE0E949E19882359F0809157
:1034C000D20184FB222720F991E0922790FB84F916
:1034D0008093D20185E30E949E19882359F0809140
:1034E000D20185FB222720F991E0922790FB85F9F4
:1034F0008093D20181E30E949E19882359F0809124
:10350000D20186FB222720F991E0922790FB86F9D1
:103510008093D20181E10E949E19882359F0809105
:10352000D20187FB222720F991E0922790FB87F9AF
:103530008093D2018091D2010E94261B8091D201FA
:1035400087FB882780F980930C0187E20E949E19EF
:10355000C82F8EE10E949E198111C2608FE10E94E6
:103560009E198111C46080E20E949E198111C86079
:1035700081E20E949E198111C06182E20E949E191F
:103580008111C06283E20E949E198111C06484E2AD
:103590000E949E19882311F0C06802C0CC2329F034
:1035A0008C2F0E941D1B6C2F03C00E94191B682FBB
:1035B00070E080E090E0CF910C949C14CF9108953E
:1035C0006DEE7EEF80E090E00E94AB2160E082E053
:1035D00090E00E949D2160E083E090E00E949D21A8
:1035E00060E084E090E00E949D2160E085E090E052
:1035F0000E949D2160E086E090E00C949D216FEF99
:103600007FEF80E090E00C94AB2180E090E00E949E
:10361000972121E08D3E9E4F09F020E0822F0895F2
:1036200082E090E00C948F21682F82E090E00C946F
:103630009D2183E090E00C948F21682F83E090E03F
:103640000C949D2184E090E00C948F21682F84E0FD
:1036500090E00C949D2186E090E00C948F21682FDF
:1036600086E090E00C949D210F931F93482F50E02B
:10367000FA013697E334F10508F0ACC0E059FF4F8A
:103680000C9475210E94101B0E94221B0E942B1B70
:103690004BC00E94F00A892B59F00E94F00A9093C7
:1036A000B2018093B1010E94951080E090E004C0C7
:1036B0008091B1019091B2010E94EB0A35C08091D6
:1036C000AB01817F8E7F8093AB0181E08093B3015A
:1036D00082C00E9495100FEF13ED20E301501040BF
:1036E0002040E1F700C000000E9441191DC09091E8
:1036F000AB01892F817090FF12C0917F9E7F9093C4
:10370000AB0169C08091AB0181FB222720F991E0D8
:10371000922790FB81F98093AB01992329F0809146
:10372000AB0181608093AB0181E055C08091AB011A
:1037300082FB222720F991E0922790FB82F9EBCFC0
:103740008091AB0183FB222720F991E0922790FB27
:1037500083F9E1CF0E94951090910C0181E08927B7
:1037600080930C01E1CF81E890E00E940C0B3FEFC9
:1037700081EE94E0315080409040E1F700C00000BD
:1037800080E090E00E940C0B0FEF19E628E1015059
:1037900010402040E1F700C00000C6CF61E070E0BB
:1037A00080E090E012C08D5101C0895341E050E0AB
:1037B00060E070E08A019B0104C0000F111F221F0E
:1037C000331F8A95D2F7C901B8010E949C140E9448
:1037D0009510AACF80E01F910F91089580E0089581
:1037E00080E00895CF93C82F8091B301882319F00A
:1037F000813049F031C0E0910D01F0910E018081DE
:10380000823261F507C0E0910D01F0910E018081D7
:10381000823261F48C2F0E94EE1B811104C08C2F28
:103820000E94341B17C081E090E014C08C2F0E94CE
:10383000F01B81110EC0C43149F018F4CB3049F0AF
:103840000FC0C93219F0C83321F00AC01092B30179
:1038500007C081E0817006C01092B30180E002C011
:1038600080E0F8CFCF910895E1E8F0E080818860B2
:1038700080838081816080838FB7F89493E09093F8
:10388000890090ED909388008FBF0C94F51FEFE6B0
:10389000F0E080818260808381E08093C7010C9496
:1038A0001020EFE6F0E080818D7F80831092C701C9
:1038B00080E00E94032081E00E9403208091C701E4
:1038C0000C941020E3ECF1E0808381830895E82FCD
:1038D000F0E0ED53FE4F2081422F50E08FEF90E05B
:1038E000861B9109841795071CF48FEF8083089538
:1038F000620F60830895CF93C82F682F80E00E94E5
:10390000671C6C2F81E0CF910C94671CE82FF0E0CE
:10391000ED53FE4F8081861710F410820895861BA8
:1039200080830895CF93C82F682F80E00E94861C63
:103930006C2F81E0CF910C94861C8091C701089573
:103940008091C20183608093C20108951092C201E8
:1039500008954091C10121E030E0662341F001C0AB
:10396000220F8A95EAF7242B2093C1010895B9010B
:1039700002C0660F771F8A95E2F7CB0180958423FA
:103980008093C1010895CF93C82F682F80E00E94D3
:10399000A91C6C2F81E0CF910C94A91C8093C001CD
:1039A0000895EEEBF1E08083818308958091BD015D
:1039B00083608093BD0108951092BD0108958093A6
:1039C000BB0108951F920F920FB60F921124EF9230
:1039D000FF920F931F932F933F934F935F936F9398
:1039E0007F938F939F93AF93BF93CF93DF93EF9387
:1039F000FF938091B7018F5F8093B70105EC11E0D1
:103A0000C0E0D0E0FC2E8091B70181110DC0F8011B
:103A10008081882319F08C2F0E94F61FFE01ED5340
:103A2000FE4F8081F8018083F80181918F01909190
:103A3000B701981303C08F2D0E940320219719F01E
:103A4000C1E0D0E0DFCF8091B6018F5F803418F401
:103A50008093B601ACC01092B601E090C201E110B3
:103A600005C09091BD0191113BC0A1C08091B501ED
:103A70008F5F8093B5019091C001981790F71092D5
:103A8000B5010EEB11E0C0E0D0E0F12CC7010C2E27
:103A900002C0969587950A94E2F780FF1AC0F80154
:103AA0008081882319F08150808313C08091C101E7
:103AB00090E00C2E02C0969587950A94E2F761E09B
:103AC00080FF04C08C2F0E94861C03C08C2F0E9494
:103AD000671C0F5F1F4F219721F2C1E0D0E0D6CFC6
:103AE0008091B4018F5F8093B4012091BB012817AE
:103AF00008F05DC01092B4012091B8013091BC0172
:103B0000A9EBB1E040E050E0C1E0D0E0692F70E007
:103B1000042E02C0769567950A94E2F760FF3AC0DA
:103B20008C91E82FF0E0EB5BFC4F0491BA016D53F0
:103B30007E4FFB010083622F70E0042E02C0769559
:103B400067950A94E2F760FF19C0811115C0BE01A4
:103B5000042E01C0660F0A94EAF760952623E32F2E
:103B6000F0E0042E02C0F695E7950A94E2F7E0FF34
:103B700011C0962336230EC081500BC08F3741F4FD
:103B8000BE01042E01C0660F0A94EAF7262B02C07C
:103B90008F5F8C9311964130510519F041E050E050
:103BA000B5CF9093BD012093B8013093BC01FF9134
:103BB000EF91DF91CF91BF91AF919F918F917F91C5
:103BC0006F915F914F913F912F911F910F91FF90B6
:103BD000EF900F900FBE0F901F9018950E94051B3D
:103BE000811102C00E94E01A0E942B1B8093E00109
:103BF00080FF02C0869501C080E00C9497038091FD
:103C0000E00180FF14C0982F9695292F30E02830CE
:103C1000310544F49F5F990F8170892B8093E001F7
:103C20000E942F1B8091E00186950C9497030895C4
:103C30008091E00180FF14C0982F9695292F30E0E5
:103C40002230310544F09158990F8170892B80936F
:103C5000E0010E942F1B8091E00186950C94970350
:103C600008958091E001982F9095917090FB80F9D4
:103C70008093E001992339F0982F9E7F21F4817081
:103C800082608093E0018091E0010E942F1B80916F
:103C9000E00180FF02C0869501C080E00C9497038C
:103CA0009091E001892F86958F5F8F779170893091
:103CB00028F4880F892B8093E00102C09093E001E3
:103CC0008091E0018E7F91E009F490E08091E00125
:103CD00090FB80F98093E0010E942F1B8091E0010E
:103CE00086950C949703880F9091E0019170892B31
:103CF0008093E0018E7F91E009F490E08091E001F3
:103D000090FB80F98093E0010E942F1B8091E001DD
:103D100086950C949703DF92EF92FF920F931F9377
:103D2000CF93DF930091CD010827611101C0C9F144
:103D3000C0E0D0E0E62EF82E10E0DC2E0E949D1CA4
:103D4000882359F02091C90130E00C2E02C036952D
:103D500027950A94E2F720FD1DC0E11009C0C801B3
:103D60000C2E02C0969587950A94E2F780FF12C048
:103D70002091C8012F2530E00C2E02C036952795E2
:103D80000A94E2F78D2D20FF03C00E941F0402C099
:103D90000E942804219719F0C1E0D0E0CECFF09224
:103DA000CD01DF91CF911F910F91FF90EF90DF90A8
:103DB00008950F931F93CF93DF93C0E0D0E001E00D
:103DC00010E08C2F0E94552094FF0BC08091C801F9
:103DD00098010C2E01C0220F0A94EAF7282B209399
:103DE000C80195FF0BC08091C90198010C2E01C03C
:103DF000220F0A94EAF7282B2093C9019F70892F7C
:103E000090E08230910589F083309105D1F08130C6
:103E1000910511F50C2E01C0880F0A94EAF79091D4
:103E2000CB01892B8093CB0117C02091CA01C80117
:103E30000C2E01C0880F0A94EAF7822B8093CA01E6
:103E40000BC02091CC01C8010C2E01C0880F0A9430
:103E5000EAF7822B8093CC01219719F0C1E0D0E0E2
:103E6000B0CF0E941A0461E080E0DF91CF911F91F2
:103E70000F910C948B1ECF93DF939091CC019923DB
:103E800069F1D82FC091CD0190FF0FC080E00E9452
:103E900055202D2F30E002C0359527958A95E2F701
:103EA00020FD02C0CE7F01C0C1608091CC0181FFA6
:103EB0000FC081E00E9455202D2F30E002C03595C3
:103EC00027958A95E2F720FD02C0CD7F01C0C26030
:103ED00060E08C2FDF91CF910C948B1EDF91CF91FE
:103EE0000895CF92DF92EF92FF92CF932091CB0172
:103EF000222399F16B017C01C091CD0120FF11C0FB
:103F000080E00E945520A701960104C05695479570
:103F1000379527958A95D2F720FD02C0CE7F01C044
:103F2000C1608091CB0181FF0FC081E00E945520CC
:103F300004C0F694E794D794C7948A95D2F7C0FC4E
:103F400002C0CD7F01C0C26060E08C2FCF91FF9096
:103F5000EF90DF90CF900C948B1ECF91FF90EF905D
:103F6000DF90CF900895CF92DF92EF92FF92CF93A0
:103F70002091CA01222399F16B017C01C091CD01EE
:103F800020FF11C080E00E945520A701960104C0C7
:103F900056954795379527958A95D2F720FD02C00B
:103FA000CE7F01C0C1608091CA0181FF0FC081E056
:103FB0000E94552004C0F694E794D794C7948A953C
:103FC000D2F7C0FC02C0CD7F01C0C26060E08C2F80
:103FD000CF91FF90EF90DF90CF900C948B1ECF91FC
:103FE000FF90EF90DF90CF90089508952091C90140
:103FF00030E0082E02C0369527950A94E2F720FD9E
:104000000C941F0408952091C90130E0082E02C0CD
:10401000369527950A94E2F720FD0C94280408951C
:10402000811105C061E08091CD010C948B1E089533
:1040300088E090E00E9497219093CF018093CE0179
:10404000019661F480E00E9411049093CF01809367
:10405000CE01BC0188E090E00E94AB218AE090E0B4
:104060000E9497219093D1018093D001019661F431
:1040700081E00E9411049093D1018093D001BC0192
:104080008AE090E00C94AB21089580E00E94110436
:10409000BC0188E090E00E94AB2181E00E94110405
:1040A000BC018AE090E00C94AB21E82FF0E0EE0F29
:1040B000FF1FE253FE4F808191810895CF92DF92DE
:1040C000EF92FF920F931F93CF9380E190E00E94B5
:1040D00097218C01C12CD12C2DEEE22E2EEFF22E49
:1040E0000E945402C82F0E945602C89FC00111248A
:1040F0009C0183E0220F331F8A95E1F7205C3F4F3C
:10410000C216D30680F4C60142960E948F21282F42
:1041100030E0C0FE02C0322F2227E20EF31E8FEFE6
:10412000C81AD80ADDCF81E00E151F0509F080E01E
:10413000CF911F910F91FF90EF90DF90CF90089556
:1041400090E0880F991F42960C94972190E0880F79
:10415000991F42960C94AB21EF92FF920F931F93FD
:10416000CF93DF9300D0CDB7DEB7082F4A836983A2
:104170000E945402089F800111240E945602809FD1
:104180007001819FF00C11240E94560269819701F1
:10419000689F200D311D1124C9014A81840F911D92
:1041A0008E5A9F4F0F900F90DF91CF911F910F91DB
:1041B000FF90EF900C948F218E5A9F4F0C949D216D
:1041C0008F929F92AF92BF92CF92DF92EF92FF9227
:1041D0000F931F93CF93DF930E9448026C010E94BC
:1041E00045027C01C114D10409F10E942E024C0148
:1041F000A12CB12C0DEE1EEFA814B90420F4F60189
:10420000C591D49102C0C0E0D0E0BE018A2D0E94C9
:10421000A6200C0F1D1F8FEFA81AB80A82E0C80E47
:10422000D11C80E2A816B10439F702C00DEE1EEFD2
:10423000E114F10471F10E942B026C01A12CB12C4C
:104240000E945402C82F0E945602C89FC001112428
:1042500023E0880F991F2A95E1F7A816B906C8F43C
:10426000AC14BD0428F4F701EA0DFB1DC49101C094
:10427000C0E06C2FC5010E94DC20EC2FF0E0A0FE16
:1042800002C0FE2FEE270E0F1F1F8FEFA81AB80ACD
:10429000D7CFB80180E190E0DF91CF911F910F91CE
:1042A000FF90EF90DF90CF90BF90AF909F908F9056
:1042B0000C94AB210E945E20811102C00C94E0207E
:1042C000089597FB072E16F4009407D077FD09D0C8
:1042D0000E947B2107FC05D03EF4909581959F4F6D
:1042E0000895709561957F4F0895EE0FFF1F05901B
:1042F000F491E02D0994AA1BBB1B51E107C0AA1F32
:10430000BB1FA617B70710F0A61BB70B881F991F76
:104310005A95A9F780959095BC01CD010895F9991A
:10432000FECF92BD81BDF89A992780B50895A8E186
:10433000B0E042E050E00C94B221262FF999FECF74
:104340001FBA92BD81BD20BD0FB6F894FA9AF99AB2
:104350000FBE019608950E949D21272F0C949E2147
:10436000DC01CB01FC01F999FECF06C0F2BDE1BD35
:10437000F89A319600B40D9241505040B8F7089524
:04438000F894FFCFDF
:104384000531049D04340469043504010196013F98
:0E43940036390603D002970243025C0275021E
:00000001FF
