:100000000C94F7010C943B020C943B020C943B02C1
:100010000C943B020C943B020C943B020C943B026C
:100020000C943B020C943B020C9491080C946309D1
:100030000C94EB180C943B020C943B020C943B0286
:100040000C943B020C94EF1C0C943B020C943B026E
:100050000C943B020C9429190C943B020C943B0227
:100060000C943B020C943B020C943B020C943B021C
:100070000C943B020C943B020C943B020C943B020C
:100080000C943B020C943B020C943B020C943B02FC
:100090000C943B020C943B020C943B020C943B02EC
:1000A0000C943B020C943B020C943B02D009F209E5
:1000B000E00AF209E00A370A5A0AE00AAF0AC20A5D
:1000C000720D720D9F0D9F0DF60D85108510851018
:1000D000300E85102D0F2D0FE80FFE0F85107110BB
:1000E0006C1B841B4F1BF71BF71BA11BF71BF71B7C
:1000F000A31BF71BAD1BB71BF71BF71BF71BF71B4E
:10010000A11BA11BF71BA11BF71B8F1BF71BF71BC9
:10011000E01BE01BE01BE01BE01BE01BE01BE01B07
:10012000E01BDB1BF71BDB1BF71BF71BF71BF71B8E
:10013000F71BF71BF71BF71BF71BF71BF71BDB1B4B
:10014000F71BF71BA11B561BE21BE21BE21BE21B6A
:10015000E21BE21BE21BE21BE21BE21BE21BE21BB7
:10016000C01BF71B761B016202620162026200F192
:10017000A100D100D200D0293A3B3C3D3E3F404156
:10018000424344454A4C351E1F2021222324252664
:10019000272D2E2A4B2B141A0815171C180C121376
:1001A0002F30314E39041607090A0B0D0E0F333468
:1001B000002849E1001D1B0619051110363738E5E6
:1001C00052C0E0E3E200002C00004D00E6E4505194
:1001D0004F010101010101010101010101010101C1
:1001E00001010101010101010101010101010101FF
:1001F0000152010101B20149014647480101015084
:10020000514F0101010101014A4B010101010001AE
:1002100065C1C2C3AAA9A84D4E0101010101010097
:100220000001000001010101010101001080FF0136
:100230002300200C0341004D004A00380034000028
:10024000001203480061006E002000430068006552
:10025000006E0000000403090409025400030100B9
:10026000A03209040000010301010009211101006D
:1002700001223F000705810308000A09040100016B
:100280000300000009211101000122360007058248
:100290000308000A090402000103000000092111FB
:1002A000010001223900070583031000011201102B
:1002B0000100000008EDFE68600100010200010578
:1002C000010906A101050719E029E7150025019597
:1002D0000875018102050819012905950575019127
:1002E000029501750391010507190029771500256D
:1002F00001957875018102C005010980A10185027F
:1003000016010026B7001A01002AB70075109501E2
:100310008100C0050C0901A1018503160100269C7E
:10032000021A01002A9C02751095018100C0050186
:100330000906A101050719E029E71500250195081F
:1003400075018102950175088101050819012905CA
:100350009505750191029501750391010507190035
:1003600029FF150025FF950675088100C0000000D3
:10037000000000000000000101010202020303046A
:100380000405050606070808090A0B0B0C0D0E0FDD
:1003900010111213151617191A1B1D1E20222325C2
:1003A00027292B2D2F313335383A3D3F4244474AD8
:1003B0004D505356595C5F6266696C7074777B7EF2
:1003C00082868A8E9195999DA1A5A9ADB0B4B8BC3D
:1003D000C0C3C7CBCED2D5D8DBDFE2E4E7EAECEF8F
:1003E000F1F3F5F7F8FAFBFCFDFEFFFFFF00112427
:1003F0001FBECFEFDAE0DEBFCDBF04B603FE24C0E0
:100400008091E7019091E801A091E901B091EA01A2
:100410008730904BA740B04BB9F41092E70110928F
:10042000E8011092E9011092EA0114BE84B7877FB7
:1004300084BF88E10FB6F89480936000109260004A
:100440000FBEE0E0F8E3099511E0A0E0B1E0EEE9CD
:10045000F3E402C005900D92AE31B107D9F711E077
:10046000AEE1B1E001C01D92A73EB107E1F70E94E5
:10047000D7050C94CD210C9400000895089584EBC9
:1004800090E0089584E090E00895611104C0FC01BB
:100490008281811103C080E090E0089586E691E0BA
:1004A0000895462F672F0C94B920805C0E94AD20E0
:1004B000089587E791E008958FE691E0089586E03A
:1004C00008958FE0089580E885BF85BF8AB18E7D4D
:1004D0008AB98BB18E7D8BB980B38F7080BB81B3AD
:1004E0008F7081BB80B38C7F80BB81B3836081BB05
:1004F0006E98769A8AB18D728AB98BB1826D8BB9FA
:1005000087B18F7387B988B1806C88B984B18474DE
:1005100084B985B18B6B85B9EAE2F1E0AEE1B1E077
:10052000119211921D921D9281E0E633F807C1F7F6
:1005300008950F931F93CF93AEE1B1E0FD0160E00A
:1005400071E0C5E0633099F028F4613051F0623019
:1005500059F004C0643071F0653079F0509A5898C1
:100560000EC0879A8F980BC0869A8E9808C0859A7D
:100570008D9805C0849A8C9802C0559A5D9880EA3F
:100580008A95F1F78FB186958727482F417050E003
:10059000789903C022E030E002C020E030E0C901D9
:1005A000842B952B669903C024E030E002C020E044
:1005B00030E08C01022B132B26B1332727FD309519
:1005C00020953095C9018827990F881F992733E016
:1005D000880F991F3A95E1F7802B912B369903C02C
:1005E00020E130E002C020E030E0822B932B18990C
:1005F00003C020E230E002C020E030E0282B392B9D
:100600004C9903C000E410E002C000E010E0022BAF
:10061000132B199903C020E830E002C020E030E03D
:10062000022B132B23B1332727FD309520953095CE
:10063000C9018827990F881F9927982F8827802B11
:10064000912B1D9903C020E032E002C020E030E091
:10065000822B932B1C9903C020E034E002C020E0E1
:1006600030E08C01022B132B29B1332727FD309565
:1006700020953095C9018827990F881F9927982FB1
:100680008827990F990F990F802B912B4E9903C0B2
:1006900020E030E102C020E030E0822B932B1B9958
:1006A00003C020E030E202C020E030E0822B932B38
:1006B000499903C020E030E402C020E030E0822B02
:1006C000932B208131812817390721F09183808372
:1006D000C09300018AB18E7D8AB98BB18E7D8BB9B2
:1006E00080B38F7080BB81B38F7081BB6F5F329698
:1006F000663009F027CF809100018823B1F0815046
:1007000080930001882339F08FE99FE00197F1F78A
:1007100000C000000AC0EAE2F1E08D919D91819352
:10072000919391E0AA32B907C1F781E0CF911F916F
:100730000F910895E82FF0E0EE0FFF1FE65DFE4FEA
:100740008081918108950895CF93C82F873090F4C8
:100750008430E0F4813090F10E94541C0E94B31C5C
:100760000E94E91CEC2FF0E0E55DFD4F8491CF91F4
:100770000C946F1C8730A9F0883001F50E94541C3E
:100780000E94AD1C0E94E91C81E012C00E94541C12
:100790000E94B31C0E94E31C86E08C1BCF910C943A
:1007A000EC1C0E94541C0E94AD1C0E94E91C80E0BD
:1007B0000E94D01C83E0CF910C94DB1C0E94B31CE0
:1007C0000E94E91CCF910C945E1CCF93DF9300D064
:1007D00000D01F92CDB7DEB78091E60180FF26C022
:1007E000869590E08730910519F0089781F01EC03A
:1007F0006623E1F080E40E94DE1C80E20F900F90FF
:100800000F900F900F90DF91CF910C949F1C662357
:1008100069F080E40E94DE1C80E20F900F900F9040
:100820000F900F90DF91CF910C94881C0F900F9038
:100830000F900F900F90DF91CF910895E82FF0E087
:10084000EE0FFF1FE15DFD4F859194910895229A6F
:100850002A9A269A2E980895882319F0813019F043
:1008600008952A9808952E9A0895882319F08130C2
:1008700019F008952A9A08952E98089580914601B6
:1008800008950895CF93DF9300D01F92CDB7DEB7C0
:100890002091DD01243021F523E029839B838A8385
:1008A00082E08093E9008FEF9091E800815095FD00
:1008B00006C095ED9A95F1F700008111F5CF809172
:1008C000E80085FF0DC040E050E063E070E0CE013D
:1008D00001960E9481068091E8008E778093E8005F
:1008E0000F900F900F90DF91CF910895CF93DF93EA
:1008F00000D01F92CDB7DEB79C018091DD0184301E
:1009000019F592E099833B832A839093E9008FEF56
:100910009091E800815095FD06C095ED9A95F1F70C
:1009200000008111F5CF8091E80085FF0DC040E007
:1009300050E063E070E0CE0101960E948106809154
:10094000E8008E778093E8000F900F900F90DF9172
:10095000CF910895CF93DF932091DD01243009F0EA
:1009600044C0EC0180910C018823C1F083E08093A6
:10097000E9008FEF9091E800815095FD06C095E168
:100980009A95F1F700008111F5CF8091E80085FF7D
:100990002CC040E050E060E170E017C081E080933F
:1009A000E9008FEF9091E800815095FD06C095ED2C
:1009B0009A95F1F700008111F5CF8091E80085FF4D
:1009C00014C040E050E068E070E0CE010E94810673
:1009D0008091E8008E778093E80080E1FE01A6E335
:1009E000B1E001900D928A95E1F7DF91CF910895E2
:1009F0008091DC01811109C00E9416080E947308D1
:100A00008091E20084608093E20008951092DC01FE
:100A1000089508950C943E020C94E718089542E05E
:100A200061EC81E00E94900742E061EC82E00E946C
:100A3000900742E161EC83E00C9490078091DF0124
:100A4000833009F455C030F4813071F0823009F4FC
:100A500095C008958A3009F481C08B3009F460C0D4
:100A6000893009F0A3C020C08091DE01813A09F0ED
:100A70009DC08091E800877F8093E8008091E2012B
:100A80009091E301892B21F460E186E391E003C0BA
:100A900060E080E090E070E00E94CC068091E80089
:100AA0008B778093E80008958091DE01813209F010
:100AB0007DC08091E2019091E301009719F00297C7
:100AC00009F074C08091E800877F8093E8008091EE
:100AD000E80082FD05C08091DD018111F8CF66C07C
:100AE0008091F100809346018091E8008B775AC095
:100AF0008091DE01813A09F059C08091E201909124
:100B0000E301892B09F052C08091E800877F809330
:100B1000E8008091E80080FFFCCF80910B013DC090
:100B20008091DE01813209F041C08091E201909113
:100B3000E301892BD9F58091E800877F8093E80055
:100B40000E94C5079091E00181E0911101C080E011
:100B500080930B0180930C010C94A2108091DE0114
:100B6000813221F58091E800877F8093E8000E9420
:100B7000C5078091E1018093470108958091DE01CE
:100B8000813AA1F48091E800877F8093E80080910A
:100B9000E80080FFFCCF809147018093F1008091B5
:100BA000E8008E778093E8000C94C507089584B719
:100BB000877F84BF88E10FB6F8948093600010921D
:100BC00060000FBE90E080E80FB6F894809361005B
:100BD000909361000FBE0E9416080E9473088091D6
:100BE000E20084608093E20078948091DD0184309B
:100BF000E1F70E94450B81E091E00E94F80A8091A4
:100C0000DD01853069F40E94AA188091DB018823F8
:100C1000B1F30E94D218882391F30E946B06EFCFA4
:100C20000E94550BECCF292F332723303105C9F013
:100C300064F42130310581F02230310509F043C0E0
:100C400084E590E029E532E042C021323105F1F03F
:100C50002232310541F137C082E190E02DEA32E0E5
:100C600036C099278130910541F08230910541F0DD
:100C7000892B49F5E5E5F2E005C0E1E4F2E002C0C8
:100C8000E3E3F2E0849190E09F0121C06330D8F467
:100C9000E62FF0E0EE0FFF1FE85EFE4F208131816E
:100CA00089E090E014C0633070F470E0FB01EE0F57
:100CB000FF1FEE5EFE4F20813181FB01E15FFE4FA1
:100CC000808190E004C080E090E020E030E0FA0114
:100CD00031832083089580E189BD82E189BD09B413
:100CE00000FEFDCF8091D8008F7D8093D800809149
:100CF000E00082608093E0008091E00081FDFCCF05
:100D00000895CF92DF92EF92FF920F931F93CF93AC
:100D1000DF93EC018B016A010E94E407811133C06B
:100D2000C114D10439F0F60180819181081B190B9F
:100D3000C80FD91FE12CF12C0115110519F1809173
:100D4000E80085FD16C08091E8008E778093E8006A
:100D5000C114D10449F0F60180819181E80EF91E99
:100D6000F182E08285E00FC00E94E407882321F32E
:100D70000AC089918093F10001501109FFEFEF1A29
:100D8000FF0ADACF80E0DF91CF911F910F91FF90A2
:100D9000EF90DF90CF9008952091E4013091E5012C
:100DA0002617370748F06115710539F42091E800DE
:100DB0002E772093E80001C0B90140E0611571056C
:100DC000A9F12091DD01222309F443C0253009F463
:100DD00042C02091E80023FD40C02091E80022FDA0
:100DE00032C02091E80020FFE9CF4091F30020912C
:100DF000F20030E0342BFC01CF016115710559F090
:100E00002830310540F481918093F10061507109DF
:100E10002F5F3F4FF1CF41E02830310509F040E02E
:100E20002091E8002E772093E800C8CF4111C9CF68
:100E30000AC08091DD01882361F0853061F08091E6
:100E4000E80083FD0AC08091E80082FFF2CF80E0D5
:100E5000089582E0089583E0089581E00895209147
:100E6000E4013091E5012617370748F06115710557
:100E700039F42091E8002E772093E80001C0B901F1
:100E8000FC0120E06115710591F18091DD0188235D
:100E900009F440C0853009F43FC08091E80083FD2B
:100EA0003DC08091E80082FD2FC08091E80080FF66
:100EB000E9CF2091F3008091F20090E0922B611530
:100EC000710559F08830910540F424912093F10088
:100ED0003196615071090196F2CF21E0089709F02F
:100EE00020E08091E8008E778093E800CBCF21113D
:100EF000CCCF0AC08091DD01882361F0853061F09C
:100F00008091E80083FD0AC08091E80082FFF2CF63
:100F100080E0089582E0089583E0089581E00895D7
:100F2000982F973058F59093E900981739F0709101
:100F3000EC002091ED005091F00003C0242F762F9B
:100F400050E021FF19C03091EB003E7F3093EB0061
:100F50003091ED003D7F3093ED003091EB0031603A
:100F60003093EB007093EC002093ED005093F00071
:100F70002091EE0027FF07C09F5FD3CF8F70809333
:100F8000E90081E0089580E008958091DE0187FF07
:100F900011C08091E80082FD05C08091DD018111C2
:100FA000F8CF11C08091E8008B770BC08091DD01F4
:100FB000882349F08091E80080FFF8CF8091E80015
:100FC0008E778093E80008952091E4003091E50049
:100FD00095E64091EC00842F817040FF22C0809103
:100FE000E80080FD1CC08091DD01882391F08530F0
:100FF00091F08091EB0085FD10C04091E40050918C
:10100000E5004217530729F39A01915011F784E044
:10101000089582E0089583E0089581E0089580E0D6
:1010200008954091E80042FFDECF08950E948408B1
:101030000E948C08E0EEF0E0808181608083E8ED22
:10104000F0E080818F77808319BCA7EDB0E08C91B0
:101050008E7F8C9380818F7E80831092DC01089537
:101060000F931F93CF93DF930E9484080E948C08F4
:10107000C8EDD0E088818F778883888180688883F5
:1010800088818F7D888319BC1092DD011092D9016F
:101090001092DB011092DA0100EE10E0F80180817D
:1010A0008B7F808388818160888342E060E080E07C
:1010B0000E949007E1EEF0E080818E7F8083E2EE77
:1010C000F0E0808181608083808188608083F80186
:1010D00080818E7F8083888180618883DF91CF913A
:1010E0001F910F910895E8EDF0E080818F7E80835D
:1010F000E7EDF0E080818160808384E082BF81E061
:101100008093DC010C943008E8EDF0E080818E7F64
:1011100080831092E20008951092DA001092E100AC
:1011200008951F920F920FB60F9211242F933F93A1
:101130004F935F936F937F938F939F93AF93BF93DF
:10114000EF93FF938091E10082FF0BC08091E2005A
:1011500082FF07C08091E1008B7F8093E1000E94B5
:101160000E058091DA0080FF1FC08091D80080FFBB
:101170001BC08091DA008E7F8093DA008091D900C5
:1011800080FF0DC080E189BD82E189BD09B400FE08
:10119000FDCF81E08093DD010E94F80405C019BCF9
:1011A0001092DD010E9406058091E10080FF19C0C8
:1011B0008091E20080FF15C08091E2008E7F8093D5
:1011C000E2008091E20080618093E2008091D8008B
:1011D00080628093D80019BC85E08093DD010E9475
:1011E0000A058091E10084FF30C08091E20084FF15
:1011F0002CC080E189BD82E189BD09B400FEFDCF2C
:101200008091D8008F7D8093D8008091E1008F7EFF
:101210008093E1008091E2008F7E8093E2008091D4
:10122000E20081608093E2008091D901882311F06F
:1012300084E007C08091E30087FD02C081E001C027
:1012400083E08093DD010E940C058091E10083FF23
:1012500029C08091E20083FF25C08091E100877F53
:101260008093E10082E08093DD011092D9018091AA
:10127000E1008E7F8093E1008091E2008E7F809379
:10128000E2008091E20080618093E20042E060E051
:1012900080E00E9490078091F00088608093F000C9
:1012A0000E940905FF91EF91BF91AF919F918F919E
:1012B0007F916F915F914F913F912F910F900FBE52
:1012C0000F901F9018951F920F920FB60F92112436
:1012D0002F933F934F935F936F937F938F939F933E
:1012E000AF93BF93CF93DF93EF93FF93C091E90048
:1012F000CF708091EC00D82FD17080FDD0E8109293
:10130000E9008091F000877F8093F00078940E943C
:10131000A7091092E9008091F00088608093F000A6
:10132000CD2BCF70C093E900FF91EF91DF91CF916A
:10133000BF91AF919F918F917F916F915F914F91ED
:101340003F912F910F900FBE0F901F9018951F93F4
:10135000CF93DF93CDB7DEB7AA970FB6F894DEBF71
:101360000FBECDBFEEEDF1E088E08E0F9091F10061
:1013700091938E13FBCF0E941E058091E80083FF9E
:101380001FC18091DE019091DF01492F50E04A306A
:10139000510508F015C1FA01EA5AFF4F0C94822159
:1013A000803881F0823809F00BC18091E2018F70A2
:1013B0008093E9008091EB0085FB882780F91092EB
:1013C000E90006C08091DA019091DB019111826001
:1013D0009091E800977F9093E8008093F10010923D
:1013E000F100C8C0282F2D7F09F0EAC0882319F02A
:1013F000823061F0E5C08091E001813009F0E0C009
:10140000933009F080E08093DB012BC08091E001F4
:10141000811127C08091E2018F7009F4D1C08093BF
:10142000E9002091EB0020FF1CC0933021F4809153
:10143000EB00806214C09091EB0090619093EB0000
:1014400021E030E0A90102C0440F551F8A95E2F760
:101450004093EA001092EA008091EB00886080934C
:10146000EB001092E9008091E800877F86C081112F
:10147000A7C01091E0011F778091E3008078812B55
:101480008093E3008091E800877F8093E8000E94CA
:10149000C5078091E80080FFFCCF8091E300806861
:1014A0008093E300111102C082E001C083E08093C9
:1014B000DD0186C08058823008F082C08091E00152
:1014C0009091E1018C3D53E0950779F583E08A83A3
:1014D0008AE289834FB7F894DE01139620E03EE05C
:1014E00051E2E32FF0E050935700E49120FF03C056
:1014F000E295EF703F5FEF708E2F90E0EA3010F0D2
:10150000C79601C0C0968D939D932F5F243149F7F4
:101510004FBF8091E800877F8093E8006AE270E027
:10152000CE0101960E94CC0614C0AE014F5F5F4F02
:101530006091E2010E941306BC01892B09F440C0AE
:101540009091E800977F9093E80089819A810E94AA
:101550002F078091E8008B778093E80031C08038B6
:1015600079F58091E800877F8093E8008091D90128
:101570008093F1008091E8008E778093E8000E94CC
:10158000C5071EC081111CC09091E0019230C0F4CB
:101590008091E800877F8093E8009093D9010E94B2
:1015A000C5078091D901811106C08091E30087FDB4
:1015B00002C081E001C084E08093DD010E940F053C
:1015C0008091E80083FF0AC08091E800877F8093C4
:1015D000E8008091EB0080628093EB00AA960FB642
:1015E000F894DEBF0FBECDBFDF91CF911F9108955C
:1015F00090934D0180934C01089580914C019091FE
:101600004D010895E0914C01F0914D01309721F08A
:101610000190F081E02D099480E00895E0914C0163
:10162000F0914D01309721F00280F381E02D099473
:10163000089520914A0130914B018217930771F070
:1016400090934B0180934A01E0914C01F0914D0140
:10165000309721F00680F781E02D099408952091BC
:101660004801309149018217930771F09093490125
:1016700080934801E0914C01F0914D01309721F0A9
:101680000084F185E02D099408950E9414190E94A8
:1016900063020E94B9190E9425200E94E61E0E9442
:1016A000411C0E94FB1D0C9467214F925F927F9218
:1016B0008F929F92AF92BF92CF92DF92EF92FF9262
:1016C0000F931F93CF93DF93CDB7DEB72A970FB653
:1016D000F894DEBF0FBECDBF0E9499029FE4C92ED1
:1016E00091E0D92E00E010E0AA24A394B12C702E32
:1016F000802F0E949A034C01F601419051906F0196
:101700004826592641145104B1F40F5F1F4F06308B
:10171000110569F78FEF89838A831B820E941D1947
:101720008160782F9D838C8349815A816B818D8163
:101730000E94EB103AC08091B10181FD0E94A30389
:1017400020E030E07501022E02C0EE0CFF1C0A946E
:10175000E2F7C70184219521892B09F12E837F822D
:101760008E209F2091E0892809F490E098870E94BC
:101770001D198160782F9A8789874E815F816885DE
:101780008A850E94EB10000F111FF801E15BFE4FEC
:1017900080819181E826F926F182E08206C02F5FE0
:1017A0003F4F2F30310571F6B0CF10914E010E949E
:1017B000020B1817D9F00E94020B80934E012A9653
:1017C0000FB6F894DEBF0FBECDBFDF91CF911F9152
:1017D0000F91FF90EF90DF90CF90BF90AF909F90D0
:1017E0008F907F905F904F900C94481F2A960FB671
:1017F000F894DEBF0FBECDBFDF91CF911F910F9147
:10180000FF90EF90DF90CF90BF90AF909F908F9020
:101810007F905F904F900895CF93882309F4C2C0C2
:10182000C82F823859F40E94020B81FDBBC089E3A6
:101830000E94DA150E94621789E30CC0833879F49C
:101840000E94020B80FDAEC083E50E94DA150E9463
:10185000621783E50E949F16CF910C94621784381B
:1018600059F40E94020B82FD9DC087E40E94DA15A4
:101870000E94621787E4EECF8CEF8C0F813A48F418
:101880008C2F0E94FF1B81118DC08C2F0E94DA15B6
:10189000E3CF80E28C0F883048F4C77081E001C04C
:1018A000880FCA95EAF70E943417D6CF8BE58C0FC4
:1018B000833078F4C53A29F0C63A31F083E890E0F5
:1018C00005C081E890E002C082E890E0CF910C94DE
:1018D000190B88E58C0F833108F064C0C83A39F1E0
:1018E000C93A41F1CA3A49F1CB3A51F1CC3A59F1EE
:1018F000CD3A61F1C03B69F1CE3A71F1CF3A79F15D
:10190000C13B81F1C23B89F1C33B91F1C43B99F1E9
:10191000C53BA1F1C63BA9F1C73BB1F1C83BB9F149
:10192000C93BC1F1CA3BC9F180E090E038C082EE0A
:1019300090E035C089EE90E032C08AEE90E02FC092
:1019400085EB90E02CC086EB90E029C087EB90E01F
:1019500026C08CEC90E023C08DEC90E020C083E8A2
:1019600091E01DC08AE891E01AC082E991E017C0B9
:1019700084E991E014C081E292E011C083E292E038
:101980000EC084E292E00BC085E292E008C086E2DD
:1019900092E005C087E292E002C08AE292E0CF9135
:1019A0000C942F0BCF910895882309F44BC08238F3
:1019B00059F40E94020B81FF45C089E30E94DA15A9
:1019C0000E94621789E30CC0833871F40E94020BF5
:1019D00080FF38C083E50E94DA150E94621783E514
:1019E0000E949F160C946217843859F40E94020BCF
:1019F00082FF28C087E40E94DA150E94621787E4FC
:101A0000EFCF9CEF980F913A58F390E2980F9830EF
:101A100050F4877091E001C0990F8A95EAF7892FF9
:101A20000E943A17DFCF9BE5980F933020F480E0B7
:101A300090E00C94190B885A833120F480E090E0F8
:101A40000C942F0B0895882321F00E9434170C94D6
:101A500062170895882321F00E943A170C946217A8
:101A60000895CF92DF92EF92FF920F931F93CF933F
:101A7000DF93CDB7DEB727970FB6F894DEBF0FBE62
:101A8000CDBF25E0FC01DE01119601900D922A9553
:101A9000E1F7FC01408131810281258122952F707F
:101AA00063817481672B09F430C33F3F19F44F3FC2
:101AB00009F42BC37C0149833A8389819A812F835E
:101AC0000E949915182F9E830E9498150E94A814B1
:101AD0009E81E92FE295EF70F0E0E05AFF4F2F81F1
:101AE0000C948221892F807F9F70F92E882319F012
:101AF000F29480EFF822002349F0FF2009F443C25A
:101B00008F2D0E9444170E9462173DC2812F0E94B0
:101B1000D40CFF2009F4F9C28F2D0E944A17279692
:101B20000FB6F894DEBF0FBECDBFDF91CF911F91EE
:101B30000F91FF90EF90DF90CF900C946217892F58
:101B4000807F9F70803211F4892F03C0892F829586
:101B5000807F112319F0113009F12AC00023A1F070
:101B6000222381F1213071F527960FB6F894DEBF5C
:101B70000FBECDBFDF91CF911F910F91FF90EF90DE
:101B8000DF90CF900C945417222319F0213009F4E0
:101B9000BCC28E830E9457178E8179C1002321F029
:101BA000263008F0B2C20EC0253008F0AEC26FC1B8
:101BB0000023C1F0222331F0F701958190FFE3C1AA
:101BC0009F70958327960FB6F894DEBF0FBECDBFEA
:101BD000DF91CF911F910F91FF90EF90DF90CF9009
:101BE0000C94230D222309F452C1E1C1292F26951B
:101BF0002695237030E02115310521F02130310583
:101C0000C1F083C2002319F0812F937002C080E0DD
:101C100090E027960FB6F894DEBF0FBECDBFDF91E0
:101C2000CF911F910F91FF90EF90DF90CF900C9488
:101C3000190B002319F0812F937002C080E090E00F
:101C400027960FB6F894DEBF0FBECDBFDF91CF91C0
:101C50001F910F91FF90EF90DF90CF900C942F0B7E
:101C6000892F837009F079C001114FC2812F8295AD
:101C700086958770880F880F212F2F70C22ED12C48
:101C8000E12CF12C082E04C0CC0CDD1CEE1CFF1C3A
:101C90000A94D2F714FF12C04FE050E060E070E009
:101CA00004C0440F551F661F771F8A95D2F78A011B
:101CB0009B01009510952095309503C000E010E041
:101CC0009801969596959370492F50E0C901B801F7
:101CD00042305105D1F04330510559F16C297D292D
:101CE0008E299F294130510541F127960FB6F8946E
:101CF000DEBF0FBECDBFDF91CF911F910F91FF903F
:101D0000EF90DF90CF900C94BD146C297D298E2923
:101D10009F2927960FB6F894DEBF0FBECDBFDF9187
:101D2000CF911F910F91FF90EF90DF90CF900C9487
:101D3000CF140E94BD14C701B60127960FB6F894C0
:101D4000DEBF0FBECDBFDF91CF911F910F91FF90EE
:101D5000EF90DF90CF900C94AB14002319F0892FF3
:101D6000817001C08695882309F4CFC1812F8295A7
:101D700086958770880F880F212F2F70C22ED12C47
:101D8000E12CF12C082E04C0CC0CDD1CEE1CFF1C39
:101D90000A94D2F714FF12C04FE050E060E070E008
:101DA00004C0440F551F661F771F8A95D2F78A011A
:101DB0009B01009510952095309503C000E010E040
:101DC0009801969596959370492F50E0C901B801F6
:101DD00042305105D1F04330510559F16C297D292C
:101DE0008E299F294130510541F127960FB6F8946D
:101DF000DEBF0FBECDBFDF91CF911F910F91FF903E
:101E0000EF90DF90CF900C9474156C297D298E296A
:101E10009F2927960FB6F894DEBF0FBECDBFDF9186
:101E2000CF911F910F91FF90EF90DF90CF900C9486
:101E300086150E947415C701B60127960FB6F8944F
:101E4000DEBF0FBECDBFDF91CF911F910F91FF90ED
:101E5000EF90DF90CF900C946215103F41F118F491
:101E6000103E48F48BC0123F09F450C0D8F1133F24
:101E700009F460C083C01F70892F8F71002321F087
:101E80000E94FB14812F9ECE0E941C15812F279645
:101E90000FB6F894DEBF0FBECDBFDF91CF911F917B
:101EA0000F91FF90EF90DF90CF900C942A0D0023BC
:101EB000A9F0253008F029C1892F8F7127960FB618
:101EC000F894DEBF0FBECDBFDF91CF911F910F9170
:101ED000FF90EF90DF90CF900C944115263008F0E2
:101EE00014C1EACF0023A1F0892F8F7127960FB676
:101EF000F894DEBF0FBECDBFDF91CF911F910F9140
:101F0000FF90EF90DF90CF900C94FB14002361F3CF
:101F1000892F8F7127960FB6F894DEBF0FBECDBF05
:101F2000DF91CF911F910F91FF90EF90DF90CF90B5
:101F30000C941C15002391F0892F8F7127960FB6F2
:101F4000F894DEBF0FBECDBFDF91CF911F910F91EF
:101F5000FF90EF90DF90CF900C94E61427960FB689
:101F6000F894DEBF0FBECDBFDF91CF911F910F91CF
:101F7000FF90EF90DF90CF900C94E1140023A1F03C
:101F8000222309F4B1CF812F27960FB6F894DEBF34
:101F90000FBECDBFDF91CF911F910F91FF90EF90BA
:101FA000DF90CF900C940C0C222309F4B1CF812F39
:101FB00027960FB6F894DEBF0FBECDBFDF91CF914D
:101FC0001F910F91FF90EF90DF90CF900C94D40C65
:101FD000492F4F70612FC7010E94450227960FB607
:101FE000F894DEBF0FBECDBFDF91CF911F910F914F
:101FF000FF90EF90DF90CF900C941514011185C0E5
:10200000112341F0892F8F70843021F0907F212F90
:102010002F70922B9F70492F50E04230510509F4E8
:1020200040C0BCF44115510561F14130510509F042
:102030006CC027960FB6F894DEBF0FBECDBFDF9100
:10204000CF911F910F91FF90EF90DF90CF900C9464
:10205000251E43305105A9F14430510509F055C002
:10206000812F27960FB6F894DEBF0FBECDBFDF914C
:10207000CF911F910F91FF90EF90DF90CF900C9434
:10208000801E27960FB6F894DEBF0FBECDBFDF913E
:10209000CF911F910F91FF90EF90DF90CF900C9414
:1020A0000C1E27960FB6F894DEBF0FBECDBFDF9192
:1020B000CF911F910F91FF90EF90DF90CF900C94F4
:1020C0003E1E27960FB6F894DEBF0FBECDBFDF9140
:1020D000CF911F910F91FF90EF90DF90CF900C94D4
:1020E0005D1E492F4F70612FC70127960FB6F894D8
:1020F000DEBF0FBECDBFDF91CF911F910F91FF903B
:10210000EF90DF90CF900C94A91827960FB6F89413
:10211000DEBF0FBECDBFDF91CF911F910F91FF901A
:10212000EF90DF90CF9008950E9451170E942617DC
:102130000E94621780E090E00E94190B80E090E01E
:102140000C942F0B0E9441170C9494100E94991527
:10215000292F22952F7030E02C3031054CF42A3095
:1021600031056CF4225031092230310588F407C062
:102170002C30310549F02F30310531F009C0803E57
:1021800048F0803F29F406C093FB882780F9089522
:1021900080E0089581E00895CF93DF9300D000D0D0
:1021A0001F92CDB7DEB70F900F900F900F900F904A
:1021B000DF91CF910895CF93DF9300D000D000D06E
:1021C000CDB7DEB726960FB6F894DEBF0FBECDBFF3
:1021D000DF91CF910895CF93DF93CDB7DEB72B97E3
:1021E0000FB6F894DEBF0FBECDBF4F835887698707
:1021F0007A878B87DE01119686E0FD0111928A9520
:10220000E9F785E0FE01379601900D928A95E1F796
:102210004F81588569857A858B850E94E5034981C0
:102220005A816B817C818D819E810E9471132B96D6
:102230000FB6F894DEBF0FBECDBFDF91CF910895EA
:102240001F93CF93DF93C0915B0116E080915C01F7
:10225000C81799F0D0E01C9FF0011D9FF00D1124CC
:10226000E35AFE4F4081518162817381848195815F
:102270000E94DB102196C770E9CFDF91CF911F91AB
:10228000089540918D0150918E0160918F01709160
:10229000900180919101909192010C94DB108091BA
:1022A000920182958F7009F054C080918F0188232C
:1022B00009F44FC080915B01A0915C0160918D0198
:1022C00070918E014091900150919101B6E08A1772
:1022D00009F43FC090E041155105C1F17F3F11F471
:1022E0006F3FA1F1B89FF001B99FF00D1124E35A9F
:1022F000FE4F218172132AC02081621327C02281E0
:10230000211124C0238134812417350710F4215072
:102310003109241B350B283C3105C0F42091920172
:102320002F7020612093920126E0289FF001299FC1
:10233000F00D1124EE59FE4F80818F7080618083F3
:102340008DE891E00E94310D0C9420110196877068
:10235000BECF0895CF92DF92EF92FF920F931F931B
:10236000CF93DF93CDB7DEB762970FB6F894DEBF99
:102370000FBECDBF8C0185E0F801DE011D960190F6
:102380000D928A95E1F7D8014C9111965C911197C5
:1023900012966C9112971396CD90DC901497309111
:1023A0008D0170918E018091900190919101009723
:1023B00009F46BC17F3F19F43F3F09F466C1E09017
:1023C0008F01EE2009F4C0C020919201C816D906F1
:1023D00028F0F601E81BF90BCF0104C08095909519
:1023E0008C0D9D1DFF24F394883C910578F0F12C11
:1023F000207F09F0C6C07C2DD98AC88A89890E94AD
:10240000CC108DE891E00E94310DB1C0822F807F09
:1024100009F046C0751314C0341312C0611110C006
:102420002F702061209392010E9441118DE891E06C
:102430000E94310D80919201D80115968C932EC087
:10244000CD2819F15F3F11F44F3FF9F0F62E6111DD
:102450001CC080915B0120915C0136E0821709F479
:102460005AC090E0389FF001399FF00D1124E35AD3
:10247000FE4F7181571306C07081471303C07281EC
:10248000711103C001968770E9CFF62E662309F417
:1024900018C180919201816080939201F12C11C149
:1024A000751308C0341306C0611104C080919201F5
:1024B000D801C3C04D875E878D859E856A8B0E943B
:1024C000A6106A898823E1F16623D1F12091920157
:1024D000822F82958F7090E0029774F080918D0129
:1024E00090918E0198878F831986DB86CA862C8708
:1024F000CE0107960E94310D86E0F801ADE8B1E00B
:1025000001900D928A95E1F70E944F110E944111AE
:10251000FF24F394D6C04D875E878D859E850E94EB
:102520009915292F22952F7030E0223031050CF0BB
:10253000BCC09F7009F0B6C0805E883008F4C1C08E
:10254000C8010E94310DE4CFC816D90608F453C063
:10255000F601E81BF90BCF01883C910508F450C047
:10256000F12C7C2DD98AC88A89890E94CC10EDE88B
:10257000F1E086E0DF011D928A95E9F70E944111A2
:10258000A0C0751314C0341312C0611110C0809123
:102590009201F8018583C8010E94310D86E0EDE8C3
:1025A000F1E0DF011D928A95E9F7FE2C8AC04D8784
:1025B0005E878D859E856A8B0E94A6106A89882316
:1025C00009F4BECF662309F4BBCF20919201822F7C
:1025D00082958F7090E002970CF48ECF80918D01E0
:1025E00090918E019A8389831B82DD82CC822E8317
:1025F000CE0101967FCF809590958C0D9D1DACCF1F
:10260000F62E662309F49CCF75132EC034132CC00C
:102610002091920120FD1FC0822F82958F70D9F0EA
:10262000D80115962C9315978F3049F08F5F982F0E
:102630009295907F822F8F70892B15968C93C8016D
:102640000E94310D86E0F801ADE8B1E001900D92F5
:102650008A95E1F793CF86E0F801ADE8B1E001900B
:102660000D928A95E1F72DC04D875E878D859E85F9
:102670000E94A610811140CF8091920181608093C9
:102680009201C8010E94310D1CC0662309F458CF85
:102690004D875E878D859E850E94A610882309F44C
:1026A0004FCF2ACF811148CF0CC0243031050CF018
:1026B00047CF9F7009F440CFF8019581907F09F0D2
:1026C0003BCF8F2D62960FB6F894DEBF0FBECDBF05
:1026D000DF91CF911F910F91FF90EF90DF90CF90FE
:1026E00008951F93CF93DF93CDB7DEB72C970FB626
:1026F000F894DEBF0FBECDBF4F83588769877A87B6
:102700008B879C87CE0107960E94AA11882369F0C7
:102710008F8198852A853B85232BF1F19F3F09F016
:1027200063C08F3F09F060C037C086E0FE01379676
:10273000DE01119601900D928A95E1F76F817885FF
:10274000EA85FB85309741F17F3F11F46F3F21F11E
:1027500020915C0130E0C901019687709927409172
:102760005B0150E08417950709F447C069837A83B9
:10277000FD83EC8396E0929FD001939FB00D1124CE
:10278000A35ABE4FFE01319601900D929A95E1F742
:1027900080935C010E94201116E080915B01909172
:1027A0005C018917C1F1189FC0011124835A9E4F03
:1027B0000E94AA11882379F1E0915B011E9FF0012C
:1027C0001124E35AFE4F40815181628173818481DB
:1027D00095810E94DB1080915B0190E001968770EB
:1027E000992780935B01D9CF4F81588569857A8578
:1027F0008B859C850E94DB10CFCF0E94A210109287
:102800005C0110925B01EDE8F1E086E0DF011D92D2
:102810008A95E9F7C1CF2C960FB6F894DEBF0FBEAC
:10282000CDBFDF91CF911F910895EF92FF920F934B
:102830001F93CF93DF938C01892B09F46AC0F12C8D
:10284000EE24E394E8012196F8018491843740F462
:10285000843008F04FC0813081F0823019F159C0C6
:10286000853709F442C098F19CE7980F903708F03B
:1028700050C08F770E94D40C3FC00E5F1F4FFE01E7
:10288000C49180E28C0F883048F4C7708E2D01C04F
:10289000880FCA95EAF70E9444172FC08C2F0E9418
:1028A0000C0C2BC00E5F1F4FFE01C49180E28C0FF9
:1028B000883048F4C7708E2D01C0880FCA95EAF79A
:1028C0000E944A171AC08C2F0E94D40C16C00E5FAB
:1028D0001F4FFE01C491CC2381F08FE99FE0019747
:1028E000F1F700C00000C150F6CF0E5F1F4FFE0190
:1028F000F49003C00E940C0C8E018F2D882309F4E4
:10290000A1CFEFE9FFE03197F1F700C0000081505F
:10291000F5CFDF91CF911F910F91FF90EF90089528
:1029200060939701709398018093990190939A0115
:102930000E947E1F0C9494106093930170939401F5
:1029400080939501909396010E94C01F0C9494105F
:1029500008950C9490140F931F9300919701109178
:1029600098012091990130919A01602B712B822B53
:10297000932B1F910F910C9490140F931F93009120
:102980009701109198012091990130919A0160234B
:102990007123822393231F910F910C9490140F9312
:1029A0001F93009197011091980120919901309106
:1029B0009A0160277127822793271F910F910C940A
:1029C000901460E070E0CB010C949C140F931F9363
:1029D00041E050E060E070E08A019B0104C0000F1C
:1029E000111F221F331F8A95D2F7C901B8011F9109
:1029F0000F910C949C140F931F9341E050E060E002
:102A000070E004C0440F551F661F771F8A95D2F7E8
:102A10008091930190919401A0919501B0919601BC
:102A20008A019B01082B192B2A2B3B2BC901B801CA
:102A30001F910F910C949C140F931F9341E050E051
:102A400060E070E004C0440F551F661F771F8A9531
:102A5000D2F7409550956095709580919301909133
:102A60009401A0919501B09196018A019B010823E0
:102A700019232A233B23C901B8011F910F910C94FC
:102A80009C140F931F9341E050E060E070E004C09D
:102A9000440F551F661F771F8A95D2F780919301C7
:102AA00090919401A0919501B09196018A019B01AA
:102AB000082719272A273B27C901B8011F910F9121
:102AC0000C949C140F931F93009193011091940107
:102AD0002091950130919601602B712B822B932BC5
:102AE0001F910F910C949C140F931F9300919301CD
:102AF00010919401209195013091960160237123EA
:102B0000822393231F910F910C949C140F931F9376
:102B100000919301109194012091950130919601BB
:102B200060277127822793271F910F910C949C1483
:102B30000895CF92DF92EF92FF920F931F93CF935E
:102B4000DF938C01C0909701D0909801E09099019B
:102B5000F0909A01409193015091940160919501F8
:102B600070919601C42AD52AE62AF72ACFE1D0E04F
:102B7000D701C6010C2E04C0B695A79597958795E9
:102B80000A94D2F780FF07C0B8018C2F0E94361834
:102B90008130910531F4219758F7B80180E00E9407
:102BA0003618DF91CF911F910F91FF90EF90DF903A
:102BB000CF900895CF92DF92EF92FF920F931F93E1
:102BC000CF93DF93C82F80910C018823C1F08C2F05
:102BD0008695869586958F3008F0A8C0E0910D0106
:102BE000F0910E01E80FF11DC77081E090E001C087
:102BF000880FCA95EAF79181892B818397C0D0907D
:102C0000AE013091AC01E0910D01F0910E01332342
:102C100009F477C04091AD018D2D2FEF96E0E92E9C
:102C2000F12C082F112707FD1095BF01600F711FB0
:102C3000DB0112969C919C1709F478C02F3F19F480
:102C4000911101C0282FC801019606E010E0B701DC
:102C50000E946E218413E5CFD22F4D1152C02F3F19
:102C600071F4842F992787FD90950196B8010E94F1
:102C70006E218093AE0131503093AC0142C0822F5F
:102C8000992787FD90950196B8010E946E21282F03
:102C9000FF24F39406E010E0332727FD30956F0101
:102CA000C20ED31ED60112965C91552399F08D2F3A
:102CB000992787FD9095BF01680F791FDB01129658
:102CC0005C93D60112961C920196B8010E946E2167
:102CD000D82F01C0F394C9010196B8010E946E215A
:102CE000282F8413D9CF242F332727FD30952F1970
:102CF0003109C901069666E070E00E946E2180935A
:102D0000AD012091AD01332727FD3095E20FF31F70
:102D1000C283C901019666E070E00E946E21809333
:102D2000AD018091AC018F5F8093AC01DF91CF91B9
:102D30001F910F91FF90EF90DF90CF900895EF9249
:102D4000FF920F931F93CF93C82F80910C0188237C
:102D5000C9F08C2F8695869586958F3008F070C0C7
:102D6000E0910D01F0910E01E80FF11DC77081E0B7
:102D700090E001C0880FCA95EAF780959181892378
:102D800081835EC02091AE014091AC01442309F4DF
:102D900057C0E0910D01F0910E010091AD01112796
:102DA00007FD109586E0E82EF12C30E0DF01A20F40
:102DB000B31FCD01029612965C915C1337C0DC0103
:102DC0001C9241504093AC01411104C01092AE01DD
:102DD0001092AD014091AD01842F992787FD909508
:102DE000059666E070E00E946E212817390741F5CC
:102DF000C091AE0106E010E0842F992787FD9095E1
:102E00000596B8010E946E219C01482F0596B801D5
:102E10000E946E21DF01A80FB91F12968C918111BB
:102E200002C02C13E9CF2093AD010AC0C90101965D
:102E3000B7010E946E21282F8017910709F0B5CFA6
:102E4000CF911F910F91FF90EF90089581E090E056
:102E5000E0910D01F0910E01E80FF91F108201962B
:102E600080319105A9F708959091B001892B809345
:102E7000B001089580959091B00189238093B001AD
:102E800008951092B00108959091AF01892B80931D
:102E9000AF01089580959091AF0189238093AF0190
:102EA00008951092AF01089580939B0108951092A8
:102EB0009B01089580910C01811103C08091AC01A8
:102EC00008950895E0910D01F0910E018091B001F7
:102ED0008083E0910D01F0910E0190818091AF010E
:102EE000892B808380919B01882361F0E0910D0103
:102EF000F0910E019081892B80830E945A178111D5
:102F000010929B0180910D0190910E010C940E0B7B
:102F10008D3B50F4883AE8F4853A90F4843070F4AC
:102F2000813009F45BC007C0803E28F0883E30F055
:102F3000803F08F050C080E090E0089590E0089550
:102F4000853A09F44EC0863A09F44EC083E890E40D
:102F50000895883A09F44BC0893A09F44BC08A3A7B
:102F600009F44BC08B3A09F44BC08C3A09F44BC0BE
:102F70008B3B09F44BC08C3B09F44BC08D3A09F4F0
:102F80004BC0803B09F44BC08E3A09F44BC08F3ADA
:102F900009F44BC0813B09F44BC0823B09F44BC0A0
:102FA000833B09F44BC0843B09F44BC0853B09F4D7
:102FB0004BC0863B09F44BC0873B09F44BC0883BB0
:102FC00009F44BC0893B09F44BC08A3B09F44BC060
:102FD00080E094E4089590E09065089581E090E0A9
:102FE000089581E890E4089582E890E4089582EEDF
:102FF00094E4089589EE94E408958AEE94E40895A3
:1030000085EB94E4089586EB94E4089583EB94E4CF
:10301000089584EB94E4089587EB94E408958CEC90
:1030200094E408958DEC94E4089583E895E408957C
:103030008AE895E4089582E995E4089584E995E4A1
:10304000089581E296E4089583E296E4089584E287
:1030500096E4089585E296E4089586E296E408955C
:1030600087E296E408958AE296E408950E94510268
:10307000803EA8F4803C00F5813309F45CC038F44C
:10308000893209F452C08A3209F45BC05FC08933C7
:10309000B1F08238A1F0853309F441C057C0833EB6
:1030A00041F128F4803E99F0823EB9F04FC0863E4F
:1030B00031F1873E71F14AC00E9455020895909106
:1030C000D80190FD02C091FF41C080EE3FC08091C9
:1030D000D80180FFFACF89E339C08091D80182FFFF
:1030E0000CC08091D80184FF02C080E02FC083EE25
:1030F0002DC08091D80182FFF4CF82EE27C080914D
:10310000D80183FF0AC08091D80184FDEECF87EEFD
:103110001DC08091D80183FFF6CF86EE17C0809145
:10312000D80185FF06C089E211C08091D80185FFD2
:10313000FACF85E30BC08091D80186FF06C08AE2F2
:1031400005C08091D80186FFFACF81E30E948817DD
:10315000089508958091DD01843019F11092B20133
:1031600020E488E190E00FB6F894A8958093600081
:103170000FBE209360000E945E1C83B7817F846035
:1031800083BF83B7816083BF7894889583B78E7F30
:1031900083BF88E10FB6F8948093600010926000BE
:1031A0000FBE0895CF930E943D020E9499020E9493
:1031B0003E02C0E08C2F0E949A03892B29F4CF5F36
:1031C000C630C1F780E001C081E0CF9108950E9430
:1031D000A2100C94FB1D1F920F920FB60F92112498
:1031E0008F939F93AF93BF938091B201811113C0CE
:1031F0008091B3019091B401A091B501B091B60155
:103200004196A11DB11D8093B3019093B401A09389
:10321000B501B093B601BF91AF919F918F910F907F
:103220000FBE0F901F90189582E084BD93E095BD6E
:103230009AEF97BD80936E0008952FB7F894809110
:10324000B3019091B401A091B501B091B6012FBF27
:1032500008951F920F920FB60F9211248F939F9390
:10326000AF93BF938091B3019091B401A091B50148
:10327000B091B6010196A11DB11D8093B301909349
:10328000B401A093B501B093B601BF91AF919F91E6
:103290008F910F900FBE0F901F9018950E941608E7
:1032A000F8942FEF87EA91E6215080409040E1F7B3
:1032B00000C0000087E090EBDC018093E701909371
:1032C000E801A093E901B093EA012CE088E190E0E5
:1032D0000FB6F894A895809360000FBE209360000D
:1032E000FFCFCF92DF92EF92FF920F931F93CF9376
:1032F000DF93D82FC0E0EE24E394F12C8C2F0E94B2
:103300009A036C0100E010E09701002E02C0220F2A
:10331000331F0A94E2F72C213D21232B31F40F5F58
:103320001F4F0F30110581F709C0602F7C2F80E0FF
:103330000E945102D813F3CF81E004C0CF5FC630A2
:10334000E9F680E0DF91CF911F910F91FF90EF9010
:10335000DF90CF900895CF93C82F8CE20E9471190F
:10336000882321F08C2FCF910C94711980E0CF919C
:103370000895CF930E94121B811102C00E94ED1A82
:10338000C5E6C15049F00E9499028FE39CE901977C
:10339000F1F700C00000F5CF89E20E94AB1981115E
:1033A0001AC18AE20E94AB19882341F00E940C1BCB
:1033B0000E94ED1A0E94ED200E94522085E00E949A
:1033C000AB1981110E944E190E941D1B8093B101FF
:1033D00087E00E94AB198823A9F18BE10E94AB1909
:1033E000882351F08091B10181FB222720F991E0DF
:1033F000922790FB81F90EC08EE00E94AB198823C2
:1034000061F08091B10182FB222720F991E092279F
:1034100090FB82F98093B10115C080E10E94AB1945
:103420009091B101882341F093FB222720F981E09C
:10343000822780FB93F904C0892F809580FB90F947
:103440009093B1018091B1010E94211B0E942F1B1A
:103450008093D80180EE0E94AB19882341F08091BF
:10346000D801982F909590FB80F98093D80189E33B
:103470000E94AB19882359F08091D80181FB222743
:1034800020F991E0922790FB81F98093D80182EE98
:103490000E94AB19882359F08091D80182FB222722
:1034A00020F991E0922790FB82F98093D80186EE73
:1034B0000E94AB19882359F08091D80183FB222701
:1034C00020F991E0922790FB83F98093D80183EE55
:1034D0000E94AB19882359F08091D80184FB2227E0
:1034E00020F991E0922790FB84F98093D80185E33D
:1034F0000E94AB19882359F08091D80185FB2227BF
:1035000020F991E0922790FB85F98093D80181E31F
:103510000E94AB19882359F08091D80186FB22279D
:1035200020F991E0922790FB86F98093D80181E100
:103530000E94AB19882359F08091D80187FB22277C
:1035400020F991E0922790FB87F98093D801809130
:10355000D8010E94331B8091D80187FB882780F90E
:1035600080930C0187E20E94AB19C82F8EE10E9464
:10357000AB198111C2608FE10E94AB198111C46047
:1035800080E20E94AB198111C86081E20E94AB19F0
:103590008111C06182E20E94AB198111C06283E295
:1035A0000E94AB198111C06484E20E94AB19882388
:1035B00011F0C06802C0CC2329F08C2F0E942A1B76
:1035C0006C2F03C00E94261B682F70E080E090E003
:1035D000CF910C94A914CF9108956DEE7EEF80E009
:1035E00090E00E94B82160E082E090E00E94AA2171
:1035F00060E083E090E00E94AA2160E084E090E037
:103600000E94AA2160E085E090E00E94AA2160E08B
:1036100086E090E00C94AA216FEF7FEF80E090E0CD
:103620000C94B82180E090E00E94A42121E08D3E1E
:103630009E4F09F020E0822F089582E090E00C94E4
:103640009C21682F82E090E00C94AA2183E090E016
:103650000C949C21682F83E090E00C94AA2184E0D4
:1036600090E00C949C21682F84E090E00C94AA21B7
:1036700086E090E00C949C21682F86E090E00C940A
:10368000AA210F931F93482F50E0FA013697E33495
:10369000F10508F0ACC0E059FF4F0C9482210E9464
:1036A0001D1B0E942F1B0E94381B4BC00E94FD0A4D
:1036B000892B59F00E94FD0A9093B8018093B701BD
:1036C0000E94A21080E090E004C08091B701909128
:1036D000B8010E94F80A35C08091B101817F8E7FC8
:1036E0008093B10181E08093B90182C00E94A21051
:1036F0000FEF13ED20E3015010402040E1F700C030
:1037000000000E944E191DC09091B101892F817057
:1037100090FF12C0917F9E7F9093B10169C080910C
:10372000B10181FB222720F991E0922790FB81F9DA
:103730008093B101992329F08091B1018160809338
:10374000B10181E055C08091B10182FB222720F9AF
:1037500091E0922790FB82F9EBCF8091B10183FB3E
:10376000222720F991E0922790FB83F9E1CF0E9474
:10377000A21090910C0181E0892780930C01E1CF88
:1037800081E890E00E94190B3FEF81EE94E0315008
:1037900080409040E1F700C0000080E090E00E948F
:1037A000190B0FEF19E628E1015010402040E1F716
:1037B00000C00000C6CF61E070E080E090E012C081
:1037C0008D5101C0895341E050E060E070E08A0112
:1037D0009B0104C0000F111F221F331F8A95D2F7CF
:1037E000C901B8010E94A9140E94A210AACF80E0CA
:1037F0001F910F91089580E0089580E00895CF9380
:10380000C82F8091B901882319F0813049F031C067
:10381000E0910D01F0910E018081823261F507C0C7
:10382000E0910D01F0910E018081823261F48C2FC4
:103830000E94FB1B811104C08C2F0E94411B17C0EA
:1038400081E090E014C08C2F0E94FD1B81110EC0FE
:10385000C43149F018F4CB3049F00FC0C93219F027
:10386000C83321F00AC01092B90107C081E081700D
:1038700006C01092B90180E002C080E0F8CFCF917D
:103880000895E1E8F0E08081886080838081816034
:1038900080838FB7F89493E09093890090ED909394
:1038A00088008FBF0C940220EFE6F0E080818260F8
:1038B000808381E08093CD010C941D20EFE6F0E041
:1038C00080818D7F80831092CD0180E00E94102046
:1038D00081E00E9410208091CD010C941D20E9EC24
:1038E000F1E0808381830895E82FF0E0E753FE4FF5
:1038F0002081422F50E08FEF90E0861B91098417C2
:1039000095071CF48FEF80830895620F60830895FC
:10391000CF93C82F682F80E00E94741C6C2F81E029
:10392000CF910C94741CE82FF0E0E753FE4F808198
:10393000861710F410820895861B80830895CF9314
:10394000C82F682F80E00E94931C6C2F81E0CF91DC
:103950000C94931C8091CD0108958091C8018360DF
:103960008093C80108951092C80108954091C7013D
:1039700021E030E0662341F001C0220F8A95EAF78A
:10398000242B2093C7010895B90102C0660F771F49
:103990008A95E2F7CB01809584238093C70108952F
:1039A000CF93C82F682F80E00E94B61C6C2F81E057
:1039B000CF910C94B61C8093C6010895E4ECF1E01D
:1039C0008083818308958091C30183608093C301C4
:1039D00008951092C30108958093C10108951F9224
:1039E0000F920FB60F921124EF92FF920F931F9335
:1039F0002F933F934F935F936F937F938F939F93F7
:103A0000AF93BF93CF93DF93EF93FF938091BD016B
:103A10008F5F8093BD010BEC11E0C0E0D0E0FC2E85
:103A20008091BD0181110DC0F8018081882319F0BA
:103A30008C2F0E940320FE01E753FE4F8081F80186
:103A40008083F80181918F019091BD01981303C08B
:103A50008F2D0E941020219719F0C1E0D0E0DFCF18
:103A60008091BC018F5F803418F48093BC01ACC09E
:103A70001092BC01E090C801E11005C09091C30113
:103A800091113BC0A1C08091BB018F5F8093BB01AE
:103A90009091C601981790F71092BB0104EC11E0C9
:103AA000C0E0D0E0F12CC7010C2E02C0969587959E
:103AB0000A94E2F780FF1AC0F8018081882319F088
:103AC0008150808313C08091C70190E00C2E02C00A
:103AD000969587950A94E2F761E080FF04C08C2FE9
:103AE0000E94931C03C08C2F0E94741C0F5F1F4FF9
:103AF000219721F2C1E0D0E0D6CF8091BA018F5F4B
:103B00008093BA012091C101281708F05DC010927E
:103B1000BA012091BE013091C201AFEBB1E040E0AB
:103B200050E0C1E0D0E0692F70E0042E02C076952D
:103B300067950A94E2F760FF3AC08C91E82FF0E0B5
:103B4000E359FC4F0491BA0167537E4FFB01008398
:103B5000622F70E0042E02C0769567950A94E2F712
:103B600060FF19C0811115C0BE01042E01C0660F8F
:103B70000A94EAF760952623E32FF0E0042E02C0B2
:103B8000F695E7950A94E2F7E0FF11C096233623F5
:103B90000EC081500BC08F3741F4BE01042E01C00E
:103BA000660F0A94EAF7262B02C08F5F8C9311965A
:103BB0004130510519F041E050E0B5CF9093C30179
:103BC0002093BE013093C201FF91EF91DF91CF911D
:103BD000BF91AF919F918F917F916F915F914F9125
:103BE0003F912F911F910F91FF90EF900F900FBE7B
:103BF0000F901F9018950E94121B811102C00E9405
:103C0000ED1A0E94381B8093E60180FF02C0869562
:103C100001C080E00C94A4038091E60180FF14C0F1
:103C2000982F9695292F30E02830310544F49F5F76
:103C3000990F8170892B8093E6010E943C1B809133
:103C4000E60186950C94A40308958091E60180FF17
:103C500014C0982F9695292F30E02230310544F07A
:103C60009158990F8170892B8093E6010E943C1B2B
:103C70008091E60186950C94A40308958091E60155
:103C8000982F9095917090FB80F98093E60199238D
:103C900039F0982F9E7F21F4817082608093E60135
:103CA0008091E6010E943C1B8091E60180FF02C0EA
:103CB000869501C080E00C94A4039091E601892FC1
:103CC00086958F5F8F779170893028F4880F892BC4
:103CD0008093E60102C09093E6018091E6018E7F19
:103CE00091E009F490E08091E60190FB80F98093E7
:103CF000E6010E943C1B8091E60186950C94A4038A
:103D0000880F9091E6019170892B8093E6018E7F58
:103D100091E009F490E08091E60190FB80F98093B6
:103D2000E6010E943C1B8091E60186950C94A40359
:103D3000DF92EF92FF920F931F93CF93DF93009147
:103D4000D3010827611101C0C9F1C0E0D0E0E62E1F
:103D5000F82E10E0DC2E0E94AA1C882359F0209136
:103D6000CF0130E00C2E02C0369527950A94E2F779
:103D700020FD1DC0E11009C0C8010C2E02C096959F
:103D800087950A94E2F780FF12C02091CE012F257B
:103D900030E00C2E02C0369527950A94E2F78D2D5F
:103DA00020FF03C00E942C0402C00E94350421970A
:103DB00019F0C1E0D0E0CECFF092D301DF91CF91E6
:103DC0001F910F91FF90EF90DF9008950F931F9335
:103DD000CF93DF93C0E0D0E001E010E08C2F0E9491
:103DE000622094FF0BC08091CE0198010C2E01C07F
:103DF000220F0A94EAF7282B2093CE0195FF0BC0DF
:103E00008091CF0198010C2E01C0220F0A94EAF78D
:103E1000282B2093CF019F70892F90E0823091054D
:103E200089F083309105D1F08130910511F50C2E88
:103E300001C0880F0A94EAF79091D101892B8093F1
:103E4000D10117C02091D001C8010C2E01C0880FEC
:103E50000A94EAF7822B8093D0010BC02091D20103
:103E6000C8010C2E01C0880F0A94EAF7822B8093B8
:103E7000D201219719F0C1E0D0E0B0CF0E94270411
:103E800061E080E0DF91CF911F910F910C94981E1B
:103E9000CF93DF939091D201992369F1D82FC091EC
:103EA000D30190FF0FC080E00E9462202D2F30E0F0
:103EB00002C0359527958A95E2F720FD02C0CE7F96
:103EC00001C0C1608091D20181FF0FC081E00E94DA
:103ED00062202D2F30E002C0359527958A95E2F7B4
:103EE00020FD02C0CD7F01C0C26060E08C2FDF9159
:103EF000CF910C94981EDF91CF910895CF92DF92CD
:103F0000EF92FF92CF932091D101222399F16B017F
:103F10007C01C091D30120FF11C080E00E9462208B
:103F2000A701960104C056954795379527958A9520
:103F3000D2F720FD02C0CE7F01C0C1608091D101C7
:103F400081FF0FC081E00E94622004C0F694E794D4
:103F5000D794C7948A95D2F7C0FC02C0CD7F01C028
:103F6000C26060E08C2FCF91FF90EF90DF90CF90F8
:103F70000C94981ECF91FF90EF90DF90CF90089512
:103F8000CF92DF92EF92FF92CF932091D001222324
:103F900099F16B017C01C091D30120FF11C080E039
:103FA0000E946220A701960104C056954795379557
:103FB00027958A95D2F720FD02C0CE7F01C0C1604F
:103FC0008091D00181FF0FC081E00E94622004C077
:103FD000F694E794D794C7948A95D2F7C0FC02C0B0
:103FE000CD7F01C0C26060E08C2FCF91FF90EF9039
:103FF000DF90CF900C94981ECF91FF90EF90DF90C0
:10400000CF90089508952091CF0130E0082E02C08E
:10401000369527950A94E2F720FD0C942C04089518
:104020002091CF0130E0082E02C0369527950A94E2
:10403000E2F720FD0C9435040895811105C061E07C
:104040008091D3010C94981E089588E090E00E941E
:10405000A4219093D5018093D401019661F480E06E
:104060000E941E049093D5018093D401BC0188E086
:1040700090E00E94B8218AE090E00E94A4219093F1
:10408000D7018093D601019661F481E00E941E045D
:104090009093D7018093D601BC018AE090E00C9404
:1040A000B821089580E00E941E04BC0188E090E0E1
:1040B0000E94B82181E00E941E04BC018AE090E0C9
:1040C0000C94B821E82FF0E0EE0FFF1FEC52FE4FEA
:1040D000808191810895CF92DF92EF92FF920F93AA
:1040E0001F93CF9380E190E00E94A4218C01C12C0A
:1040F000D12C2DEEE22E2EEFF22E0E945F02C82F61
:104100000E946102C89FC00111249C0183E0220F1C
:10411000331F8A95E1F7205C3F4FC216D30680F427
:10412000C60142960E949C21282F30E0C0FE02C0AA
:10413000322F2227E20EF31E8FEFC81AD80ADDCFE6
:1041400081E00E151F0509F080E0CF911F910F91BE
:10415000FF90EF90DF90CF90089590E0880F991F27
:1041600042960C94A42190E0880F991F42960C94DB
:10417000B821EF92FF920F931F93CF93DF9300D05C
:10418000CDB7DEB7082F4A8369830E945F02089F7C
:10419000800111240E946102809F7001819FF00CB8
:1041A00011240E94610269819701689F200D311DD1
:1041B0001124C9014A81840F911D8E5A9F4F0F907F
:1041C0000F90DF91CF911F910F91FF90EF900C9482
:1041D0009C218E5A9F4F0C94AA218F929F92AF924E
:1041E000BF92CF92DF92EF92FF920F931F93CF93E4
:1041F000DF930E945C026C010E9459027C01C11491
:10420000D10409F10E9442024C01A12CB12C0DEE07
:104210001EEFA814B90420F4F601C591D49102C090
:10422000C0E0D0E0BE018A2D0E94B3200C0F1D1FFC
:104230008FEFA81AB80A82E0C80ED11C80E2A81637
:10424000B10439F702C00DEE1EEFE114F10471F173
:104250000E943F026C01A12CB12C0E945F02C82F6A
:104260000E946102C89FC001112423E0880F991F9A
:104270002A95E1F7A816B906C8F4AC14BD0428F4D1
:10428000F701EA0DFB1DC49101C0C0E06C2FC50110
:104290000E94E920EC2FF0E0A0FE02C0FE2FEE27E6
:1042A0000E0F1F1F8FEFA81AB80AD7CFB80180E1F1
:1042B00090E0DF91CF911F910F91FF90EF90DF90F1
:1042C000CF90BF90AF909F908F900C94B8210E9498
:1042D0006B20811102C00C94ED20089597FB072EEE
:1042E00016F4009407D077FD09D00E94882107FCBE
:1042F00005D03EF4909581959F4F089570956195F6
:104300007F4F0895EE0FFF1F0590F491E02D099463
:10431000AA1BBB1B51E107C0AA1FBB1FA617B707EB
:1043200010F0A61BB70B881F991F5A95A9F7809507
:104330009095BC01CD010895F999FECF92BD81BD44
:10434000F89A992780B50895A8E1B0E042E050E0DE
:104350000C94BF21262FF999FECF1FBA92BD81BDC3
:1043600020BD0FB6F894FA9AF99A0FBE01960895F7
:104370000E94AA21272F0C94AB21DC01CB01FC0168
:10438000F999FECF06C0F2BDE1BDF89A319600B4AE
:0E4390000D9241505040B8F70895F894FFCFB9
:10439E00053E04AA0441047604420401019C013F37
:0E43AE0036392E03F802BF026B0284029D0214
:00000001FF
