:100000000C945A080C949E080C949E080C949E081C
:100010000C949E080C949E080C949E080C949E08C8
:100020000C949E080C949E080C94210F0C94F10FD4
:100030000C9495210C949E080C949E080C949E0898
:100040000C949E080C941D2E0C949E080C949E08F3
:100050000C949E080C94DE210C949E080C949E082F
:100060000C949E080C949E080C949E080C949E0878
:100070000C949E080C949E080C949E080C949E0868
:100080000C949E080C949E080C949E080C949E0858
:100090000C949E080C949E080C949E080C949E0848
:1000A0000C949E080C949E080C949E08661188116E
:1000B000771288117712CD11F11177124612591269
:1000C0006715671594159415EB1525169218921857
:1000D0003D1692183A173A17F5170B1892187E1812
:1000E000F82A202B23290C2C0C2CAD2A0C2C0C2CA0
:1000F0004D2B0C2C612BD72B0C2C0C2C0C2C0C2CE2
:10010000AC2B932B0C2C7C2B0C2C392B0C2C0C2C6F
:10011000062C062C062C062C062C062C062C062C4F
:10012000062C042C0C2C042C0C2C0C2C0C2C0C2C25
:100130000C2C0C2C0C2C0C2C0C2C0C2C0C2C042C07
:100140000C2C0C2CAD2A902A082C082C082C082CDE
:10015000082C082C082C082C082C082C082C082CFF
:10016000E92B0C2C0C2B00D3293EC02A5354555696
:100170005F6061575C5D5E58595A5B58620063006E
:100180000A002530313662003A200025303258000E
:100190000A722F63203031323334353637383941E3
:1001A00042434445460A000A002530325800626F37
:1001B000756E6365213A2000001080FF0020000367
:1001C0004B6579626F6172642073746172742E0A78
:1001D0000055534220636F6E666967757265642EC1
:1001E0000A000E0341004D004A0050006100640007
:1001F000000012036700650065006B006800610085
:1002000063006B0000000403090409028D0005016E
:1002100000A03209040000010301010009211101BD
:100220000001223F000705810308000A09040100BC
:100230000103010200092111010001224D000705FF
:10024000820308000A0904020001030000000921DA
:10025000110100012236000705830308000A090482
:100260000300020300000009211101000122200007
:100270000705840320000107050403200001090489
:1002800004000103000000092111010001223900CE
:10029000070585031000011201100100000008EDA0
:1002A000FE101002000102000105010906A101056E
:1002B0000719E029E7150025019508750181020558
:1002C000081901290595057501910295017503919C
:1002D0000105071900297715002501957875018119
:1002E00002C00631FF0974A1010975150025FF95AB
:1002F00020750881020976150025FF952075089163
:1003000002C005010980A101850216010026B7007F
:100310001A01002AB700751095018100C0050C096B
:1003200001A1018503160100269C021A01002A9CE6
:1003300002751095018100C005010902A1010901A2
:10034000A10005091901290515002501950575016B
:10035000810295017503810105010930093115817B
:10036000257F95027508810609381581257F95013D
:1003700075088106050C0A38021581257F950175DF
:10038000088106C0C005010906A101050719E02979
:10039000E715002501950875018102950175088111
:1003A0000105081901290595057501910295017549
:1003B0000391010507190029FF150025FF95067512
:1003C000088100C00A002530325820006B65796230
:1003D0006F6172645F7265706F72743A20000A0018
:1003E00025303258006B6579626F6172645F7365A6
:1003F000745F6C65643A200064656C5F6B65795F5F
:100400006269743A2063616E27742064656C3A20D7
:10041000253032580A006164645F6B65795F6269F8
:10042000743A2063616E2774206164643A20253039
:1004300032580A00646F6E652E0A00626F6F676D36
:1004400061676963207363616E3A202E2E2E20004F
:10045000290A002575002F002575005D28002564F8
:100460000020002564002000256400200025640091
:100470007C0025303258006D6F7573656B6579208F
:100480005B62746E7C782079207620685D287265C6
:10049000702F61636C293A205B000A002575006D9E
:1004A0006B5F776865656C5F74696D655F746F5FBE
:1004B0006D6178203D20000A002575006D6B5F7727
:1004C0006865656C5F6D61785F7370656564203D1C
:1004D00020000A002575006D6B5F74696D655F749F
:1004E0006F5F6D6178203D20000A002575006D6BFF
:1004F0005F6D61785F7370656564203D20000A0060
:100500002575006D6B5F696E74657276616C203D58
:1005100020000A002575006D6B5F64656C617920B1
:100520003D20000A002575006D6B5F776865656C7E
:100530005F74696D655F746F5F6D6178203D200049
:100540000A002575006D6B5F776865656C5F6D618E
:10055000785F7370656564203D20000A0025750092
:100560006D6B5F74696D655F746F5F6D6178203D61
:1005700020000A002575006D6B5F6D61785F7370F8
:10058000656564203D20000A002575006D6B5F697C
:100590006E74657276616C203D20000A002575003E
:1005A0006D6B5F64656C6179203D20000A002575E4
:1005B00000363A206D6B5F776865656C5F74696DB6
:1005C000655F746F5F6D61783A20000A00257500E1
:1005D000353A206D6B5F776865656C5F6D61785F3C
:1005E00073706565643A20000A00257500343A206E
:1005F0006D6B5F74696D655F746F5F6D61783A20D4
:10060000000A00257500333A206D6B5F6D61785FDD
:1006100073706565643A20000A00257500323A203F
:100620006D6B5F696E74657276616C286D73293AC3
:1006300020000A00257500313A206D6B5F64656CFF
:100640006179282A31306D73293A20000A0A2D2D4C
:100650002D2D2D204D6F7573656B6579205061725E
:10066000616D6574657273202D2D2D2D2D0A003E50
:1006700020002575004D003F007365742064656699
:1006800061756C742076616C7565732E0A000A00C2
:1006900025750073656C65637465642070617261B3
:1006A0006D657465723A2000433E20000A517569F9
:1006B00074204D6F7573656B657920436F6E736F32
:1006C0006C650A0053656520687474703A2F2F6555
:1006D0006E2E77696B6970656469612E6F72672F22
:1006E00077696B692F4D6F7573655F6B6579730AF9
:1006F000000A002575002C20776865656C3D002593
:10070000750077686572652064656C74613A206372
:100710007572736F723D000A7370656564203D20C9
:1007200064656C7461202A206D61785F7370656503
:1007300064202A2028726570656174202F207469F6
:100740006D655F746F5F6D6178290A007067646F13
:10075000776E3A09646563726561736520707261D2
:100760006D6574657273282D3130290A00706775C4
:10077000703A09696E637265617365207072616DAC
:100780006574657273282B3130290A00646F776EA7
:100790003A096465637265617365207072616D65A5
:1007A00074657273282D31290A0075703A09696ED3
:1007B000637265617365207072616D6574657273D3
:1007C000282B31290A00643A097365742064656630
:1007D00061756C742076616C7565730A00703A09F6
:1007E0007072696E74207072616D65746572730ADF
:1007F00000363A0973656C656374206D6B5F7768CA
:1008000065656C5F74696D655F746F5F6D61780AB3
:1008100000353A0973656C656374206D6B5F7768AA
:1008200065656C5F6D61785F73706565640A00343F
:100830003A0973656C656374206D6B5F74696D65EF
:100840005F746F5F6D61780A00333A0973656C6598
:100850006374206D6B5F6D61785F73706565640AAA
:1008600000323A0973656C656374206D6B5F696E65
:1008700074657276616C286D73290A00313A0973C8
:10088000656C656374206D6B5F64656C6179282AA3
:1008900031306D73290A004553432F713A09717540
:1008A00069740A000A0A2D2D2D2D2D204D6F7573A8
:1008B000656B657920506172616D65746572732036
:1008C00048656C70202D2D2D2D2D0A003F004D30D8
:1008D0003E000A456E746572204D6F7573656B65D9
:1008E0007920436F6E736F6C650A000A51756974E5
:1008F00020436F6E736F6C65204D6F64650A004313
:100900003E20000A0025750020746F200025750028
:100910007377697463685F64656661756C745F6C36
:10092000617965723A20006D3A096D6F7573656B78
:1009300065790A004553432F713A09717569740A44
:10094000000A0A2D2D2D2D2D20436F6E736F6C65BF
:100950002048656C70202D2D2D2D2D0A00506175BD
:10096000733A096A756D7020746F20626F6F746CD2
:100970006F616465720A00436170733A094C6F637A
:100980006B204B6579626F617264284368696C649F
:100990002050726F6F66290A00505363723A0970D3
:1009A0006F77657220646F776E2F72656D6F7465F7
:1009B0002077616B652D75700A00342F46343A0933
:1009C00073776974636820746F204C617965723441
:1009D000200A00332F46333A09737769746368201D
:1009E000746F204C6179657233200A00322F4632D1
:1009F0003A0973776974636820746F204C61796574
:100A00007232200A00312F46313A097377697463D4
:100A10006820746F204C6179657231200A00302F94
:100A20004631303A0973776974636820746F204CDB
:100A30006179657230200A006E3A09746F67676CDD
:100A400065204E4B524F0A00653A097072696E7408
:100A500020656570726F6D20636F6E6669670A004E
:100A6000733A097072696E74207374617475730AD5
:100A700000743A097072696E742074696D65722031
:100A8000636F756E740A00763A097072696E74202D
:100A90006465766963652076657273696F6E20267A
:100AA00020696E666F0A006D3A09746F67676C653E
:100AB000206D6F7573652064656275670A006B3A17
:100AC00009746F67676C65206B6579626F6172642A
:100AD0002064656275670A00783A09746F67676C0D
:100AE00065206D61747269782064656275670A00BB
:100AF000643A09746F67676C652064656275672086
:100B0000656E61626C650A00633A09656E746572B0
:100B100020636F6E736F6C65206D6F64650A000AE9
:100B20000A2D2D2D2D2D20436F6D6D616E64204893
:100B3000656C70202D2D2D2D2D0A000A00257500C5
:100B40002E6C6576656C3A20000A002575002E65CE
:100B50006E61626C653A20000A00253032580062EE
:100B600061636B6C696768745F636F6E6669672E3B
:100B70007261773A20000A002575002E6E6B726F45
:100B80003A20000A002575002E737761705F62615C
:100B9000636B736C6173685F6261636B73706163D5
:100BA000653A20000A002575002E737761705F6733
:100BB000726176655F6573633A20000A00257500EF
:100BC0002E6E6F5F6775693A20000A002575002E4A
:100BD000737761705F72616C745F726775693A20D8
:100BE000000A002575002E737761705F6C616C746C
:100BF0005F6C6775693A20000A002575002E6361F5
:100C000070736C6F636B5F746F5F636F6E74726F22
:100C10006C3A20000A002575002E737761705F63BF
:100C20006F6E74726F6C5F636170736C6F636B3A3D
:100C300020000A0025303258006B65796D61705FC5
:100C4000636F6E6669672E7261773A20000A00252D
:100C500075002E6D6F7573653A20000A00257500CA
:100C60002E6B6579626F6172643A20000A00257507
:100C7000002E6D61747269783A20000A00257500B3
:100C80002E656E61626C653A20000A00253032588C
:100C90000064656275675F636F6E6669672E726177
:100CA000773A20000A0025750064656661756C74EA
:100CB0005F6C617965723A20003F004E4B524F3AAB
:100CC0002064697361626C65640A004E4B524F3A4E
:100CD00020656E61626C65640A006B6579626F61A4
:100CE00072645F69646C653A2025580A006B657907
:100CF000626F6172645F70726F746F636F6C3A20C1
:100D000025580A00686F73745F6B6579626F617252
:100D1000645F6C65647328293A2025580A000A0A22
:100D20002D2D2D2D2D20537461747573202D2D2D97
:100D30002D2D0A0074696D65725F636F756E743A6C
:100D4000202530346C580A004743433A20342E396A
:100D50002E32204156522D4C4942433A20312E38F2
:100D60002E30204156525F415243483A20617672FC
:100D7000350A004F5054494F4E533A204C55464186
:100D800020424F4F544D41474943204D4F55534505
:100D90004B45592045585452414B455920434F4EDD
:100DA000534F4C4520434F4D4D414E44204E4B52E6
:100DB0004F20364B524F204B45594D41505F494EC5
:100DC0005F454550524F4D204C45444D4150204CBD
:100DD00045444D41505F494E5F454550524F4D206F
:100DE0004241434B4C4947485420534F4654505777
:100DF0004D5F4C454420425245415448494E475F5F
:100E00004C454420343039360A004255494C443A66
:100E10002038633964353937202830373A32383A48
:100E20003432204A756E2031332032303135290A70
:100E3000005649443A203078464545442867656560
:100E40006B6861636B29205049443A203078313017
:100E5000313028414D4A50616429205645523A208C
:100E60003078303030320A00444553433A20742EF3
:100E70006D2E6B2E206B6579626F617264206669DE
:100E8000726D7761726520666F7220414D4A5061C4
:100E9000640A000A0A2D2D2D2D2D205665727369C6
:100EA0006F6E202D2D2D2D2D0A000A4445425547E9
:100EB0003A206D6F7573652064697361626C656457
:100EC0002E0A000A44454255473A206D6F757365F6
:100ED00020656E61626C65642E0A000A44454255C5
:100EE000473A206B6579626F61726420646973614F
:100EF000626C65642E0A000A44454255473A206BED
:100F00006579626F61726420656E61626C65642EE2
:100F10000A000A44454255473A206D617472697867
:100F20002064697361626C65642E0A000A4445425C
:100F300055473A206D617472697820656E61626C04
:100F400065642E0A000A44454255473A20656E61A1
:100F5000626C65642E0A000A44454255473A206493
:100F6000697361626C65642E0A006E6F742073751C
:100F700070706F727465642E0A000A0A4A756D708B
:100F800020746F20626F6F746C6F616465722E2EB7
:100F90002E2000433E20000A456E74657220436F88
:100FA0006E736F6C65204D6F64650A00556E6C6FD3
:100FB000636B65642E0A004C6F636B65642E0A00D8
:100FC0006565636F6E6669673A0A0000000000009D
:100FD00000000000000101010202020303040405F5
:100FE000050606070808090A0B0B0C0D0E0F101159
:100FF0001213151617191A1B1D1E20222325272927
:101000002B2D2F313335383A3D3F4244474A4D501E
:101010005356595C5F6266696C7074777B7E82861A
:101020008A8E9195999DA1A5A9ADB0B4B8BCC0C355
:10103000C7CBCED2D5D8DBDFE2E4E7EAECEFF1F3C1
:10104000F5F7F8FAFBFCFDFEFFFFFF6261636B6CD6
:101050006967687420737465703A2025750A0062A8
:1010600061636B6C6967687420746F67676C653A5D
:101070002025750A006261636B6C69676874206380
:101080007573746F6D2064656372656173653A2072
:1010900025750A006261636B6C696768742063750B
:1010A00073746F6D20696E6372656173653A202594
:1010B000750A000011241FBECFEFDAE0DEBFCDBFFE
:1010C00004B603FE24C08091F9019091FA01A09129
:1010D000FB01B091FC018730904BA740B04BB9F4B5
:1010E0001092F9011092FA011092FB011092FC018A
:1010F00014BE84B7877F84BF88E10FB6F8948093CD
:101100006000109260000FBEE0E0F8E3099511E086
:10111000A0E0B1E0E2E4F8E602C005900D92A83349
:10112000B107D9F711E0A8E3B1E001C01D92A93FD2
:10113000B107E1F70E946E0D0C941F340C9400006F
:10114000FF93EF93E091BC01F091BD01309709F05E
:101150000995EF91FF910895FC018591803011F080
:10116000EFDFFBCF0895FF27E0E230E247FF0CC03E
:10117000419597FF09C0EDE2609570958095909537
:10118000611D711D811D911D27FF02C0219530E356
:1011900050E2AA27660F771F881F991FAA1FA4175E
:1011A00010F0A41B63955A95A9F7AA3008F0A95F1F
:1011B000A05DAF93F395611571058105910541F728
:1011C000ED3211F4EF93F395F21718F43F93F39582
:1011D000FBCF8F91B5DFFA95E1F70895E991F99189
:1011E0008591803021F0853219F0AADFF9CF08957A
:1011F00020E0E89455915532C1F3503311F46894CE
:1012000055915A3348F4505390F3220F022E220F77
:10121000220F200D250FF4CF0EF42195899199917D
:10122000533619F3533729F1533559F1BC01882747
:101230009927E8945C3621F48991999168945591A5
:10124000543639F446EF7EF077FF0DC08FEF9FEFF5
:101250000AC055374AE039F0583540E121F052369E
:1012600042E009F00895FF93EF937DDFEF91FF9146
:10127000B7CFFF93EF93FC0181918030B9F360DF2A
:10128000FBCFFF93EF9368DFF1CFDF93CF93CDB721
:10129000DEB72596A3DFCF91DF91089508950895D5
:1012A00088E190E0089581E090E00895462F672F4F
:1012B0000C94E931805C0E94DD31089588E691E06C
:1012C000089586E691E008958AB18E7D8AB98BB142
:1012D0008E7D8BB980B38F7080BB81B38F7081BBE3
:1012E000089586E0089584E0089580E885BF85BF6D
:1012F0000E94640980B38C7F80BB81B3836081BB13
:101300006E98769A3F98479AA8E3B1E0EEE3F1E051
:1013100086E08E0F11921D928E13FCCF0895DF92FE
:10132000EF92FF920F931F93CF93DF9308E311E0A7
:10133000C0E0D1E085E0D82E99EAE92E91E0F92EBF
:10134000C33099F028F4C13051F0C23059F004C0D4
:10135000C43071F0C53079F0879A8F980EC0869AA4
:101360008E980BC0859A8D9808C0849A8C9805C079
:10137000559A5D9802C0509A589880EA8A95F1F77C
:101380008FB1869581708D27789902C092E001C057
:1013900090E0892B669902C094E001C090E0282F6C
:1013A000292B96B19095892F881F8827881F880F31
:1013B000880F880F822BF8019081981739F180836C
:1013C00080910001882301F18091BB0180FF04C05E
:1013D0008EEA91E00E94AC088091BB0180FF0CC0B6
:1013E000809100011F928F93FF92EF920E94450916
:1013F0000F900F900F900F908091BB0180FF04C061
:1014000087EA91E00E94AC08D09200010E94640932
:10141000CF5F0F5F1F4FC63009F092CF8091000160
:101420008823B1F0815080930001882339F08FE93F
:101430009FE00197F1F700C000000AC0AEE3B1E001
:10144000E8E3F1E0CF018A5F91919D938E13FCCF89
:1014500081E0DF91CF911F910F91FF90EF90DF908E
:101460000895E82FF0E0E25CFE4F2081822F90E0AB
:1014700021E030E002C0220F331F6A95E2F72823F3
:10148000392381E0232B09F480E00895E82FF0E070
:10149000E25CFE4F80810895CF92DF92EF92FF923F
:1014A0000F931F93CF93DF9380E991E00E94AC08E4
:1014B0008EE3E82E81E0F82EC0E0D0E09BE8C92E54
:1014C00091E0D92E02E811E0DF93CF93DF92CF9223
:1014D0000E94450988E891E00E94AC08F7018191DB
:1014E0007F0190E00E9439219F938F931F930F9368
:1014F0000E94450980E891E00E94AC0821968DB7D2
:101500009EB708960FB6F8949EBF0FBE8DBFC6302B
:10151000D105D1F6DF91CF911F910F91FF90EF9000
:10152000DF90CF900895CF93C82F809344018730E8
:1015300090F48430E0F4813090F10E94A92D0E9453
:10154000082E0E94172EEC2FF0E0E854FE4F8491F5
:10155000CF910C94C42D8730A9F0883001F50E94FA
:10156000A92D0E94022E0E94172E81E012C00E9417
:10157000A92D0E94082E0E94112E86E08C1BCF916F
:101580000C941A2E0E94A92D0E94022E0E94172E42
:1015900080E00E940B2E83E0CF910C940E2E0E94CF
:1015A000082E0E94172ECF910C94B32D1F93CF932A
:1015B000DF9300D000D01F92CDB7DEB7162F8091F9
:1015C0004401873029F4662319F080E20E94F42D4B
:1015D00080914401883069F4112359F080E20F9022
:1015E0000F900F900F900F90DF91CF911F910C945F
:1015F000DD2D0F900F900F900F900F90DF91CF91F6
:101600001F910895E82FF0E0EE0FFF1FE454FE4F06
:10161000859194910895269A2E98569A5E9A0895E7
:10162000882319F0813019F008952E9A08955E9854
:101630000895882319F0813019F008952E9808959F
:101640005E9A08958091570108959091EF0194302A
:1016500009F059C09091E9009F703091EC00232F60
:10166000217030FD20E8922B24E02093E9002091A6
:10167000EB0020FF29C02091EE0027FF25C020911C
:101680004601222321F02091E80025FF1DC0109281
:1016900046014091E4005091E50026E007C06091CA
:1016A000E4007091E5004617570791F43091E80087
:1016B00035FD19C03091EF01332329F1353019F18F
:1016C0003091EB0035FFEBCF9F709093E9001BC08A
:1016D000215021F481E080934601F6CF4091E4004F
:1016E0005091E500E3CF8093F1008091E80085FD03
:1016F00005C08091E8008E778093E8009F709093FA
:10170000E90080E008958FEF0895CF93DF9300D034
:101710001F92CDB7DEB79C018091EF01843019F59F
:1017200093E099833B832A839093E9008FEF909114
:10173000E800815095FD06C095ED9A95F1F70000FF
:101740008111F5CF8091E80085FF0DC040E050E0A9
:1017500063E070E0CE0101960E9435108091E800B0
:101760008E778093E8000F900F900F90DF91CF91CC
:101770000895CF93DF9300D01F92CDB7DEB72091AD
:10178000EF01243021F522E029839B838A8383E0C3
:101790008093E9008FEF9091E800815095FD06C09D
:1017A00095ED9A95F1F700008111F5CF8091E80051
:1017B00085FF0DC040E050E063E070E0CE0101968F
:1017C0000E9435108091E8008E778093E8000F909A
:1017D0000F900F90DF91CF9108952091EF01243069
:1017E000F1F422E02093E9002FEF3091E80021503E
:1017F00035FD06C035ED3A95F1F700002111F5CF22
:101800002091E80025FF0BC040E050E065E070E06B
:101810000E9435108091E8008E778093E80008954B
:10182000CF93DF932091EF01243009F044C0EC0105
:1018300080910C018823C1F085E08093E9008FEF4F
:101840009091E800815095FD06C095E19A95F1F7D9
:1018500000008111F5CF8091E80085FF2CC040E0A9
:1018600050E060E170E017C081E08093E9008FEF05
:101870009091E800815095FD06C095ED9A95F1F79D
:1018800000008111F5CF8091E80085FF14C040E091
:1018900050E068E070E0CE010E9435108091E800D1
:1018A0008E778093E80080E1FE01A7E4B1E001902B
:1018B0000D928A95E1F7DF91CF9108958091EE0125
:1018C000811107C00E94080F8091E200846080931C
:1018D000E20008950895089508950C94912180914F
:1018E000EF01843041F58091E9008F702091EC0088
:1018F000922F917020FD90E8892B94E09093E9005D
:101900009091EB0090FF14C09091EE0097FF10C0F3
:101910009091E80095FF03C01092F100F9CF9091EB
:10192000E80090FF05C09091E8009E779093E80052
:101930008F708093E900089542E061EC81E00E949D
:10194000250E42E061EC82E00E94250E42E061EC4F
:1019500083E00E94250E46E261EC84E00E94250EA1
:1019600042E161EC85E00C94250E8091F101833019
:1019700009F455C030F4813071F0823009F495C01B
:1019800008958A3009F481C08B3009F460C0893031
:1019900009F0A3C020C08091F001813A09F09DC0F8
:1019A0008091E800877F8093E8008091F401909116
:1019B000F501892B21F460E187E491E003C060E048
:1019C00080E090E070E00E9480108091E8008B77CA
:1019D0008093E80008958091F001813209F07DC084
:1019E0008091F4019091F501009719F0049709F0A6
:1019F00074C08091E800877F8093E8008091E800C0
:101A000082FD05C08091EF018111F8CF66C0809101
:101A1000F100809357018091E8008B775AC0809144
:101A2000F001813A09F059C08091F4019091F501DB
:101A3000892B09F052C08091E800877F8093E800ED
:101A40008091E80080FFFCCF80910B013DC0809128
:101A5000F001813209F041C08091F4019091F501CB
:101A6000892BD9F58091E800877F8093E8000E9458
:101A70005A0E9091F20181E0911101C080E08093B3
:101A80000B0180930C010C94B3188091F00181320A
:101A900021F58091E800877F8093E8000E945A0E2C
:101AA0008091F3018093450108958091F001813A7E
:101AB000A1F48091E800877F8093E8008091E8009E
:101AC00080FFFCCF809145018093F1008091E80078
:101AD0008E778093E8000C945A0E089584B7877F20
:101AE00084BF88E10FB6F894809360001092600084
:101AF0000FBE90E080E80FB6F89480936100909359
:101B000061000FBE0E94AB0E0E94080F8091E200A0
:101B100084608093E20085E29BE00E94CE2078946E
:101B20008091EF018430E1F781ED91E00E94AC08F3
:101B30000E94261381E091E00E94901280EC91E0D7
:101B40000E94AC088091EF01853071F483E00E941F
:101B500053218091ED018823A9F30E947D218823E0
:101B600089F30E940F0EEECF0E945E13EBCF292F58
:101B7000332723303105C9F064F42130310581F079
:101B80002230310509F043C08DE890E02AE032E0D0
:101B900042C021323105F1F02232310541F137C026
:101BA00082E190E027E932E036C099278130910543
:101BB00041F08230910541F0892B49F5E6E0F2E0F1
:101BC00005C0E2EFF1E002C0E2EEF1E0849190E0C6
:101BD0009F0121C06530D8F4E62FF0E0EE0FFF1F23
:101BE000EC5DFE4F2081318189E090E014C06530CA
:101BF00070F470E0FB01EE0FFF1FE65EFE4F2081E8
:101C00003181FB01EB5EFE4F808190E004C080E0FB
:101C100090E020E030E0FA0131832083089580E1F4
:101C200089BD82E189BD09B400FEFDCF8091D80055
:101C30008F7D8093D8008091E00082608093E000E7
:101C40008091E00081FDFCCF0895982F973058F5E2
:101C50009093E900981739F07091EC002091ED0015
:101C60005091F00003C0242F762F50E021FF19C0BF
:101C70003091EB003E7F3093EB003091ED003D7FE3
:101C80003093ED003091EB0031603093EB007093B6
:101C9000EC002093ED005093F0002091EE0027FF20
:101CA00007C09F5FD3CF8F708093E90081E00895D4
:101CB00080E008958091F00187FF11C08091E800D5
:101CC00082FD05C08091EF018111F8CF11C0809194
:101CD000E8008B770BC08091EF01882349F0809159
:101CE000E80080FFF8CF8091E8008E778093E800CD
:101CF00008952091E4003091E50095E64091EC00D4
:101D0000842F817040FF22C08091E80080FD1CC0BC
:101D10008091EF01882391F0853091F08091EB0064
:101D200085FD10C04091E4005091E5004217530733
:101D300029F39A01915011F784E0089582E0089503
:101D400083E0089581E0089580E008954091E800DF
:101D500042FFDECF08950E94140F0E941C0FE0EE98
:101D6000F0E0808181608083E8EDF0E080818F7712
:101D7000808319BCA7EDB0E08C918E7F8C9380811D
:101D80008F7E80831092EE0108950F931F93CF935F
:101D9000DF930E94140F0E941C0FC8EDD0E08881D1
:101DA0008F77888388818068888388818F7D888306
:101DB00019BC1092EF011092EB011092ED011092FC
:101DC000EC0100EE10E0F80180818B7F8083888138
:101DD0008160888342E060E080E00E94250EE1EEB1
:101DE000F0E080818E7F8083E2EEF0E08081816090
:101DF0008083808188608083F80180818E7F8083EA
:101E0000888180618883DF91CF911F910F91089520
:101E1000E7EDF0E080818160808384E082BF81E033
:101E20008093EE010C94C50EE8EDF0E080818E7F8A
:101E300080831092E20008951092DA001092E1007F
:101E400008951F920F920FB60F9211242F933F9374
:101E50004F935F936F937F938F939F93AF93BF93B2
:101E6000EF93FF938091E10082FF0BC08091E2002D
:101E700082FF07C08091E1008B7F8093E1000E9488
:101E80006F0C8091DA0080FF1FC08091D80080FF26
:101E90001BC08091DA008E7F8093DA008091D90098
:101EA00080FF0DC080E189BD82E189BD09B400FEDB
:101EB000FDCF81E08093EF010E945E0C05C019BC4C
:101EC0001092EF010E946A0C8091E10080FF19C01E
:101ED0008091E20080FF15C08091E2008E7F8093A8
:101EE000E2008091E20080618093E2008091D8005E
:101EF00080628093D80019BC85E08093EF010E9436
:101F00006C0C8091E10084FF2EC08091E20084FF80
:101F10002AC080E189BD82E189BD09B400FEFDCF00
:101F20008091D8008F7D8093D8008091E1008F7ED2
:101F30008093E1008091E2008F7E8093E2008091A7
:101F4000E20081608093E2008091EB01811106C084
:101F50008091E30087FD02C081E001C084E08093AE
:101F6000EF010E946D0C8091E10083FF29C08091F8
:101F7000E20083FF25C08091E100877F8093E1002C
:101F800082E08093EF011092EB018091E1008E7F5F
:101F90008093E1008091E2008E7F8093E200809147
:101FA000E20080618093E20042E060E080E00E9415
:101FB000250E8091F00088608093F0000E946B0CE9
:101FC000FF91EF91BF91AF919F918F917F916F9111
:101FD0005F914F913F912F910F900FBE0F901F90E7
:101FE00018951F920F920FB60F9211242F933F93C3
:101FF0004F935F936F937F938F939F93AF93BF9311
:10200000CF93DF93EF93FF93C091E900CF7080915E
:10201000EC00D82FD17080FDD0E81092E9008091BB
:10202000F000877F8093F00078940E943C1110921A
:10203000E9008091F00088608093F000CD2BCF7094
:10204000C093E900FF91EF91DF91CF91BF91AF91E4
:102050009F918F917F916F915F914F913F912F91C0
:102060000F900FBE0F901F901895CF92DF92EF92B6
:10207000FF920F931F93CF93DF93EC018B016A01C3
:102080000E94790E811133C0C114D10439F0F601D8
:1020900080819181081B190BC80FD91FE12CF12CED
:1020A0000115110519F18091E80085FD16C0809198
:1020B000E8008E778093E800C114D10449F0F6015E
:1020C00080819181E80EF91EF182E08285E00FC0E7
:1020D0000E94790E882321F30AC089918093F10030
:1020E00001501109FFEFEF1AFF0ADACF80E0DF910C
:1020F000CF911F910F91FF90EF90DF90CF900895B7
:102100002091F6013091F7012617370748F0611545
:10211000710539F42091E8002E772093E80001C082
:10212000B90140E061157105A9F12091EF01222369
:1021300009F441C0253009F440C02091E80023FD96
:1021400038C02091E80022FD2EC02091E80020FF39
:10215000E9CF4091F3002091F20030E0342BFC01F4
:10216000CF016115710559F02830310540F4819196
:102170008093F100615071092F5F3F4FF1CF41E033
:102180002830310509F040E02091E8002E772093B7
:10219000E800C8CF4111C9CF06C08091EF01882364
:1021A00051F0853051F08091E80082FFF6CF80E059
:1021B000089581E0089582E0089583E008952091D4
:1021C000F6013091F7012617370748F061157105C0
:1021D00039F42091E8002E772093E80001C0B9017E
:1021E000FC0120E06115710591F18091EF018823D8
:1021F00009F43EC0853009F43DC08091E80083FDBC
:1022000035C08091E80082FD2BC08091E80080FFFE
:10221000E9CF2091F3008091F20090E0922B6115BC
:10222000710559F08830910540F424912093F10014
:102230003196615071090196F2CF21E0089709F0BB
:1022400020E08091E8008E778093E800CBCF2111C9
:10225000CCCF06C08091EF01882351F0853051F03A
:102260008091E80082FFF6CF80E0089581E0089534
:1022700082E0089583E008950F931F93CF93DF9337
:10228000CDB7DEB7AA970FB6F894DEBF0FBECDBFAD
:10229000E0EFF1E088E08E0F9091F10091938E13C2
:1022A000FBCF0E94B50C8091E80083FF20C1809194
:1022B000F0019091F101492F50E04A30510508F0AA
:1022C00016C1FA01EA5AFF4F0C94D433803881F0DA
:1022D000823809F00CC18091F4018F708093E9007D
:1022E0008091EB0085FB882780F91092E90006C0F9
:1022F0008091EC019091ED01911182609091E80044
:10230000977F9093E8008093F1001092F100C9C08C
:10231000282F2D7F09F0EBC0882319F0823061F05F
:10232000E6C08091F201813009F0E1C0933009F0FC
:1023300080E08093ED012BC08091F201811127C0D4
:102340008091F4018F7009F4D2C08093E90020914C
:10235000EB0020FF1CC0933021F48091EB008062E1
:1023600014C09091EB0090619093EB0021E030E07D
:10237000A90102C0440F551F8A95E2F74093EA0075
:102380001092EA008091EB0088608093EB0010923D
:10239000E9008091E800877F87C08111A8C0109173
:1023A000F2011F770FB7F8948091E800877F809340
:1023B000E8000E945A0E8091E80080FFFCCF8091D7
:1023C000E3008078812B8093E30080688093E300B2
:1023D000111102C082E001C083E08093EF010FBFC2
:1023E00086C08058823008F082C08091F2019091BE
:1023F000F3018C3D53E0950779F583E08A838AE207
:1024000089834FB7F894DE01139620E03EE051E255
:10241000E32FF0E050935700E49120FF03C0E295D2
:10242000EF703F5FEF708E2F90E0EA3010F0C796AC
:1024300001C0C0968D939D932F5F243149F74FBF04
:102440008091E800877F8093E8006AE270E0CE0127
:1024500001960E94801014C0AE014F5F5F4F6091E3
:10246000F4010E94B70DBC01009709F440C090919F
:10247000E800977F9093E80089819A810E94DF109D
:102480008091E8008B778093E80031C0803879F53F
:102490008091E800877F8093E8008091EB01809332
:1024A000F1008091E8008E778093E8000E945A0E38
:1024B0001EC081111CC09091F2019230C0F4809135
:1024C000E800877F8093E8009093EB010E945A0E0A
:1024D0008091EB01811106C08091E30087FD02C06D
:1024E00081E001C084E08093EF010E949C0C809108
:1024F000E80083FF0AC08091EB0080628093EB00CC
:102500008091E800877F8093E800AA960FB6F89440
:10251000DEBF0FBECDBFDF91CF911F910F91089508
:1025200090935D0180935C01089580915C0190918E
:102530005D010895E0915C01F0915D01309721F01B
:102540000190F081E02D099480E00895EF92FF92D0
:102550000F931F93CF93DF93E0915C01F0915D01A6
:102560003097B1F18C010280F381E02D09958091C3
:10257000BB0182FF2DC080FF04C08CEC93E00E9461
:10258000AC08E80110E186ECE82E83E0F82E80919B
:10259000BB0180FF0BC088811F928F93FF92EF9247
:1025A0000E9445090F900F900F900F9011502196A7
:1025B0001111EDCF8091BB0180FF0AC084EC93E044
:1025C000DF91CF911F910F91FF90EF900C94AC0889
:1025D000DF91CF911F910F91FF90EF900895E091BF
:1025E0005C01F0915D01309721F00480F581E02DD0
:1025F0000994089520915A0130915B018217930745
:1026000071F090935B0180935A01E0915C01F0912D
:102610005D01309721F00680F781E02D099408953F
:1026200020915801309159018217930771F09093CE
:10263000590180935801E0915C01F0915D01309760
:1026400021F00084F185E02D099408950E949F21D6
:102650000E9475090E9466220E9455310E94163020
:102660000E94962D0E94DF2E0C949732CF93C82F94
:102670008091BB0182FF1EC080FF04C085EE93E005
:102680000E94AC088091BB0180FF0CC01F92CF93C9
:1026900080EE93E09F938F930E9445090F900F90D7
:1026A0000F900F908091BB0180FF04C08EED93E0EE
:1026B0000E94AC088C2FCF910C947830CF92DF928F
:1026C000EF92FF920F931F93CF93DF93CDB7DEB7B7
:1026D0002B970FB6F894DEBF0FBECDBF0E948F09B7
:1026E0008FE5C82E81E0D82E00E010E0E02E802F8C
:1026F0000E94460AF60141916F01F42EF826B1F4CA
:102700000F5F1F4F0630110589F78FEF89838A838A
:102710001B820E94A8218160782F9D838C83498130
:102720005A816B818D810E94F61840C09091BB0147
:1027300091FF04C08B870E944C0A8B8520E030E01B
:102740004F2D50E0922FBA01022E02C07595679569
:102750000A94E2F760FF24C02E83EF8221E030E08C
:10276000690102C0CC0CDD1C9A95E2F790E08C2147
:102770009D21892B09F420E028870E94A8218160EF
:10278000782F9A8789874E815F8168858A850E9424
:10279000F618F801E15AFE4F8081C826C08206C0B3
:1027A0002F5F3F4F2430310569F6AACF0E94F225F2
:1027B00010915E010E949A121817A1F00E949A12BD
:1027C00080935E012B960FB6F894DEBF0FBECDBF8F
:1027D000DF91CF911F910F91FF90EF90DF90CF90FD
:1027E0000C9436132B960FB6F894DEBF0FBECDBFF8
:1027F000DF91CF911F910F91FF90EF90DF90CF90DD
:102800000895CF93882309F4C2C0C82F823859F4A1
:102810000E949A1281FDBBC089E30E94E51D0E94BF
:102820008F1F89E30CC0833879F40E949A1280FDCF
:10283000AEC083E50E94E51D0E948F1F83E50E94C4
:10284000BA1ECF910C948F1F843859F40E949A12AB
:1028500082FD9DC087E40E94E51D0E948F1F87E4D2
:10286000EECF8CEF8C0F813A48F48C2F0E94182CFD
:1028700081118DC08C2F0E94E51DE3CF80E28C0F6B
:10288000883048F4C77081E001C0880FCA95EAF724
:102890000E94611FD6CF8BE58C0F833078F4C53A48
:1028A00029F0C63A31F083E890E005C081E890E075
:1028B00002C082E890E0CF910C94FA1288E58C0F68
:1028C000833108F064C0C83A39F1C93A41F1CA3AD3
:1028D00049F1CB3A51F1CC3A59F1CD3A61F1C03BD3
:1028E00069F1CE3A71F1CF3A79F1C13B81F1C23B46
:1028F00089F1C33B91F1C43B99F1C53BA1F1C63BC2
:10290000A9F1C73BB1F1C83BB9F1C93BC1F1CA3B21
:10291000C9F180E090E038C082EE90E035C089EEE9
:1029200090E032C08AEE90E02FC085EB90E02CC0A2
:1029300086EB90E029C087EB90E026C08CEC90E01D
:1029400023C08DEC90E020C083E891E01DC08AE8B0
:1029500091E01AC082E991E017C084E991E014C0C7
:1029600081E292E011C083E292E00EC084E292E044
:102970000BC085E292E008C086E292E005C087E2E3
:1029800092E002C08AE292E0CF910C941013CF91B2
:102990000895882309F44BC0823859F40E949A1292
:1029A00081FF45C089E30E94E51D0E948F1F89E3D6
:1029B0000CC0833871F40E949A1280FF38C083E5FE
:1029C0000E94E51D0E948F1F83E50E94BA1E0C9491
:1029D0008F1F843859F40E949A1282FF28C087E41E
:1029E0000E94E51D0E948F1F87E4EFCF9CEF980F98
:1029F000913A58F390E2980F983050F4877091E034
:102A000001C0990F8A95EAF7892F0E94671FDFCFCF
:102A10009BE5980F933020F480E090E00C94FA123C
:102A2000885A833120F480E090E00C9410130895CC
:102A3000882321F00E94611F0C948F1F0895882322
:102A400021F00E94671F0C948F1F0895CF92DF9290
:102A5000EF92FF920F931F93CF93DF93CDB7DEB723
:102A600027970FB6F894DEBF0FBECDBF25E0FC015F
:102A7000DE01119601900D922A95E1F7FC0140814B
:102A800031810281258122952F7063817481672BAA
:102A900009F448C33F3F19F44F3F09F443C37C0195
:102AA00049833A8389819A812F830E94A41D182F1C
:102AB0009E830E94A31D0E94B31C9E81E92FE29574
:102AC000EF70F0E0E05AFF4F2F810C94D433892F40
:102AD000807F9F70F92E882319F0F29480EFF822FE
:102AE000002349F0FF2009F45BC28F2D0E94711F63
:102AF0000E948F1F55C2812F0E94C914FF2009F424
:102B000011C38F2D0E94771F27960FB6F894DEBF52
:102B10000FBECDBFDF91CF911F910F91FF90EF902E
:102B2000DF90CF900C948F1F892F807F9F70803211
:102B300011F4892F03C0892F8295807F112319F00A
:102B4000113009F12AC00023A1F0222381F12130A4
:102B500071F527960FB6F894DEBF0FBECDBFDF919B
:102B6000CF911F910F91FF90EF90DF90CF900C9439
:102B7000811F222319F0213009F4D4C28E830E94D0
:102B8000841F8E8191C1002321F0263008F0CAC233
:102B90000EC0253008F0C6C287C10023C1F0222331
:102BA00031F0F701958190FFFBC19F7095832796C7
:102BB0000FB6F894DEBF0FBECDBFDF91CF911F914E
:102BC0000F91FF90EF90DF90CF900C941815222377
:102BD00009F46AC1F9C1292F26952695237030E0A2
:102BE0002115310521F021303105C1F09BC20023B0
:102BF00019F0812F937002C080E090E027960FB605
:102C0000F894DEBF0FBECDBFDF91CF911F910F9122
:102C1000FF90EF90DF90CF900C94FA12002319F000
:102C2000812F937002C080E090E027960FB6F89451
:102C3000DEBF0FBECDBFDF91CF911F910F91FF90EF
:102C4000EF90DF90CF900C941013812F002319F098
:102C50000E94782402C00E94E02427960FB6F894C0
:102C6000DEBF0FBECDBFDF91CF911F910F91FF90BF
:102C7000EF90DF90CF900C946525892F837009F039
:102C800079C001114FC2812F829586958770880F78
:102C9000880F212F2F70C22ED12CE12CF12C082E61
:102CA00004C0CC0CDD1CEE1CFF1C0A94D2F714FFF0
:102CB00012C04FE050E060E070E004C0440F551FC8
:102CC000661F771F8A95D2F78A019B0100951095A0
:102CD0002095309503C000E010E0980196959695F8
:102CE0009370492F50E0C901B80142305105D1F02D
:102CF0004330510559F16C297D298E299F29413096
:102D0000510541F127960FB6F894DEBF0FBECDBF37
:102D1000DF91CF911F910F91FF90EF90DF90CF90B7
:102D20000C94C81C6C297D298E299F2927960FB6E3
:102D3000F894DEBF0FBECDBFDF91CF911F910F91F1
:102D4000FF90EF90DF90CF900C94DA1C0E94C81C8B
:102D5000C701B60127960FB6F894DEBF0FBECDBFF0
:102D6000DF91CF911F910F91FF90EF90DF90CF9067
:102D70000C94B61C002319F0892F817001C0869530
:102D8000882309F4CFC1812F829586958770880F9B
:102D9000880F212F2F70C22ED12CE12CF12C082E60
:102DA00004C0CC0CDD1CEE1CFF1C0A94D2F714FFEF
:102DB00012C04FE050E060E070E004C0440F551FC7
:102DC000661F771F8A95D2F78A019B01009510959F
:102DD0002095309503C000E010E0980196959695F7
:102DE0009370492F50E0C901B80142305105D1F02C
:102DF0004330510559F16C297D298E299F29413095
:102E0000510541F127960FB6F894DEBF0FBECDBF36
:102E1000DF91CF911F910F91FF90EF90DF90CF90B6
:102E20000C947F1D6C297D298E299F2927960FB62A
:102E3000F894DEBF0FBECDBFDF91CF911F910F91F0
:102E4000FF90EF90DF90CF900C94911D0E947F1D1A
:102E5000C701B60127960FB6F894DEBF0FBECDBFEF
:102E6000DF91CF911F910F91FF90EF90DF90CF9066
:102E70000C946D1D103F41F118F4103E48F48BC0C6
:102E8000123F09F450C0D8F1133F09F460C083C069
:102E90001F70892F8F71002321F00E94061D812F42
:102EA00086CE0E94271D812F27960FB6F894DEBF8D
:102EB0000FBECDBFDF91CF911F910F91FF90EF908B
:102EC000DF90CF900C941F150023A9F0253008F057
:102ED00029C1892F8F7127960FB6F894DEBF0FBED8
:102EE000CDBFDF91CF911F910F91FF90EF90DF90B9
:102EF000CF900C944C1D263008F014C1EACF00236B
:102F0000A1F0892F8F7127960FB6F894DEBF0FBE00
:102F1000CDBFDF91CF911F910F91FF90EF90DF9088
:102F2000CF900C94061D002361F3892F8F71279693
:102F30000FB6F894DEBF0FBECDBFDF91CF911F91CA
:102F40000F91FF90EF90DF90CF900C94271D0023FE
:102F500091F0892F8F7127960FB6F894DEBF0FBEC0
:102F6000CDBFDF91CF911F910F91FF90EF90DF9038
:102F7000CF900C94F11C27960FB6F894DEBF0FBECD
:102F8000CDBFDF91CF911F910F91FF90EF90DF9018
:102F9000CF900C94EC1C0023A1F0222309F4B1CFB4
:102FA000812F27960FB6F894DEBF0FBECDBFDF91FD
:102FB000CF911F910F91FF90EF90DF90CF900C94E5
:102FC0000114222309F4B1CF812F27960FB6F8946C
:102FD000DEBF0FBECDBFDF91CF911F910F91FF904C
:102FE000EF90DF90CF900C94C914492F4F70612F50
:102FF000C7010E94CA2027960FB6F894DEBF0FBE05
:10300000CDBFDF91CF911F910F91FF90EF90DF9097
:10301000CF900C94201C011185C0112341F0892F01
:103020008F70843021F0907F212F2F70922B9F7012
:10303000492F50E04230510509F440C0BCF441151D
:10304000510561F14130510509F06CC027960FB66A
:10305000F894DEBF0FBECDBFDF91CF911F910F91CE
:10306000FF90EF90DF90CF900C941C2F43305105D0
:10307000A9F14430510509F055C0812F27960FB6AC
:10308000F894DEBF0FBECDBFDF91CF911F910F919E
:10309000FF90EF90DF90CF900C94B02F27960FB653
:1030A000F894DEBF0FBECDBFDF91CF911F910F917E
:1030B000FF90EF90DF90CF900C94F02E27960FB6F4
:1030C000F894DEBF0FBECDBFDF91CF911F910F915E
:1030D000FF90EF90DF90CF900C94482F27960FB67B
:1030E000F894DEBF0FBECDBFDF91CF911F910F913E
:1030F000FF90EF90DF90CF900C947A2F492F4F7074
:10310000612FC70127960FB6F894DEBF0FBECDBF63
:10311000DF91CF911F910F91FF90EF90DF90CF90B3
:103120000C94CD2027960FB6F894DEBF0FBECDBF0E
:10313000DF91CF911F910F91FF90EF90DF90CF9093
:1031400008950E947E1F0E94531F0E948F1F0E949D
:1031500098260E94652580E090E00E94FA1280E0A7
:1031600090E00C9410130E946E1F0C94A1180E9402
:10317000A41D292F22952F7030E02C3031054CF4FE
:103180002A30310594F4225031092230310538F4C7
:103190000CC02C30310529F02F30310511F080E0C2
:1031A000089593FB882780F9089581E00895CF93CF
:1031B000DF9300D000D01F92CDB7DEB70F900F90F5
:1031C0000F900F900F90DF91CF910895CF93DF93E1
:1031D00000D000D000D0CDB7DEB726960FB6F89459
:1031E000DEBF0FBECDBFDF91CF910895CF93DF93A8
:1031F000CDB7DEB72B970FB6F894DEBF0FBECDBFAD
:103200004F83588769877A878B87DE01119686E01E
:10321000FD0111928A95E9F785E0FE01379601904C
:103220000D928A95E1F74F81588569857A858B855E
:103230000E94D60A49815A816B817C818D819E8151
:103240000E947C1B2B960FB6F894DEBF0FBECDBF3D
:10325000DF91CF9108951F93CF93DF93C0916501C4
:1032600016E080916601C81799F0D0E01C9FF0012C
:103270001D9FF00D1124E959FE4F4081518162815B
:103280007381848195810E94E6182196C770E9CFE9
:10329000DF91CF911F91089540919701509198012E
:1032A0006091990170919A0180919B0190919C018C
:1032B0000C94E61880919C0182958F7009F054C09F
:1032C00080919901882309F44FC080916501A091F4
:1032D0006601609197017091980140919A01509117
:1032E0009B01B6E08A1709F43FC090E041155105F3
:1032F000C1F17F3F11F46F3FA1F1B89FF001B99F79
:10330000F00D1124E959FE4F218172132AC020814A
:10331000621327C02281211124C023813481241704
:10332000350710F421503109241B350B283C310599
:10333000C0F420919C012F70206120939C0126E015
:10334000289FF001299FF00D1124E459FE4F808140
:103350008F708061808387E991E00E9426150C942C
:103360002B1901968770BECF0895CF92DF92EF920E
:10337000FF920F931F93CF93DF93CDB7DEB7629782
:103380000FB6F894DEBF0FBECDBF8C0185E0F8010B
:10339000DE011D9601900D928A95E1F7D8014C91BE
:1033A00011965C91119712966C9112971396CD908D
:1033B000DC901497309197017091980180919A0157
:1033C00090919B01009709F46BC17F3F19F43F3F37
:1033D00009F466C1E0909901EE2009F4C0C0209183
:1033E0009C01C816D90628F0F601E81BF90BCF019D
:1033F00004C0809590958C0D9D1DFF24F394883C0E
:10340000910578F0F12C207F09F0C6C07C2DD98A77
:10341000C88A89890E94D71887E991E00E942615F9
:10342000B1C0822F807F09F046C0751314C03413D9
:1034300012C0611110C02F70206120939C010E9466
:103440004C1987E991E00E94261580919C01D801D2
:1034500015968C932EC0CD2819F15F3F11F44F3F84
:10346000F9F0F62E61111CC0809165012091660172
:1034700036E0821709F45AC090E0389FF001399F76
:10348000F00D1124E959FE4F7181571306C0708168
:10349000471303C07281711103C001968770E9CF91
:1034A000F62E662309F418C180919C0181608093F7
:1034B0009C01F12C11C1751308C0341306C06111B1
:1034C00004C080919C01D801C3C04D875E878D8563
:1034D0009E856A8B0E94B7186A898823E1F166236A
:1034E000D1F120919C01822F82958F7090E00297FC
:1034F00074F0809197019091980198878F83198635
:10350000DB86CA862C87CE0107960E94261586E0A8
:10351000F801A7E9B1E001900D928A95E1F70E94C8
:103520005A190E944C19FF24F394D6C04D875E8728
:103530008D859E850E94A41D292F22952F7030E035
:10354000223031050CF0BCC09F7009F0B6C0805E1F
:10355000883008F4C1C0C8010E942615E4CFC816FF
:10356000D90608F453C0F601E81BF90BCF01883CDB
:10357000910508F450C0F12C7C2DD98AC88A89891C
:103580000E94D718E7E9F1E086E0DF011D928A95F5
:10359000E9F70E944C19A0C0751314C0341312C06F
:1035A000611110C080919C01F8018583C8010E94BF
:1035B000261586E0E7E9F1E0DF011D928A95E9F73B
:1035C000FE2C8AC04D875E878D859E856A8B0E9402
:1035D000B7186A89882309F4BECF662309F4BBCFE4
:1035E00020919C01822F82958F7090E002970CF4BD
:1035F0008ECF80919701909198019A8389831B8245
:10360000DD82CC822E83CE0101967FCF809590956E
:103610008C0D9D1DACCFF62E662309F49CCF75133F
:103620002EC034132CC020919C0120FD1FC0822F7E
:1036300082958F70D9F0D80115962C9315978F30FD
:1036400049F08F5F982F9295907F822F8F70892BF2
:1036500015968C93C8010E94261586E0F801A7E90B
:10366000B1E001900D928A95E1F793CF86E0F801E1
:10367000A7E9B1E001900D928A95E1F72DC04D8741
:103680005E878D859E850E94B718811140CF8091FD
:103690009C01816080939C01C8010E9426151CC07A
:1036A000662309F458CF4D875E878D859E850E94DD
:1036B000B718882309F44FCF2ACF811148CF0CC007
:1036C000243031050CF047CF9F7009F440CFF8014A
:1036D0009581907F09F03BCF8F2D62960FB6F894BD
:1036E000DEBF0FBECDBFDF91CF911F910F91FF9035
:1036F000EF90DF90CF9008951F93CF93DF93CDB7D6
:10370000DEB72C970FB6F894DEBF0FBECDBF4F8348
:10371000588769877A878B879C87CE0107960E9496
:10372000B519882369F08F8198852A853B85232BDD
:10373000F1F19F3F09F063C08F3F09F060C037C0CF
:1037400086E0FE013796DE01119601900D928A9572
:10375000E1F76F817885EA85FB85309741F17F3FFE
:1037600011F46F3F21F12091660130E0C90101960B
:10377000877099274091650150E08417950709F4F7
:1037800047C069837A83FD83EC8396E0929FD001E2
:10379000939FB00D1124A959BE4FFE01319601909F
:1037A0000D929A95E1F7809366010E942B1916E01D
:1037B00080916501909166018917C1F1189FC00140
:1037C000112489599E4F0E94B519882379F1E091FF
:1037D00065011E9FF0011124E959FE4F408151817E
:1037E00062817381848195810E94E61880916501D0
:1037F00090E001968770992780936501D9CF4F811A
:10380000588569857A858B859C850E94E618CFCF7F
:103810000E94B3181092660110926501E7E9F1E089
:1038200086E0DF011D928A95E9F7C1CF2C960FB68D
:10383000F894DEBF0FBECDBFDF91CF911F910895E9
:10384000EF92FF920F931F93CF93DF938C0100971A
:1038500009F46AC0F12CEE24E394E8012196F80102
:103860008491843740F4843008F04FC0813081F077
:10387000823019F159C0853709F442C098F19CE7AC
:10388000980F903708F050C08F770E94C9143FC03E
:103890000E5F1F4FFE01C49180E28C0F883048F408
:1038A000C7708E2D01C0880FCA95EAF70E94711F5C
:1038B0002FC08C2F0E9401142BC00E5F1F4FFE01E2
:1038C000C49180E28C0F883048F4C7708E2D01C0FF
:1038D000880FCA95EAF70E94771F1AC08C2F0E94A2
:1038E000C91416C00E5F1F4FFE01C491CC2381F096
:1038F0008FE99FE00197F1F700C00000C150F6CFBB
:103900000E5F1F4FFE01F49003C00E9401148E0150
:103910008F2D882309F4A1CFEFE9FFE03197F1F76C
:1039200000C000008150F5CFDF91CF911F910F9122
:10393000FF90EF9008956093A1017093A20180938E
:10394000A3019093A4010E94AE300C94A11860933F
:103950009D0170939E0180939F019093A0010E940E
:10396000F0300C94A11808950C949B1C0F931F9396
:103970000091A1011091A2012091A3013091A40115
:10398000602B712B822B932B1F910F910C949B1CFE
:103990000F931F930091A1011091A2012091A30107
:1039A0003091A40160237123822393231F910F91EF
:1039B0000C949B1C0F931F930091A1011091A201E5
:1039C0002091A3013091A4016027712782279327BA
:1039D0001F910F910C949B1C60E070E0CB010C9444
:1039E000A71C0F931F9341E050E060E070E08A0154
:1039F0009B0104C0000F111F221F331F8A95D2F7AD
:103A0000C901B8011F910F910C94A71C0F931F932C
:103A100041E050E060E070E004C0440F551F661FB5
:103A2000771F8A95D2F780919D0190919E01A09178
:103A30009F01B091A0018A019B01082B192B2A2B11
:103A40003B2BC901B8011F910F910C94A71C0F9338
:103A50001F9341E050E060E070E004C0440F551F48
:103A6000661F771F8A95D2F740955095609570959F
:103A700080919D0190919E01A0919F01B091A00124
:103A80008A019B01082319232A233B23C901B8017A
:103A90001F910F910C94A71C0F931F9341E050E0CE
:103AA00060E070E004C0440F551F661F771F8A95C1
:103AB000D2F780919D0190919E01A0919F01B091BC
:103AC000A0018A019B01082719272A273B27C90142
:103AD000B8011F910F910C94A71C0F931F93009195
:103AE0009D0110919E0120919F013091A001602BBA
:103AF000712B822B932B1F910F910C94A71C0F936A
:103B00001F9300919D0110919E0120919F01309182
:103B1000A00160237123822393231F910F910C94A2
:103B2000A71C0F931F9300919D0110919E0120915E
:103B30009F013091A00160277127822793271F9151
:103B40000F910C94A71C0895CF92DF92EF92FF92F1
:103B50000F931F93CF93DF938C01C090A101D0905E
:103B6000A201E090A301F090A40140919D01509129
:103B70009E0160919F017091A001C42AD52AE62A76
:103B8000F72ACFE1D0E0D701C6010C2E04C0B695CC
:103B9000A795979587950A94D2F780FF07C0B8013B
:103BA0008C2F0E9457208130910531F4219758F7CE
:103BB000B80180E00E945720DF91CF911F910F91B3
:103BC000FF90EF90DF90CF900895CF92DF92EF9229
:103BD000FF920F931F93CF93DF93C82F80910C0117
:103BE000882349F18C2F8695869586958F3090F4A1
:103BF000E0910D01F0910E01E80FF11DC77081E019
:103C000090E00C2E01C0880F0A94EAF79181892B6D
:103C10008183A7C08091BB0180FFA3C01F92CF9377
:103C200086E194E09F938F930E9445090F900F9037
:103C30000F900F9096C0D090B8013091B601E091EE
:103C40000D01F0910E01332309F477C04091B701C3
:103C50008D2D2FEF96E0E92EF12C082F112707FD6F
:103C60001095BF01600F711FDB0112969C919C178C
:103C700009F477C02F3F19F4911101C0282FC80112
:103C8000019606E010E0B7010E94C0338413E5CF2F
:103C9000D22F4D1152C02F3F71F4842F992787FDE9
:103CA00090950196B8010E94C0338093B8013150BD
:103CB0003093B60142C0822F992787FD90950196D7
:103CC000B8010E94C033282FFF24F39406E010E0CF
:103CD000332727FD30956F01C20ED31ED6011296F1
:103CE0005C91552399F08D2F992787FD9095BF0101
:103CF000680F791FDB0112965C93D60112961C9215
:103D00000196B8010E94C033D82F01C0F394C901B5
:103D10000196B8010E94C033282F8413D9CF242FD5
:103D2000332727FD30952F193109C901069666E022
:103D300070E00E94C0338093B7018091B70199274A
:103D400087FD9095E80FF91FC283019666E070E049
:103D50000E94C0338093B7018091B6018F5F80933A
:103D6000B601DF91CF911F910F91FF90EF90DF90FF
:103D7000CF900895EF92FF920F931F93CF93DF930D
:103D8000482F80910C01882351F1842F86958695C8
:103D900086958F3098F4E0910D01F0910E01E80FB7
:103DA000F11D477081E090E0042E01C0880F0A9455
:103DB000EAF780959181892381836EC08091BB0150
:103DC00080FF6AC01F924F9388EF93E09F938F9379
:103DD0000E9445090F900F900F900F905DC02091A9
:103DE000B801E091B601EE2309F456C0C0910D016F
:103DF000D0910E010091B701112707FD109586E0C3
:103E0000E82EF12C30E0DE01A20FB31FCD010296A7
:103E100012965C91541336C0DC011C92E150E09381
:103E2000B601E11104C01092B8011092B70140919F
:103E3000B701842F992787FD9095059666E070E07D
:103E40000E94C0332817390739F5F090B80106E011
:103E500010E0842F992787FD90950596B8010E9460
:103E6000C0339C01482F0596B8010E94C033FE0163
:103E7000E80FF91F8281811102C02F11EACF209330
:103E8000B7010AC0C9010196B7010E94C033282FAB
:103E90008017910709F0B6CFDF91CF911F910F9155
:103EA000FF90EF90089581E090E0E0910D01F09196
:103EB0000E01E80FF91F1082019680319105A9F7D4
:103EC00008959091BA01892B8093BA010895809545
:103ED0009091BA0189238093BA0108951092BA0192
:103EE00008959091B901892B8093B9010895809527
:103EF0009091B90189238093B90108951092B90175
:103F000008958093A50108951092A50108958091C8
:103F10000C01811103C08091B60108950895E091CC
:103F20000D01F0910E018091BA018083E0910D01A5
:103F3000F0910E0190818091B901892B808380914D
:103F4000A501882361F0E0910D01F0910E019081AF
:103F5000892B80830E94871F81111092A501809177
:103F60000D0190910E010C94A6128B3B50F4883AEF
:103F7000E8F4853A90F4843070F4813009F455C047
:103F800007C0803E28F0883E30F0803F08F04AC0ED
:103F900080E090E0089590E00895853A09F448C0E3
:103FA000863A09F448C083E890E40895883A09F411
:103FB00045C0893A09F445C08A3A09F445C08B3AAC
:103FC00009F445C08C3A09F445C08D3A09F445C05E
:103FD000803B09F445C08E3A09F445C08F3A09F494
:103FE00045C0813B09F445C0823B09F445C0833B91
:103FF00009F445C0843B09F445C0853B09F445C03C
:10400000863B09F445C0873B09F445C0883B09F469
:1040100045C0893B09F445C08A3B09F445C080E0AE
:1040200094E4089590E09065089581E090E008950B
:1040300081E890E4089582E890E4089582EE94E4A3
:10404000089589EE94E408958AEE94E4089585EB4A
:1040500094E4089586EB94E4089587EB94E408953E
:104060008CEC94E408958DEC94E4089583E895E451
:1040700008958AE895E4089582E995E4089584E92D
:1040800095E4089581E296E4089583E296E4089524
:1040900084E296E4089585E296E4089586E296E443
:1040A000089587E296E408958AE296E408950E94CE
:1040B0005609803EA8F4803C00F5813309F45CC0C9
:1040C00038F4893209F452C08A3209F45BC05FC007
:1040D0008933B1F08238A1F0853309F441C057C06B
:1040E000833E41F128F4803E99F0823EB9F04FC002
:1040F000863E31F1873E71F14AC00E945A09089507
:104100009091EA0190FD02C091FF41C080EE3FC056
:104110008091EA0180FFFACF89E339C08091EA01FA
:1041200082FF0CC08091EA0184FF02C080E02FC0B2
:1041300083EE2DC08091EA0182FFF4CF82EE27C08A
:104140008091EA0183FF0AC08091EA0184FDEECFED
:1041500087EE1DC08091EA0183FFF6CF86EE17C07F
:104160008091EA0185FF06C089E211C08091EA01D1
:1041700085FFFACF85E30BC08091EA0186FF06C078
:104180008AE205C08091EA0186FFFACF81E30E94AE
:10419000B51F089580E090E0089508959093BD01C3
:1041A0008093BC010895CF92DF92EF92FF926C0151
:1041B000EE24FF24C114D104E104F10421F0C7016D
:1041C000B60120E101C020E0C72ED82EE92EFF2441
:1041D000C114D104E104F10419F0285FC701B6014C
:1041E0006B017C0154E0F694E794D794C7945A95F8
:1041F000D1F7C114D104E104F10419F02C5FC70117
:10420000B6016B017C0142E0F694E794D794C79421
:104210004A95D1F7C114D104E104F10419F02E5FDD
:10422000C701B601DC01CB01B695A7959795879597
:10423000892B8A2B8B2B09F02F5F822FFF90EF9019
:10424000DF90CF9008958295982F9C7C392F3695DA
:104250003695282F237344E0249FC0011124932F07
:10426000982B292F2A7A2695892F8575880F822BDE
:1042700008951F93CF93DF931F92CDB7DEB7998335
:104280000E942321182F9981892F0E942321212FF9
:1042900030E0322F2227A901482BCA010F90DF916D
:1042A000CF911F9108959091EF01943029F183FDF2
:1042B00002C090E401C090E68770892B28E130E0CD
:1042C0000FB6F894A895209360000FBE809360000D
:1042D00083B7817F846083BF83B7816083BF789415
:1042E000889583B78E7F83BF88E10FB6F89480935B
:1042F0006000109260000FBE0895CF930E944E0997
:104300000E948F090E944F09C0E08C2F0E94460A2C
:10431000811104C0CF5FC630C1F701C081E0CF91E9
:1043200008950E94B3180C94DF2E1F920F920FB6BF
:104330000F9211240F900FBE0F901F90189582E0DE
:1043400084BD93E095BD9AEF97BD80936E0008956C
:104350002FB7F8948091BE019091BF01A091C00148
:10436000B091C1012FBF0895CF92DF92EF92FF92DB
:104370000F931F932FB7F8944091BE015091BF0146
:104380006091C0017091C1012FBF6A017B01EE24D1
:10439000FF248C0120E030E0C016D106E206F306CF
:1043A00010F4415051099A01281B390BC9011F9182
:1043B0000F91FF90EF90DF90CF9008951F920F9292
:1043C0000FB60F9211248F939F93AF93BF93809159
:1043D000BE019091BF01A091C001B091C1010196B1
:1043E000A11DB11D8093BE019093BF01A093C00198
:1043F000B093C101BF91AF919F918F910F900FBE6C
:104400000F901F9018950E94AB0EF8942FEF87EA3B
:1044100091E6215080409040E1F700C0000087E025
:1044200090EBDC018093F9019093FA01A093FB01DA
:10443000B093FC012CE088E190E00FB6F894A895C9
:10444000809360000FBE20936000FFCFEF92FF9239
:104450000F931F93CF93DF93D82FC0E08C2F0E9430
:10446000460A00E010E0E82EF12CC701002E02C041
:10447000959587950A94E2F780FD06C00F5F1F4F60
:104480000430110591F709C0602F7C2F80E00E9455
:104490005609D813F3CF81E004C0CF5FC630F1F6E0
:1044A00080E0DF91CF911F910F91FF90EF900895E1
:1044B000CF93C82F80EC0E942622882321F08C2FD6
:1044C000CF910C94262280E0CF910895CF930E9443
:1044D000C723811102C00E94A2238BE394E00E94B3
:1044E000AC08C5E6C15049F00E948F098FE39CE9F2
:1044F0000197F1F700C00000F5CF84E394E00E943B
:10450000AC0889E20E94582281111AC18AE20E94F5
:104510005822882341F00E94C1230E94A2230E94B6
:104520001D320E94823185E00E94582281110E9432
:1045300003220E94D2238093BB0187E00E9458226D
:104540008823A9F18BE10E945822882351F08091A1
:10455000BB0181FB222720F991E0922790FB81F992
:104560000EC08EE00E945822882361F08091BB012A
:1045700082FB222720F991E0922790FB82F9809319
:10458000BB0115C080E10E9458229091BB01882395
:1045900041F093FB222720F981E0822780FB93F9E9
:1045A00004C0892F809580FB90F99093BB01809186
:1045B000BB010E94D6230E94E4238093EA0180EE8F
:1045C0000E945822882341F08091EA01982F90950B
:1045D00090FB80F98093EA0189E30E9458228823A6
:1045E00059F08091EA0181FB222720F991E092277E
:1045F00090FB81F98093EA0182EE0E945822882381
:1046000059F08091EA0182FB222720F991E092275C
:1046100090FB82F98093EA0186EE0E94582288235B
:1046200059F08091EA0183FB222720F991E092273B
:1046300090FB83F98093EA0183EE0E94582288233D
:1046400059F08091EA0184FB222720F991E092271A
:1046500090FB84F98093EA0185E30E945822882325
:1046600059F08091EA0185FB222720F991E09227F9
:1046700090FB85F98093EA0181E30E945822882308
:1046800059F08091EA0186FB222720F991E09227D8
:1046900090FB86F98093EA0181E10E9458228823E9
:1046A00059F08091EA0187FB222720F991E09227B7
:1046B00090FB87F98093EA018091EA010E94E82348
:1046C0008091EA0187FB882780F980930C0187E2BB
:1046D0000E945822C82F8EE10E9458228111C26088
:1046E0008FE10E9458228111C46080E20E9458220A
:1046F0008111C86081E20E9458228111C06182E26A
:104700000E9458228111C06283E20E9458228111C6
:10471000C06484E20E945822882311F0C06802C05D
:10472000CC2329F08C2F0E94DF236C2F03C00E9422
:10473000DB23682F70E080E090E0CF910C94B41CF4
:10474000CF9108956DEE7EEF80E090E00E940A34F4
:1047500060E082E090E00E94FC3360E083E090E063
:104760000E94FC3360E084E090E00E94FC3360E053
:1047700085E090E00E94FC3360E086E090E00C94DD
:10478000FC336FEF7FEF80E090E00C940A3480E020
:1047900090E00E94F63321E08D3E9E4F09F020E02C
:1047A000822F089582E090E00C94EE33682F82E02F
:1047B00090E00C94FC3383E090E00C94EE33682F8F
:1047C00083E090E00C94FC3384E090E00C94EE33B2
:1047D000682F84E090E00C94FC3386E090E00C9429
:1047E000EE33682F86E090E00C94FC338091C40196
:1047F00080FF0BC06091120185E0689FB001112419
:1048000075956795759567952BC081FF09C0609177
:10481000120185E0689FB00111247595679520C04D
:1048200082FF07C06091120185E0689FB0011124EA
:1048300017C09091C5019923D1F06091110196178D
:1048400088F72091120185E0289F90011124929F02
:10485000A001939F500D112470E0CA010E94C03343
:104860006038710540F46115710539F002C065E0EA
:1048700070E0862F08958FE7089581E00895809174
:10488000C40180FF08C06091100170E075956795C4
:104890007595679521C081FF06C06091100170E099
:1048A0007595679519C082FF04C06091100170E092
:1048B00010C09091C5019923C1F060910F01961726
:1048C000A0F780911001899FC001112470E00E941F
:1048D000C0336038710528F46115710521F0862F09
:1048E00008958FE7089581E0089561E070E0F4CFC6
:1048F000803F21F40E94F623819504C0813F29F472
:104900000E94F6238093C8010895823F21F40E94FB
:10491000F623819504C0833F29F40E94F6238093F7
:10492000C7010895893F19F40E943F2405C08A3FBA
:1049300031F40E943F2481958093C90108958B3FF3
:1049400021F40E943F24819504C08C3F29F40E94E9
:104950003F248093CA010895843F21F48091C601C9
:10496000816017C0853F21F48091C601826011C02B
:10497000863F21F48091C60184600BC0873F21F4FB
:104980008091C601886005C0883F31F48091C601DE
:1049900080618093C60108958D3F21F48091C40108
:1049A00081600BC08E3F21F48091C401826005C0FC
:1049B0008F3F29F48091C40184608093C4010895DD
:1049C000803F39F48091C80187FF6CC01092C80104
:1049D00069C0813F29F48091C8011816BCF362C0F8
:1049E0009091C701823F29F497FF5CC01092C701E4
:1049F00059C0833F19F41916CCF354C0893F41F4D0
:104A00008091C90118160CF04DC01092C9014AC01E
:104A10008A3F29F48091C90187FF44C0F6CF8B3FBC
:104A200039F48091CA0187FF3DC01092CA013AC093
:104A30008C3F29F48091CA011816BCF333C0843F1F
:104A400021F48091C6018E7F17C0853F21F48091AB
:104A5000C6018D7F11C0863F21F48091C6018B7FF6
:104A60000BC0873F21F48091C601877F05C0883F36
:104A700031F48091C6018F7E8093C60113C08D3FB3
:104A800021F48091C4018E7F0BC08E3F21F4809170
:104A9000C4018D7F05C08F3F29F48091C4018B7FB5
:104AA0008093C4018091C70181110EC08091C8011B
:104AB00081110AC08091C901811106C08091CA018B
:104AC000811102C01092C50108958091BB0183FF3E
:104AD0007EC087E794E00E94AC088091C6011F92D7
:104AE0008F9382E794E09F938F930E94450980E71C
:104AF00094E00E94AC088091C701282F332727FD3E
:104B000030953F938F938DE694E09F938F930E940F
:104B100045098BE694E00E94AC088091C801282FDB
:104B2000332727FD30953F938F9388E694E09F933A
:104B30008F930E94450986E694E00E94AC0880911C
:104B4000C901282F332727FD30953F938F9383E6A4
:104B500094E09F938F930E94450981E694E00E9420
:104B6000AC088091CA01282F332727FD30953F9349
:104B70008F938EE594E09F938F930E9445098BE578
:104B800094E00E94AC088091C5011F928F9388E544
:104B900094E09F938F930E94450986E594E00E94DC
:104BA000AC088091C4011F928F9383E594E09F939A
:104BB0008F930E94450980E594E00E94AC088DB770
:104BC0009EB74C960FB6F8949EBF0FBE8DBF86EC75
:104BD00091E00E94EF120E94A8219093C30180935C
:104BE000C20108951F93CF93DF938091C2019091EA
:104BF000C3010E94B421AC019091C501992321F019
:104C00002091130130E006C0209114018AE0289F12
:104C1000900111244217530708F486C08091C70100
:104C2000C091C801D091C9011091CA01811107C07A
:104C3000C11176C0D11174C0111172C075C09F3FEF
:104C400019F09F5F9093C501181624F40E94F62373
:104C50008093C7018091C70187FF05C00E94F6239A
:104C600081958093C7011C1624F40E94F62380933B
:104C7000C8018091C80187FF05C00E94F623819575
:104C80008093C8016091C701662339F1C091C801C2
:104C9000CC2319F1772767FD7095872F972F0E94F6
:104CA000D13223E333E343E35FE30E9435330E94D1
:104CB0009E326093C7016C2F772767FD7095872F11
:104CC000972F0E94D13223E333E343E35FE30E9453
:104CD00035330E949E326093C8011D1624F40E9451
:104CE0003F248093C9018091C90187FF05C00E94BC
:104CF0003F2481958093C901111624F40E943F241A
:104D00008093CA018091CA0187FF05C00E943F2499
:104D100081958093CA01DF91CF911F910C946525F5
:104D20009F3F09F08ECF96CFDF91CF911F910895CD
:104D3000E6ECF1E085E0DF011D928A95E9F710923B
:104D4000C5011092C401089581E499E00E94AC0865
:104D500084E399E00E94AC0887E299E00C94AC08E7
:104D600084EA98E00E94AC0887E998E00E94AC08C9
:104D70008CE798E00E94AC0881E698E00E94AC08BD
:104D800089E498E00E94AC088FE298E00E94AC08A9
:104D900081E198E00E94AC0881EF97E00E94AC08A6
:104DA0008DED97E00E94AC0886EC97E00E94AC087D
:104DB0008AEA97E00E94AC088CE897E00E94AC0871
:104DC0008DE697E00E94AC088CE497E00E94AC0866
:104DD00087E197E00E94AC0882E097E00E94AC086F
:104DE0001F9285E08F938FEF96E09F938F930E94A1
:104DF000450986EF96E00E94AC081F9281E08F93F0
:104E000083EF96E09F938F930E94450981EF96E090
:104E10000E94AC088DB79EB708960FB6F8949EBF57
:104E20000FBE8DBF84EC96E00C94AC08833009F47F
:104E300059C028F4813061F0823079F108958530CD
:104E400009F49AC008F473C0863009F4BAC0089512
:104E500080911401262F30E0280F311D2F3F31059E
:104E600024F4680F6093140103C08FEF8093140142
:104E700080EA95E00E94AC08809114011F928F9304
:104E80008DE995E09F938F930E9445090F900F90B5
:104E90000F900F908BE995E0B8C080911301262FF9
:104EA00030E0280F311D2F3F310524F4680F609347
:104EB000130103C08FEF809313018CE895E00E94EB
:104EC000AC08809113011F928F9389E895E09F931E
:104ED0008F930E9445090F900F900F900F9087E8D5
:104EE00095E093C080911201262F30E0280F311DEC
:104EF0002F3F310524F4680F6093120103C08FEF38
:104F00008093120187E795E00E94AC08809112011E
:104F10001F928F9384E795E09F938F930E9445099A
:104F20000F900F900F900F9082E795E06EC08091E8
:104F30001101262F30E0280F311D2F3F310524F4B9
:104F4000680F6093110103C08FEF8093110180E619
:104F500095E00E94AC08809111011F928F938DE51E
:104F600095E09F938F930E9445090F900F900F90AB
:104F70000F908BE595E049C080911001262F30E01D
:104F8000280F311D2F3F310524F4680F6093100165
:104F900003C08FEF8093100185E495E00E94AC0878
:104FA000809110011F928F9382E495E09F938F93DD
:104FB0000E9445090F900F900F900F9080E495E0AC
:104FC00024C080910F01262F30E0280F311D2F3F84
:104FD000310524F4680F60930F0103C08FEF8093B5
:104FE0000F0188E295E00E94AC0880910F011F92AA
:104FF0008F9385E295E09F938F930E9445090F90D0
:105000000F900F900F9083E295E00C94AC088330E2
:1050100009F44DC028F4813061F0823049F10895DF
:10502000853009F482C008F461C0863009F49CC060
:10503000089580911401681720F4861B8093140151
:1050400002C01092140187E195E00E94AC088091A3
:1050500014011F928F9384E195E09F938F930E9498
:1050600045090F900F900F900F9082E195E09AC044
:1050700080911301681720F4861B8093130102C0EE
:105080001092130183E095E00E94AC088091130117
:105090001F928F9380E095E09F938F930E94450924
:1050A0000F900F900F900F908EEF94E07BC0809147
:1050B0001201681720F4861B8093120102C010921F
:1050C00012018EEE94E00E94AC08809112011F92B2
:1050D0008F938BEE94E09F938F930E9445090F90DE
:1050E0000F900F900F9089EE94E05CC080911101B9
:1050F000681720F4861B8093110102C010921101E1
:1051000087ED94E00E94AC08809111011F928F936B
:1051100084ED94E09F938F930E9445090F900F9028
:105120000F900F9082ED94E03DC0809110016817C0
:1051300020F4861B8093100102C0109210018CEBAA
:1051400094E00E94AC08809110011F928F9389EB2C
:1051500094E09F938F930E9445090F900F900F90BA
:105160000F9087EB94E01EC080910F01681720F428
:10517000861B80930F0102C010920F018FE994E00B
:105180000E94AC0880910F011F928F938CE994E0EC
:105190009F938F930E9445090F900F900F900F904F
:1051A0008AE994E00C94AC08CF93C82F80E199E091
:1051B0000E94AC086091A1017091A2018091A301AD
:1051C0009091A4010E94D3201F928F938DE099E0CB
:1051D0009F938F930E94450988E099E00E94AC0854
:1051E0001F92CF9385E099E09F938F930E9445098A
:1051F00083E099E00E94AC0881E090E0A0E0B0E09C
:10520000BC01CD0104C0660F771F881F991FCA9586
:10521000D2F70E94B41C8DB79EB708960FB6F894CB
:105220009EBF0FBE8DBFCF910C94B318CF93482F64
:1052300050E0FA013697E334F10508F0EDC2E05989
:10524000FF4F0C94D43380EC9FE00E94AC0889EAB5
:105250009CE00E94AC080E94DB231F928F9386EA99
:105260009CE09F938F930E94450984EA9CE00E94F2
:10527000AC080E94D223C82F81E99CE00E94AC08B0
:105280001F92CF938CE89CE09F938F930E944509D7
:105290008AE89CE00E94AC0880E89CE00E94AC0890
:1052A0008C2F81701F928F938DE79CE09F938F933B
:1052B0000E9445098BE79CE00E94AC0881E79CE0D6
:1052C0000E94AC08C1FB882780F91F928F938EE65D
:1052D0009CE09F938F930E9445098CE69CE00E947E
:1052E000AC0880E69CE00E94AC08C2FB882780F9ED
:1052F0001F928F938DE59CE09F938F930E944509A9
:105300008BE59CE00E94AC0882E59CE00E94AC0822
:10531000C3FBCC27C0F91F92CF938FE49CE09F93EF
:105320008F930E9445098DE49CE00E94AC080E9486
:10533000E423C82F89E39CE00E94AC081F92CF931E
:1053400084E39CE09F938F930E94450982E39CE055
:105350000E94AC0889E19CE00E94AC088C2F81700F
:105360001F928F9386E19CE09F938F930E94450943
:105370008DB79EB780960FB6F8949EBF0FBE8DBFB7
:1053800084E19CE00E94AC088DEF9BE00E94AC0899
:10539000C1FB882780F91F928F938AEF9BE09F9330
:1053A0008F930E94450988EF9BE00E94AC0886EE2F
:1053B0009BE00E94AC08C2FB882780F91F928F9364
:1053C00083EE9BE09F938F930E94450981EE9BE0C3
:1053D0000E94AC088FEC9BE00E94AC08C3FB8827BE
:1053E00080F91F928F938CEC9BE09F938F930E9488
:1053F00045098AEC9BE00E94AC0880EC9BE00E948F
:10540000AC08C4FB882780F91F928F938DEB9BE03B
:105410009F938F930E9445098BEB9BE00E94AC0801
:1054200089EA9BE00E94AC08C5FB882780F91F929F
:105430008F9386EA9BE09F938F930E94450984EAAD
:105440009BE00E94AC0888E89BE00E94AC08C6FB89
:10545000882780F91F928F9385E89BE09F938F9315
:105460000E94450983E89BE00E94AC088BE79BE023
:105470000E94AC08C7FBCC27C0F91F92CF9388E7E6
:105480009BE09F938F930E94450986E79BE00E94D3
:10549000AC080E94ED23C82F8FE59BE00E94AC086A
:1054A0001F92CF938AE59BE09F938F930E944509BB
:1054B0008DB79EB780960FB6F8949EBF0FBE8DBF76
:1054C00088E59BE00E94AC088EE49BE00E94AC085B
:1054D0008C2F81701F928F938BE49BE09F938F930F
:1054E0000E94450989E49BE00E94AC0880E49BE0AF
:1054F0000E94AC08C6951F92CF938DE39BE09F93CB
:105500008F930E9445098BE39BE00E94AC088DB706
:105510009EB708960FB6F8949EBF0FBE8DBF1BC0F6
:105520000E949512892B69F00E9495129093CD01EB
:105530008093CC0180E090E00E94901287EB9FE086
:1055400008C08091CC019091CD010E9490128CEA0C
:105550009FE00E94AC08C1E064C18FE19BE00E9423
:10556000AC0888E09BE00E94AC0880EF9AE00E94C3
:10557000AC0888ED9AE00E94AC088EEB9AE00E949D
:10558000AC0887EA9AE00E94AC0887E89AE00E949B
:10559000AC0881E79AE00E94AC0880E69AE00E949D
:1055A000AC0888E49AE00E94AC0888E39AE00E9484
:1055B000AC088EE19AE00E94AC0885E09AE00E9477
:1055C000AC088CEE99E00E94AC0883ED99E00E9453
:1055D000AC088AEB99E00E94AC0889E999E00E9446
:1055E000AC0887E799E00E94AC088DE599E0B1CF5F
:1055F0008091BB01817F8E7F8093BB010E94A42696
:1056000087E99FE00E94AC0883E99FE00E94AC0814
:1056100081E08093CB019FCF0E94B3188AE79FE07F
:105620000E94AC089FEF23ED80E391502040804022
:10563000E1F700C000000E9403228AE69FE089CFC4
:105640008091BB01C82FC17080FF09C087E59FE032
:105650000E94AC088091BB01817F8E7F47C085E4AA
:105660009FE00E94AC088091BB0181608093BB01E8
:1056700072CF9091BB0191FBCC27C0F981E0C82784
:10568000892FC0FB81F98093BB01CC2319F08CE2F8
:105690009FE027C082E19FE05CCF9091BB0192FB2D
:1056A000CC27C0F981E0C827892FC0FB82F98093FD
:1056B000BB01CC2319F087EF9EE013C08BED9EE079
:1056C00048CF9091BB0193FBCC27C0F981E0C8275C
:1056D000892FC0FB83F98093BB01CC2351F083EC6D
:1056E0009EE00E94AC088091BB0181608093BB0169
:1056F00098C08AEA9EE02DCF83E99EE00E94AC0824
:1057000088E69EE00E94AC0881E39EE00E94AC081F
:105710008AE09EE00E94AC0883E79DE00E94AC080E
:1057200088E49DE016CF8091BE019091BF01A091C9
:10573000C001B091C101BF93AF939F938F9384E356
:105740009DE09F938F930E9445090F900F900F90BB
:105750000F900F900F90FFCE8EE19DE00E94AC085D
:105760000E949A121F928F9384E09DE09F938F93E3
:105770000E94450980910B011F928F938DEE9CE052
:105780009F938F930E944509809145011F928F93AB
:105790008AED9CE09F938F930E9445098DB79EB739
:1057A0000C960FB6F8949EBF0FBE8DBFD4CE0E944C
:1057B000B318C0910C0181E0C827C0930C01CC2321
:1057C00029F08BEC9CE00E94AC082BC08BEB9CE09A
:1057D000C0CE81E890E00E94FA129FEF21EE84E0B3
:1057E000915020408040E1F700C0000080E090E050
:1057F0000E94FA129FEF29E688E1915020408040F4
:10580000E1F700C00000A7CE80E003C08D5101C0C9
:1058100089530E94D4289FCE89EB9CE00E94AC085B
:10582000C0E08C2FCF91089580E0089580E0089526
:10583000CF93C82F8091CB018130A1F020F082302E
:1058400009F45CC06BC160E080E00E94310A8823EB
:1058500009F466C163E080E00E94310A882309F4FC
:105860005FC10CC060E080E00E94310A882391F0A3
:1058700063E080E00E94310A882361F08C2F0E944F
:10588000142C811104C08C2F0E94162935C081E090
:1058900090E032C08C2F0E94162C81112CC0C43194
:1058A000F1F090F4CB30A1F0C03101F50E94B026A8
:1058B00082ED98E00E94AC088EEC98E00E94AC0863
:1058C00082E08093CB0117C0C93249F0C83371F42C
:1058D0000E94A4268FEF98E00E94AC080CC08BEECB
:1058E00098E00E94AC081092CB011CC18CEC98E0AF
:1058F0000E94AC0817C181E0817016C1C83228F53A
:10590000CE3108F0C0C0CB30A1F1D0F4C73009F0DF
:10591000E8C08EE18093140182E3809313018AE052
:105920008093120184E18093110188E0809310013B
:1059300088E280930F0189E796E00E94AC08D6C008
:10594000C33141F1C431C1F0CCC0CB3409F4BEC085
:1059500028F4C93289F0C83361F0C3C0C13509F4F5
:10596000B3C0C23509F4AEC0CE3409F0BAC06AE0A3
:10597000B3C00E94B026BAC01092CE018CEA96E065
:105980000E94AC0888EA96E00E94AC0881E080930F
:10599000CB01CAC08CE496E00E94AC0887E396E095
:1059A0000E94AC08809114011F928F9384E396E0CB
:1059B0009F938F930E94450982E396E00E94AC0872
:1059C0008DE196E00E94AC08809113011F928F93A5
:1059D0008AE196E09F938F930E94450988E196E0C3
:1059E0000E94AC0886E096E00E94AC08809112010B
:1059F0001F928F9383E096E09F938F930E944509B7
:105A000081E096E00E94AC088DEE95E00E94AC0823
:105A1000809111011F928F938AEE95E09F938F934F
:105A20000E94450988EE95E00E94AC0880ED95E063
:105A30000E94AC08809110011F928F938DEC95E02D
:105A40009F938F930E9445098BEC95E00E94AC08D0
:105A500081EB95E00E94AC0880910F011F928F931B
:105A60008EEA95E09F938F930E9445098CEA95E01A
:105A70000E94AC088DB79EB748960FB6F8949EBFAB
:105A80000FBE8DBF33C0CE51EC2FF0E0E25DFE4F74
:105A900080818093CE0183E996E00E94AC088091DA
:105AA000CE011F928F9380E996E09F938F930E947F
:105AB00045098EE896E00E94AC080F900F900F9079
:105AC0000F9014C061E003C061E006C06AE08091FD
:105AD000CE010E9416270AC08091CE010E9407289D
